{
	"contract/CoinToss.sol": {
		"VRFv2Consumer": {
			"abi": [
				{
					"inputs": [
						{
							"internalType": "uint64",
							"name": "subscriptionId",
							"type": "uint64"
						}
					],
					"stateMutability": "nonpayable",
					"type": "constructor"
				},
				{
					"inputs": [
						{
							"internalType": "address",
							"name": "have",
							"type": "address"
						},
						{
							"internalType": "address",
							"name": "want",
							"type": "address"
						}
					],
					"name": "OnlyCoordinatorCanFulfill",
					"type": "error"
				},
				{
					"anonymous": false,
					"inputs": [
						{
							"indexed": true,
							"internalType": "address",
							"name": "from",
							"type": "address"
						},
						{
							"indexed": true,
							"internalType": "address",
							"name": "to",
							"type": "address"
						}
					],
					"name": "OwnershipTransferRequested",
					"type": "event"
				},
				{
					"anonymous": false,
					"inputs": [
						{
							"indexed": true,
							"internalType": "address",
							"name": "from",
							"type": "address"
						},
						{
							"indexed": true,
							"internalType": "address",
							"name": "to",
							"type": "address"
						}
					],
					"name": "OwnershipTransferred",
					"type": "event"
				},
				{
					"anonymous": false,
					"inputs": [
						{
							"indexed": false,
							"internalType": "uint256",
							"name": "requestId",
							"type": "uint256"
						},
						{
							"indexed": false,
							"internalType": "uint256[]",
							"name": "randomWords",
							"type": "uint256[]"
						}
					],
					"name": "RequestFulfilled",
					"type": "event"
				},
				{
					"anonymous": false,
					"inputs": [
						{
							"indexed": false,
							"internalType": "uint256",
							"name": "requestId",
							"type": "uint256"
						},
						{
							"indexed": false,
							"internalType": "uint32",
							"name": "numWords",
							"type": "uint32"
						}
					],
					"name": "RequestSent",
					"type": "event"
				},
				{
					"inputs": [],
					"name": "acceptOwnership",
					"outputs": [],
					"stateMutability": "nonpayable",
					"type": "function"
				},
				{
					"inputs": [
						{
							"internalType": "uint256",
							"name": "_requestId",
							"type": "uint256"
						}
					],
					"name": "getRequestStatus",
					"outputs": [
						{
							"internalType": "bool",
							"name": "fulfilled",
							"type": "bool"
						},
						{
							"internalType": "uint256[]",
							"name": "randomWords",
							"type": "uint256[]"
						}
					],
					"stateMutability": "view",
					"type": "function"
				},
				{
					"inputs": [],
					"name": "lastRequestId",
					"outputs": [
						{
							"internalType": "uint256",
							"name": "",
							"type": "uint256"
						}
					],
					"stateMutability": "view",
					"type": "function"
				},
				{
					"inputs": [],
					"name": "owner",
					"outputs": [
						{
							"internalType": "address",
							"name": "",
							"type": "address"
						}
					],
					"stateMutability": "view",
					"type": "function"
				},
				{
					"inputs": [
						{
							"internalType": "uint256",
							"name": "requestId",
							"type": "uint256"
						},
						{
							"internalType": "uint256[]",
							"name": "randomWords",
							"type": "uint256[]"
						}
					],
					"name": "rawFulfillRandomWords",
					"outputs": [],
					"stateMutability": "nonpayable",
					"type": "function"
				},
				{
					"inputs": [
						{
							"internalType": "uint256",
							"name": "",
							"type": "uint256"
						}
					],
					"name": "requestIds",
					"outputs": [
						{
							"internalType": "uint256",
							"name": "",
							"type": "uint256"
						}
					],
					"stateMutability": "view",
					"type": "function"
				},
				{
					"inputs": [],
					"name": "requestRandomWords",
					"outputs": [
						{
							"internalType": "uint256",
							"name": "requestId",
							"type": "uint256"
						}
					],
					"stateMutability": "nonpayable",
					"type": "function"
				},
				{
					"inputs": [
						{
							"internalType": "uint256",
							"name": "",
							"type": "uint256"
						}
					],
					"name": "s_requests",
					"outputs": [
						{
							"internalType": "bool",
							"name": "fulfilled",
							"type": "bool"
						},
						{
							"internalType": "bool",
							"name": "exists",
							"type": "bool"
						}
					],
					"stateMutability": "view",
					"type": "function"
				},
				{
					"inputs": [
						{
							"internalType": "uint256",
							"name": "_requestId",
							"type": "uint256"
						}
					],
					"name": "tossResult",
					"outputs": [
						{
							"internalType": "string",
							"name": "",
							"type": "string"
						}
					],
					"stateMutability": "view",
					"type": "function"
				},
				{
					"inputs": [
						{
							"internalType": "address",
							"name": "to",
							"type": "address"
						}
					],
					"name": "transferOwnership",
					"outputs": [],
					"stateMutability": "nonpayable",
					"type": "function"
				}
			],
			"devdoc": {
				"kind": "dev",
				"methods": {},
				"version": 1
			},
			"evm": {
				"assembly": "    /* \"contract/CoinToss.sol\":260:2869  contract VRFv2Consumer is VRFConsumerBaseV2, ConfirmedOwner {... */\n  mstore(0x40, 0xa0)\n    /* \"contract/CoinToss.sol\":805:871  0x4b09e658ed251bcafeebbc69400383d49f344ace09b9576fe248bb02c003fe9f */\n  0x4b09e658ed251bcafeebbc69400383d49f344ace09b9576fe248bb02c003fe9f\n    /* \"contract/CoinToss.sol\":779:871  bytes32 keyHash =... */\n  0x00\n  shl\n  0x06\n  sstore\n    /* \"contract/CoinToss.sol\":903:909  100000 */\n  0x0186a0\n    /* \"contract/CoinToss.sol\":877:909  uint32 callbackGasLimit = 100000 */\n  0x07\n  exp(0x0100, 0x00)\n  dup2\n  sload\n  dup2\n  0xffffffff\n  mul\n  not\n  and\n  swap1\n  dup4\n  0xffffffff\n  and\n  mul\n  or\n  swap1\n  sstore\n  pop\n    /* \"contract/CoinToss.sol\":947:948  3 */\n  0x03\n    /* \"contract/CoinToss.sol\":917:948  uint16 requestConfirmations = 3 */\n  0x07\n  exp(0x0100, 0x04)\n  dup2\n  sload\n  dup2\n  0xffff\n  mul\n  not\n  and\n  swap1\n  dup4\n  0xffff\n  and\n  mul\n  or\n  swap1\n  sstore\n  pop\n    /* \"contract/CoinToss.sol\":973:974  1 */\n  0x01\n    /* \"contract/CoinToss.sol\":955:974  uint32 numWords = 1 */\n  0x07\n  exp(0x0100, 0x06)\n  dup2\n  sload\n  dup2\n  0xffffffff\n  mul\n  not\n  and\n  swap1\n  dup4\n  0xffffffff\n  and\n  mul\n  or\n  swap1\n  sstore\n  pop\n    /* \"contract/CoinToss.sol\":981:1303  constructor(... */\n  callvalue\n  dup1\n  iszero\n  tag_1\n  jumpi\n  0x00\n  dup1\n  revert\ntag_1:\n  pop\n  mload(0x40)\n  sub(codesize, bytecodeSize)\n  dup1\n  bytecodeSize\n  dup4\n  codecopy\n  dup2\n  dup2\n  add\n  0x40\n  mstore\n  dup2\n  add\n  swap1\n  tag_2\n  swap2\n  swap1\n  tag_3\n  jump\t// in\ntag_2:\n    /* \"contract/CoinToss.sol\":1123:1133  msg.sender */\n  caller\n    /* \"@chainlink/contracts/src/v0.8/ConfirmedOwner.sol\":327:335  newOwner */\n  dup1\n    /* \"@chainlink/contracts/src/v0.8/ConfirmedOwner.sol\":345:346  0 */\n  0x00\n    /* \"contract/CoinToss.sol\":1056:1098  0x7a1BaC17Ccc5b313516C5E16fb24f7659aA5ebed */\n  0x7a1bac17ccc5b313516c5e16fb24f7659aa5ebed\n    /* \"@chainlink/contracts/src/v0.8/VRFConsumerBaseV2.sol\":5616:5631  _vrfCoordinator */\n  dup1\n    /* \"@chainlink/contracts/src/v0.8/VRFConsumerBaseV2.sol\":5599:5631  vrfCoordinator = _vrfCoordinator */\n  0xffffffffffffffffffffffffffffffffffffffff\n  and\n  0x80\n  dup2\n  0xffffffffffffffffffffffffffffffffffffffff\n  and\n  dup2\n  mstore\n  pop\n  pop\n    /* \"@chainlink/contracts/src/v0.8/VRFConsumerBaseV2.sol\":5556:5636  constructor(address _vrfCoordinator) {... */\n  pop\n    /* \"@chainlink/contracts/src/v0.8/ConfirmedOwnerWithProposal.sol\":572:573  0 */\n  0x00\n    /* \"@chainlink/contracts/src/v0.8/ConfirmedOwnerWithProposal.sol\":552:574  newOwner != address(0) */\n  0xffffffffffffffffffffffffffffffffffffffff\n  and\n    /* \"@chainlink/contracts/src/v0.8/ConfirmedOwnerWithProposal.sol\":552:560  newOwner */\n  dup3\n    /* \"@chainlink/contracts/src/v0.8/ConfirmedOwnerWithProposal.sol\":552:574  newOwner != address(0) */\n  0xffffffffffffffffffffffffffffffffffffffff\n  and\n  sub\n    /* \"@chainlink/contracts/src/v0.8/ConfirmedOwnerWithProposal.sol\":544:603  require(newOwner != address(0), \"Cannot set owner to zero\") */\n  tag_10\n  jumpi\n  mload(0x40)\n  0x08c379a000000000000000000000000000000000000000000000000000000000\n  dup2\n  mstore\n  0x04\n  add\n  tag_11\n  swap1\n  tag_12\n  jump\t// in\ntag_11:\n  mload(0x40)\n  dup1\n  swap2\n  sub\n  swap1\n  revert\ntag_10:\n    /* \"@chainlink/contracts/src/v0.8/ConfirmedOwnerWithProposal.sol\":620:628  newOwner */\n  dup2\n    /* \"@chainlink/contracts/src/v0.8/ConfirmedOwnerWithProposal.sol\":610:617  s_owner */\n  0x00\n  dup1\n    /* \"@chainlink/contracts/src/v0.8/ConfirmedOwnerWithProposal.sol\":610:628  s_owner = newOwner */\n  0x0100\n  exp\n  dup2\n  sload\n  dup2\n  0xffffffffffffffffffffffffffffffffffffffff\n  mul\n  not\n  and\n  swap1\n  dup4\n  0xffffffffffffffffffffffffffffffffffffffff\n  and\n  mul\n  or\n  swap1\n  sstore\n  pop\n    /* \"@chainlink/contracts/src/v0.8/ConfirmedOwnerWithProposal.sol\":662:663  0 */\n  0x00\n    /* \"@chainlink/contracts/src/v0.8/ConfirmedOwnerWithProposal.sol\":638:664  pendingOwner != address(0) */\n  0xffffffffffffffffffffffffffffffffffffffff\n  and\n    /* \"@chainlink/contracts/src/v0.8/ConfirmedOwnerWithProposal.sol\":638:650  pendingOwner */\n  dup2\n    /* \"@chainlink/contracts/src/v0.8/ConfirmedOwnerWithProposal.sol\":638:664  pendingOwner != address(0) */\n  0xffffffffffffffffffffffffffffffffffffffff\n  and\n  eq\n    /* \"@chainlink/contracts/src/v0.8/ConfirmedOwnerWithProposal.sol\":634:713  if (pendingOwner != address(0)) {... */\n  tag_13\n  jumpi\n    /* \"@chainlink/contracts/src/v0.8/ConfirmedOwnerWithProposal.sol\":674:706  _transferOwnership(pendingOwner) */\n  tag_14\n    /* \"@chainlink/contracts/src/v0.8/ConfirmedOwnerWithProposal.sol\":693:705  pendingOwner */\n  dup2\n    /* \"@chainlink/contracts/src/v0.8/ConfirmedOwnerWithProposal.sol\":674:692  _transferOwnership */\n  shl(0x20, tag_15)\n    /* \"@chainlink/contracts/src/v0.8/ConfirmedOwnerWithProposal.sol\":674:706  _transferOwnership(pendingOwner) */\n  0x20\n  shr\n  jump\t// in\ntag_14:\n    /* \"@chainlink/contracts/src/v0.8/ConfirmedOwnerWithProposal.sol\":634:713  if (pendingOwner != address(0)) {... */\ntag_13:\n    /* \"@chainlink/contracts/src/v0.8/ConfirmedOwnerWithProposal.sol\":486:717  constructor(address newOwner, address pendingOwner) {... */\n  pop\n  pop\n    /* \"@chainlink/contracts/src/v0.8/ConfirmedOwner.sol\":270:351  constructor(address newOwner) ConfirmedOwnerWithProposal(newOwner, address(0)) {} */\n  pop\n    /* \"contract/CoinToss.sol\":1201:1243  0x7a1BaC17Ccc5b313516C5E16fb24f7659aA5ebed */\n  0x7a1bac17ccc5b313516c5e16fb24f7659aa5ebed\n    /* \"contract/CoinToss.sol\":1149:1160  COORDINATOR */\n  0x03\n  0x00\n    /* \"contract/CoinToss.sol\":1149:1253  COORDINATOR = VRFCoordinatorV2Interface(... */\n  0x0100\n  exp\n  dup2\n  sload\n  dup2\n  0xffffffffffffffffffffffffffffffffffffffff\n  mul\n  not\n  and\n  swap1\n  dup4\n  0xffffffffffffffffffffffffffffffffffffffff\n  and\n  mul\n  or\n  swap1\n  sstore\n  pop\n    /* \"contract/CoinToss.sol\":1282:1296  subscriptionId */\n  dup1\n    /* \"contract/CoinToss.sol\":1263:1279  s_subscriptionId */\n  0x03\n  0x14\n    /* \"contract/CoinToss.sol\":1263:1296  s_subscriptionId = subscriptionId */\n  0x0100\n  exp\n  dup2\n  sload\n  dup2\n  0xffffffffffffffff\n  mul\n  not\n  and\n  swap1\n  dup4\n  0xffffffffffffffff\n  and\n  mul\n  or\n  swap1\n  sstore\n  pop\n    /* \"contract/CoinToss.sol\":981:1303  constructor(... */\n  pop\n    /* \"contract/CoinToss.sol\":260:2869  contract VRFv2Consumer is VRFConsumerBaseV2, ConfirmedOwner {... */\n  jump(tag_18)\n    /* \"@chainlink/contracts/src/v0.8/ConfirmedOwnerWithProposal.sol\":1497:1685  function _transferOwnership(address to) private {... */\ntag_15:\n    /* \"@chainlink/contracts/src/v0.8/ConfirmedOwnerWithProposal.sol\":1565:1575  msg.sender */\n  caller\n    /* \"@chainlink/contracts/src/v0.8/ConfirmedOwnerWithProposal.sol\":1559:1575  to != msg.sender */\n  0xffffffffffffffffffffffffffffffffffffffff\n  and\n    /* \"@chainlink/contracts/src/v0.8/ConfirmedOwnerWithProposal.sol\":1559:1561  to */\n  dup2\n    /* \"@chainlink/contracts/src/v0.8/ConfirmedOwnerWithProposal.sol\":1559:1575  to != msg.sender */\n  0xffffffffffffffffffffffffffffffffffffffff\n  and\n  sub\n    /* \"@chainlink/contracts/src/v0.8/ConfirmedOwnerWithProposal.sol\":1551:1603  require(to != msg.sender, \"Cannot transfer to self\") */\n  tag_20\n  jumpi\n  mload(0x40)\n  0x08c379a000000000000000000000000000000000000000000000000000000000\n  dup2\n  mstore\n  0x04\n  add\n  tag_21\n  swap1\n  tag_22\n  jump\t// in\ntag_21:\n  mload(0x40)\n  dup1\n  swap2\n  sub\n  swap1\n  revert\ntag_20:\n    /* \"@chainlink/contracts/src/v0.8/ConfirmedOwnerWithProposal.sol\":1627:1629  to */\n  dup1\n    /* \"@chainlink/contracts/src/v0.8/ConfirmedOwnerWithProposal.sol\":1610:1624  s_pendingOwner */\n  0x01\n  0x00\n    /* \"@chainlink/contracts/src/v0.8/ConfirmedOwnerWithProposal.sol\":1610:1629  s_pendingOwner = to */\n  0x0100\n  exp\n  dup2\n  sload\n  dup2\n  0xffffffffffffffffffffffffffffffffffffffff\n  mul\n  not\n  and\n  swap1\n  dup4\n  0xffffffffffffffffffffffffffffffffffffffff\n  and\n  mul\n  or\n  swap1\n  sstore\n  pop\n    /* \"@chainlink/contracts/src/v0.8/ConfirmedOwnerWithProposal.sol\":1677:1679  to */\n  dup1\n    /* \"@chainlink/contracts/src/v0.8/ConfirmedOwnerWithProposal.sol\":1641:1680  OwnershipTransferRequested(s_owner, to) */\n  0xffffffffffffffffffffffffffffffffffffffff\n  and\n    /* \"@chainlink/contracts/src/v0.8/ConfirmedOwnerWithProposal.sol\":1668:1675  s_owner */\n  0x00\n  dup1\n  sload\n  swap1\n  0x0100\n  exp\n  swap1\n  div\n  0xffffffffffffffffffffffffffffffffffffffff\n  and\n    /* \"@chainlink/contracts/src/v0.8/ConfirmedOwnerWithProposal.sol\":1641:1680  OwnershipTransferRequested(s_owner, to) */\n  0xffffffffffffffffffffffffffffffffffffffff\n  and\n  0xed8889f560326eb138920d842192f0eb3dd22b4f139c87a2c57538e05bae1278\n  mload(0x40)\n  mload(0x40)\n  dup1\n  swap2\n  sub\n  swap1\n  log3\n    /* \"@chainlink/contracts/src/v0.8/ConfirmedOwnerWithProposal.sol\":1497:1685  function _transferOwnership(address to) private {... */\n  pop\n  jump\t// out\n    /* \"#utility.yul\":88:205   */\ntag_24:\n    /* \"#utility.yul\":197:198   */\n  0x00\n    /* \"#utility.yul\":194:195   */\n  dup1\n    /* \"#utility.yul\":187:199   */\n  revert\n    /* \"#utility.yul\":334:435   */\ntag_26:\n    /* \"#utility.yul\":370:377   */\n  0x00\n    /* \"#utility.yul\":410:428   */\n  0xffffffffffffffff\n    /* \"#utility.yul\":403:408   */\n  dup3\n    /* \"#utility.yul\":399:429   */\n  and\n    /* \"#utility.yul\":388:429   */\n  swap1\n  pop\n    /* \"#utility.yul\":334:435   */\n  swap2\n  swap1\n  pop\n  jump\t// out\n    /* \"#utility.yul\":441:561   */\ntag_27:\n    /* \"#utility.yul\":513:536   */\n  tag_40\n    /* \"#utility.yul\":530:535   */\n  dup2\n    /* \"#utility.yul\":513:536   */\n  tag_26\n  jump\t// in\ntag_40:\n    /* \"#utility.yul\":506:511   */\n  dup2\n    /* \"#utility.yul\":503:537   */\n  eq\n    /* \"#utility.yul\":493:555   */\n  tag_41\n  jumpi\n    /* \"#utility.yul\":551:552   */\n  0x00\n    /* \"#utility.yul\":548:549   */\n  dup1\n    /* \"#utility.yul\":541:553   */\n  revert\n    /* \"#utility.yul\":493:555   */\ntag_41:\n    /* \"#utility.yul\":441:561   */\n  pop\n  jump\t// out\n    /* \"#utility.yul\":567:708   */\ntag_28:\n    /* \"#utility.yul\":623:628   */\n  0x00\n    /* \"#utility.yul\":654:660   */\n  dup2\n    /* \"#utility.yul\":648:661   */\n  mload\n    /* \"#utility.yul\":639:661   */\n  swap1\n  pop\n    /* \"#utility.yul\":670:702   */\n  tag_43\n    /* \"#utility.yul\":696:701   */\n  dup2\n    /* \"#utility.yul\":670:702   */\n  tag_27\n  jump\t// in\ntag_43:\n    /* \"#utility.yul\":567:708   */\n  swap3\n  swap2\n  pop\n  pop\n  jump\t// out\n    /* \"#utility.yul\":714:1063   */\ntag_3:\n    /* \"#utility.yul\":783:789   */\n  0x00\n    /* \"#utility.yul\":832:834   */\n  0x20\n    /* \"#utility.yul\":820:829   */\n  dup3\n    /* \"#utility.yul\":811:818   */\n  dup5\n    /* \"#utility.yul\":807:830   */\n  sub\n    /* \"#utility.yul\":803:835   */\n  slt\n    /* \"#utility.yul\":800:919   */\n  iszero\n  tag_45\n  jumpi\n    /* \"#utility.yul\":838:917   */\n  tag_46\n  tag_24\n  jump\t// in\ntag_46:\n    /* \"#utility.yul\":800:919   */\ntag_45:\n    /* \"#utility.yul\":958:959   */\n  0x00\n    /* \"#utility.yul\":983:1046   */\n  tag_47\n    /* \"#utility.yul\":1038:1045   */\n  dup5\n    /* \"#utility.yul\":1029:1035   */\n  dup3\n    /* \"#utility.yul\":1018:1027   */\n  dup6\n    /* \"#utility.yul\":1014:1036   */\n  add\n    /* \"#utility.yul\":983:1046   */\n  tag_28\n  jump\t// in\ntag_47:\n    /* \"#utility.yul\":973:1046   */\n  swap2\n  pop\n    /* \"#utility.yul\":929:1056   */\n  pop\n    /* \"#utility.yul\":714:1063   */\n  swap3\n  swap2\n  pop\n  pop\n  jump\t// out\n    /* \"#utility.yul\":1069:1238   */\ntag_29:\n    /* \"#utility.yul\":1153:1164   */\n  0x00\n    /* \"#utility.yul\":1187:1193   */\n  dup3\n    /* \"#utility.yul\":1182:1185   */\n  dup3\n    /* \"#utility.yul\":1175:1194   */\n  mstore\n    /* \"#utility.yul\":1227:1231   */\n  0x20\n    /* \"#utility.yul\":1222:1225   */\n  dup3\n    /* \"#utility.yul\":1218:1232   */\n  add\n    /* \"#utility.yul\":1203:1232   */\n  swap1\n  pop\n    /* \"#utility.yul\":1069:1238   */\n  swap3\n  swap2\n  pop\n  pop\n  jump\t// out\n    /* \"#utility.yul\":1244:1418   */\ntag_30:\n    /* \"#utility.yul\":1384:1410   */\n  0x43616e6e6f7420736574206f776e657220746f207a65726f0000000000000000\n    /* \"#utility.yul\":1380:1381   */\n  0x00\n    /* \"#utility.yul\":1372:1378   */\n  dup3\n    /* \"#utility.yul\":1368:1382   */\n  add\n    /* \"#utility.yul\":1361:1411   */\n  mstore\n    /* \"#utility.yul\":1244:1418   */\n  pop\n  jump\t// out\n    /* \"#utility.yul\":1424:1790   */\ntag_31:\n    /* \"#utility.yul\":1566:1569   */\n  0x00\n    /* \"#utility.yul\":1587:1654   */\n  tag_51\n    /* \"#utility.yul\":1651:1653   */\n  0x18\n    /* \"#utility.yul\":1646:1649   */\n  dup4\n    /* \"#utility.yul\":1587:1654   */\n  tag_29\n  jump\t// in\ntag_51:\n    /* \"#utility.yul\":1580:1654   */\n  swap2\n  pop\n    /* \"#utility.yul\":1663:1756   */\n  tag_52\n    /* \"#utility.yul\":1752:1755   */\n  dup3\n    /* \"#utility.yul\":1663:1756   */\n  tag_30\n  jump\t// in\ntag_52:\n    /* \"#utility.yul\":1781:1783   */\n  0x20\n    /* \"#utility.yul\":1776:1779   */\n  dup3\n    /* \"#utility.yul\":1772:1784   */\n  add\n    /* \"#utility.yul\":1765:1784   */\n  swap1\n  pop\n    /* \"#utility.yul\":1424:1790   */\n  swap2\n  swap1\n  pop\n  jump\t// out\n    /* \"#utility.yul\":1796:2215   */\ntag_12:\n    /* \"#utility.yul\":1962:1966   */\n  0x00\n    /* \"#utility.yul\":2000:2002   */\n  0x20\n    /* \"#utility.yul\":1989:1998   */\n  dup3\n    /* \"#utility.yul\":1985:2003   */\n  add\n    /* \"#utility.yul\":1977:2003   */\n  swap1\n  pop\n    /* \"#utility.yul\":2049:2058   */\n  dup2\n    /* \"#utility.yul\":2043:2047   */\n  dup2\n    /* \"#utility.yul\":2039:2059   */\n  sub\n    /* \"#utility.yul\":2035:2036   */\n  0x00\n    /* \"#utility.yul\":2024:2033   */\n  dup4\n    /* \"#utility.yul\":2020:2037   */\n  add\n    /* \"#utility.yul\":2013:2060   */\n  mstore\n    /* \"#utility.yul\":2077:2208   */\n  tag_54\n    /* \"#utility.yul\":2203:2207   */\n  dup2\n    /* \"#utility.yul\":2077:2208   */\n  tag_31\n  jump\t// in\ntag_54:\n    /* \"#utility.yul\":2069:2208   */\n  swap1\n  pop\n    /* \"#utility.yul\":1796:2215   */\n  swap2\n  swap1\n  pop\n  jump\t// out\n    /* \"#utility.yul\":2221:2394   */\ntag_32:\n    /* \"#utility.yul\":2361:2386   */\n  0x43616e6e6f74207472616e7366657220746f2073656c66000000000000000000\n    /* \"#utility.yul\":2357:2358   */\n  0x00\n    /* \"#utility.yul\":2349:2355   */\n  dup3\n    /* \"#utility.yul\":2345:2359   */\n  add\n    /* \"#utility.yul\":2338:2387   */\n  mstore\n    /* \"#utility.yul\":2221:2394   */\n  pop\n  jump\t// out\n    /* \"#utility.yul\":2400:2766   */\ntag_33:\n    /* \"#utility.yul\":2542:2545   */\n  0x00\n    /* \"#utility.yul\":2563:2630   */\n  tag_57\n    /* \"#utility.yul\":2627:2629   */\n  0x17\n    /* \"#utility.yul\":2622:2625   */\n  dup4\n    /* \"#utility.yul\":2563:2630   */\n  tag_29\n  jump\t// in\ntag_57:\n    /* \"#utility.yul\":2556:2630   */\n  swap2\n  pop\n    /* \"#utility.yul\":2639:2732   */\n  tag_58\n    /* \"#utility.yul\":2728:2731   */\n  dup3\n    /* \"#utility.yul\":2639:2732   */\n  tag_32\n  jump\t// in\ntag_58:\n    /* \"#utility.yul\":2757:2759   */\n  0x20\n    /* \"#utility.yul\":2752:2755   */\n  dup3\n    /* \"#utility.yul\":2748:2760   */\n  add\n    /* \"#utility.yul\":2741:2760   */\n  swap1\n  pop\n    /* \"#utility.yul\":2400:2766   */\n  swap2\n  swap1\n  pop\n  jump\t// out\n    /* \"#utility.yul\":2772:3191   */\ntag_22:\n    /* \"#utility.yul\":2938:2942   */\n  0x00\n    /* \"#utility.yul\":2976:2978   */\n  0x20\n    /* \"#utility.yul\":2965:2974   */\n  dup3\n    /* \"#utility.yul\":2961:2979   */\n  add\n    /* \"#utility.yul\":2953:2979   */\n  swap1\n  pop\n    /* \"#utility.yul\":3025:3034   */\n  dup2\n    /* \"#utility.yul\":3019:3023   */\n  dup2\n    /* \"#utility.yul\":3015:3035   */\n  sub\n    /* \"#utility.yul\":3011:3012   */\n  0x00\n    /* \"#utility.yul\":3000:3009   */\n  dup4\n    /* \"#utility.yul\":2996:3013   */\n  add\n    /* \"#utility.yul\":2989:3036   */\n  mstore\n    /* \"#utility.yul\":3053:3184   */\n  tag_60\n    /* \"#utility.yul\":3179:3183   */\n  dup2\n    /* \"#utility.yul\":3053:3184   */\n  tag_33\n  jump\t// in\ntag_60:\n    /* \"#utility.yul\":3045:3184   */\n  swap1\n  pop\n    /* \"#utility.yul\":2772:3191   */\n  swap2\n  swap1\n  pop\n  jump\t// out\n    /* \"contract/CoinToss.sol\":260:2869  contract VRFv2Consumer is VRFConsumerBaseV2, ConfirmedOwner {... */\ntag_18:\n  mload(0x80)\n  codecopy(0x00, dataOffset(sub_0), dataSize(sub_0))\n  0x00\n  assignImmutable(\"0xa75e2cf51d42f4164e4624f425e61448777a748393b6f6a5bcb1d94d1e8e5e98\")\n  return(0x00, dataSize(sub_0))\nstop\n\nsub_0: assembly {\n        /* \"contract/CoinToss.sol\":260:2869  contract VRFv2Consumer is VRFConsumerBaseV2, ConfirmedOwner {... */\n      mstore(0x40, 0x80)\n      callvalue\n      dup1\n      iszero\n      tag_1\n      jumpi\n      0x00\n      dup1\n      revert\n    tag_1:\n      pop\n      jumpi(tag_2, lt(calldatasize, 0x04))\n      shr(0xe0, calldataload(0x00))\n      dup1\n      0xa168fa89\n      gt\n      tag_13\n      jumpi\n      dup1\n      0xa168fa89\n      eq\n      tag_8\n      jumpi\n      dup1\n      0xd8a4676f\n      eq\n      tag_9\n      jumpi\n      dup1\n      0xe0c86289\n      eq\n      tag_10\n      jumpi\n      dup1\n      0xf2fde38b\n      eq\n      tag_11\n      jumpi\n      dup1\n      0xfc2a88c3\n      eq\n      tag_12\n      jumpi\n      jump(tag_2)\n    tag_13:\n      dup1\n      0x03ae649f\n      eq\n      tag_3\n      jumpi\n      dup1\n      0x1fe543e3\n      eq\n      tag_4\n      jumpi\n      dup1\n      0x79ba5097\n      eq\n      tag_5\n      jumpi\n      dup1\n      0x8796ba8c\n      eq\n      tag_6\n      jumpi\n      dup1\n      0x8da5cb5b\n      eq\n      tag_7\n      jumpi\n    tag_2:\n      0x00\n      dup1\n      revert\n        /* \"contract/CoinToss.sol\":2642:2867  function tossResult(uint256 _requestId) public view returns (string memory) {... */\n    tag_3:\n      tag_14\n      0x04\n      dup1\n      calldatasize\n      sub\n      dup2\n      add\n      swap1\n      tag_15\n      swap2\n      swap1\n      tag_16\n      jump\t// in\n    tag_15:\n      tag_17\n      jump\t// in\n    tag_14:\n      mload(0x40)\n      tag_18\n      swap2\n      swap1\n      tag_19\n      jump\t// in\n    tag_18:\n      mload(0x40)\n      dup1\n      swap2\n      sub\n      swap1\n      return\n        /* \"@chainlink/contracts/src/v0.8/VRFConsumerBaseV2.sol\":6618:6874  function rawFulfillRandomWords(uint256 requestId, uint256[] memory randomWords) external {... */\n    tag_4:\n      tag_20\n      0x04\n      dup1\n      calldatasize\n      sub\n      dup2\n      add\n      swap1\n      tag_21\n      swap2\n      swap1\n      tag_22\n      jump\t// in\n    tag_21:\n      tag_23\n      jump\t// in\n    tag_20:\n      stop\n        /* \"@chainlink/contracts/src/v0.8/ConfirmedOwnerWithProposal.sol\":1016:1281  function acceptOwnership() external override {... */\n    tag_5:\n      tag_24\n      tag_25\n      jump\t// in\n    tag_24:\n      stop\n        /* \"contract/CoinToss.sol\":711:738  uint256[] public requestIds */\n    tag_6:\n      tag_26\n      0x04\n      dup1\n      calldatasize\n      sub\n      dup2\n      add\n      swap1\n      tag_27\n      swap2\n      swap1\n      tag_16\n      jump\t// in\n    tag_27:\n      tag_28\n      jump\t// in\n    tag_26:\n      mload(0x40)\n      tag_29\n      swap2\n      swap1\n      tag_30\n      jump\t// in\n    tag_29:\n      mload(0x40)\n      dup1\n      swap2\n      sub\n      swap1\n      return\n        /* \"@chainlink/contracts/src/v0.8/ConfirmedOwnerWithProposal.sol\":1332:1413  function owner() public view override returns (address) {... */\n    tag_7:\n      tag_31\n      tag_32\n      jump\t// in\n    tag_31:\n      mload(0x40)\n      tag_33\n      swap2\n      swap1\n      tag_34\n      jump\t// in\n    tag_33:\n      mload(0x40)\n      dup1\n      swap2\n      sub\n      swap1\n      return\n        /* \"contract/CoinToss.sol\":567:626  mapping(uint256 => RequestStatus)... */\n    tag_8:\n      tag_35\n      0x04\n      dup1\n      calldatasize\n      sub\n      dup2\n      add\n      swap1\n      tag_36\n      swap2\n      swap1\n      tag_16\n      jump\t// in\n    tag_36:\n      tag_37\n      jump\t// in\n    tag_35:\n      mload(0x40)\n      tag_38\n      swap3\n      swap2\n      swap1\n      tag_39\n      jump\t// in\n    tag_38:\n      mload(0x40)\n      dup1\n      swap2\n      sub\n      swap1\n      return\n        /* \"contract/CoinToss.sol\":2312:2637  function getRequestStatus(... */\n    tag_9:\n      tag_40\n      0x04\n      dup1\n      calldatasize\n      sub\n      dup2\n      add\n      swap1\n      tag_41\n      swap2\n      swap1\n      tag_16\n      jump\t// in\n    tag_41:\n      tag_42\n      jump\t// in\n    tag_40:\n      mload(0x40)\n      tag_43\n      swap3\n      swap2\n      swap1\n      tag_44\n      jump\t// in\n    tag_43:\n      mload(0x40)\n      dup1\n      swap2\n      sub\n      swap1\n      return\n        /* \"contract/CoinToss.sol\":1309:1931  function requestRandomWords()... */\n    tag_10:\n      tag_45\n      tag_46\n      jump\t// in\n    tag_45:\n      mload(0x40)\n      tag_47\n      swap2\n      swap1\n      tag_30\n      jump\t// in\n    tag_47:\n      mload(0x40)\n      dup1\n      swap2\n      sub\n      swap1\n      return\n        /* \"@chainlink/contracts/src/v0.8/ConfirmedOwnerWithProposal.sol\":826:924  function transferOwnership(address to) public override onlyOwner {... */\n    tag_11:\n      tag_48\n      0x04\n      dup1\n      calldatasize\n      sub\n      dup2\n      add\n      swap1\n      tag_49\n      swap2\n      swap1\n      tag_50\n      jump\t// in\n    tag_49:\n      tag_51\n      jump\t// in\n    tag_48:\n      stop\n        /* \"contract/CoinToss.sol\":744:772  uint256 public lastRequestId */\n    tag_12:\n      tag_52\n      tag_53\n      jump\t// in\n    tag_52:\n      mload(0x40)\n      tag_54\n      swap2\n      swap1\n      tag_30\n      jump\t// in\n    tag_54:\n      mload(0x40)\n      dup1\n      swap2\n      sub\n      swap1\n      return\n        /* \"contract/CoinToss.sol\":2642:2867  function tossResult(uint256 _requestId) public view returns (string memory) {... */\n    tag_17:\n        /* \"contract/CoinToss.sol\":2703:2716  string memory */\n      0x60\n        /* \"contract/CoinToss.sol\":2732:2742  s_requests */\n      0x02\n        /* \"contract/CoinToss.sol\":2732:2754  s_requests[_requestId] */\n      0x00\n        /* \"contract/CoinToss.sol\":2743:2753  _requestId */\n      dup4\n        /* \"contract/CoinToss.sol\":2732:2754  s_requests[_requestId] */\n      dup2\n      mstore\n      0x20\n      add\n      swap1\n      dup2\n      mstore\n      0x20\n      add\n      0x00\n      keccak256\n        /* \"contract/CoinToss.sol\":2732:2764  s_requests[_requestId].fulfilled */\n      0x00\n      add\n      0x00\n      swap1\n      sload\n      swap1\n      0x0100\n      exp\n      swap1\n      div\n      0xff\n      and\n        /* \"contract/CoinToss.sol\":2724:2785  require(s_requests[_requestId].fulfilled,\"Not yet fulfilled\") */\n      tag_56\n      jumpi\n      mload(0x40)\n      0x08c379a000000000000000000000000000000000000000000000000000000000\n      dup2\n      mstore\n      0x04\n      add\n      tag_57\n      swap1\n      tag_58\n      jump\t// in\n    tag_57:\n      mload(0x40)\n      dup1\n      swap2\n      sub\n      swap1\n      revert\n    tag_56:\n        /* \"contract/CoinToss.sol\":2843:2844  0 */\n      0x00\n        /* \"contract/CoinToss.sol\":2838:2839  2 */\n      0x02\n        /* \"contract/CoinToss.sol\":2798:2808  s_requests */\n      dup1\n        /* \"contract/CoinToss.sol\":2798:2820  s_requests[_requestId] */\n      0x00\n        /* \"contract/CoinToss.sol\":2809:2819  _requestId */\n      dup6\n        /* \"contract/CoinToss.sol\":2798:2820  s_requests[_requestId] */\n      dup2\n      mstore\n      0x20\n      add\n      swap1\n      dup2\n      mstore\n      0x20\n      add\n      0x00\n      keccak256\n        /* \"contract/CoinToss.sol\":2798:2832  s_requests[_requestId].randomWords */\n      0x01\n      add\n        /* \"contract/CoinToss.sol\":2833:2834  0 */\n      0x00\n        /* \"contract/CoinToss.sol\":2798:2835  s_requests[_requestId].randomWords[0] */\n      dup2\n      sload\n      dup2\n      lt\n      tag_59\n      jumpi\n      tag_60\n      tag_61\n      jump\t// in\n    tag_60:\n    tag_59:\n      swap1\n      0x00\n      mstore\n      keccak256(0x00, 0x20)\n      add\n      sload\n        /* \"contract/CoinToss.sol\":2798:2839  s_requests[_requestId].randomWords[0] % 2 */\n      tag_63\n      swap2\n      swap1\n      tag_64\n      jump\t// in\n    tag_63:\n        /* \"contract/CoinToss.sol\":2798:2844  s_requests[_requestId].randomWords[0] % 2 == 0 */\n      eq\n        /* \"contract/CoinToss.sol\":2798:2864  s_requests[_requestId].randomWords[0] % 2 == 0 ? \"Heads\" : \"Tails\" */\n      tag_65\n      jumpi\n      mload(0x40)\n      dup1\n      0x40\n      add\n      0x40\n      mstore\n      dup1\n      0x05\n      dup2\n      mstore\n      0x20\n      add\n      0x5461696c73000000000000000000000000000000000000000000000000000000\n      dup2\n      mstore\n      pop\n      jump(tag_66)\n    tag_65:\n      mload(0x40)\n      dup1\n      0x40\n      add\n      0x40\n      mstore\n      dup1\n      0x05\n      dup2\n      mstore\n      0x20\n      add\n      0x4865616473000000000000000000000000000000000000000000000000000000\n      dup2\n      mstore\n      pop\n    tag_66:\n        /* \"contract/CoinToss.sol\":2791:2864  return s_requests[_requestId].randomWords[0] % 2 == 0 ? \"Heads\" : \"Tails\" */\n      swap1\n      pop\n        /* \"contract/CoinToss.sol\":2642:2867  function tossResult(uint256 _requestId) public view returns (string memory) {... */\n      swap2\n      swap1\n      pop\n      jump\t// out\n        /* \"@chainlink/contracts/src/v0.8/VRFConsumerBaseV2.sol\":6618:6874  function rawFulfillRandomWords(uint256 requestId, uint256[] memory randomWords) external {... */\n    tag_23:\n        /* \"@chainlink/contracts/src/v0.8/VRFConsumerBaseV2.sol\":6731:6745  vrfCoordinator */\n      immutable(\"0xa75e2cf51d42f4164e4624f425e61448777a748393b6f6a5bcb1d94d1e8e5e98\")\n        /* \"@chainlink/contracts/src/v0.8/VRFConsumerBaseV2.sol\":6717:6745  msg.sender != vrfCoordinator */\n      0xffffffffffffffffffffffffffffffffffffffff\n      and\n        /* \"@chainlink/contracts/src/v0.8/VRFConsumerBaseV2.sol\":6717:6727  msg.sender */\n      caller\n        /* \"@chainlink/contracts/src/v0.8/VRFConsumerBaseV2.sol\":6717:6745  msg.sender != vrfCoordinator */\n      0xffffffffffffffffffffffffffffffffffffffff\n      and\n      eq\n        /* \"@chainlink/contracts/src/v0.8/VRFConsumerBaseV2.sol\":6713:6822  if (msg.sender != vrfCoordinator) {... */\n      tag_68\n      jumpi\n        /* \"@chainlink/contracts/src/v0.8/VRFConsumerBaseV2.sol\":6788:6798  msg.sender */\n      caller\n        /* \"@chainlink/contracts/src/v0.8/VRFConsumerBaseV2.sol\":6800:6814  vrfCoordinator */\n      immutable(\"0xa75e2cf51d42f4164e4624f425e61448777a748393b6f6a5bcb1d94d1e8e5e98\")\n        /* \"@chainlink/contracts/src/v0.8/VRFConsumerBaseV2.sol\":6762:6815  OnlyCoordinatorCanFulfill(msg.sender, vrfCoordinator) */\n      mload(0x40)\n      0x1cf993f400000000000000000000000000000000000000000000000000000000\n      dup2\n      mstore\n      0x04\n      add\n      tag_69\n      swap3\n      swap2\n      swap1\n      tag_70\n      jump\t// in\n    tag_69:\n      mload(0x40)\n      dup1\n      swap2\n      sub\n      swap1\n      revert\n        /* \"@chainlink/contracts/src/v0.8/VRFConsumerBaseV2.sol\":6713:6822  if (msg.sender != vrfCoordinator) {... */\n    tag_68:\n        /* \"@chainlink/contracts/src/v0.8/VRFConsumerBaseV2.sol\":6827:6869  fulfillRandomWords(requestId, randomWords) */\n      tag_71\n        /* \"@chainlink/contracts/src/v0.8/VRFConsumerBaseV2.sol\":6846:6855  requestId */\n      dup3\n        /* \"@chainlink/contracts/src/v0.8/VRFConsumerBaseV2.sol\":6857:6868  randomWords */\n      dup3\n        /* \"@chainlink/contracts/src/v0.8/VRFConsumerBaseV2.sol\":6827:6845  fulfillRandomWords */\n      tag_72\n        /* \"@chainlink/contracts/src/v0.8/VRFConsumerBaseV2.sol\":6827:6869  fulfillRandomWords(requestId, randomWords) */\n      jump\t// in\n    tag_71:\n        /* \"@chainlink/contracts/src/v0.8/VRFConsumerBaseV2.sol\":6618:6874  function rawFulfillRandomWords(uint256 requestId, uint256[] memory randomWords) external {... */\n      pop\n      pop\n      jump\t// out\n        /* \"@chainlink/contracts/src/v0.8/ConfirmedOwnerWithProposal.sol\":1016:1281  function acceptOwnership() external override {... */\n    tag_25:\n        /* \"@chainlink/contracts/src/v0.8/ConfirmedOwnerWithProposal.sol\":1089:1103  s_pendingOwner */\n      0x01\n      0x00\n      swap1\n      sload\n      swap1\n      0x0100\n      exp\n      swap1\n      div\n      0xffffffffffffffffffffffffffffffffffffffff\n      and\n        /* \"@chainlink/contracts/src/v0.8/ConfirmedOwnerWithProposal.sol\":1075:1103  msg.sender == s_pendingOwner */\n      0xffffffffffffffffffffffffffffffffffffffff\n      and\n        /* \"@chainlink/contracts/src/v0.8/ConfirmedOwnerWithProposal.sol\":1075:1085  msg.sender */\n      caller\n        /* \"@chainlink/contracts/src/v0.8/ConfirmedOwnerWithProposal.sol\":1075:1103  msg.sender == s_pendingOwner */\n      0xffffffffffffffffffffffffffffffffffffffff\n      and\n      eq\n        /* \"@chainlink/contracts/src/v0.8/ConfirmedOwnerWithProposal.sol\":1067:1130  require(msg.sender == s_pendingOwner, \"Must be proposed owner\") */\n      tag_74\n      jumpi\n      mload(0x40)\n      0x08c379a000000000000000000000000000000000000000000000000000000000\n      dup2\n      mstore\n      0x04\n      add\n      tag_75\n      swap1\n      tag_76\n      jump\t// in\n    tag_75:\n      mload(0x40)\n      dup1\n      swap2\n      sub\n      swap1\n      revert\n    tag_74:\n        /* \"@chainlink/contracts/src/v0.8/ConfirmedOwnerWithProposal.sol\":1137:1153  address oldOwner */\n      0x00\n        /* \"@chainlink/contracts/src/v0.8/ConfirmedOwnerWithProposal.sol\":1156:1163  s_owner */\n      dup1\n      0x00\n      swap1\n      sload\n      swap1\n      0x0100\n      exp\n      swap1\n      div\n      0xffffffffffffffffffffffffffffffffffffffff\n      and\n        /* \"@chainlink/contracts/src/v0.8/ConfirmedOwnerWithProposal.sol\":1137:1163  address oldOwner = s_owner */\n      swap1\n      pop\n        /* \"@chainlink/contracts/src/v0.8/ConfirmedOwnerWithProposal.sol\":1179:1189  msg.sender */\n      caller\n        /* \"@chainlink/contracts/src/v0.8/ConfirmedOwnerWithProposal.sol\":1169:1176  s_owner */\n      0x00\n      dup1\n        /* \"@chainlink/contracts/src/v0.8/ConfirmedOwnerWithProposal.sol\":1169:1189  s_owner = msg.sender */\n      0x0100\n      exp\n      dup2\n      sload\n      dup2\n      0xffffffffffffffffffffffffffffffffffffffff\n      mul\n      not\n      and\n      swap1\n      dup4\n      0xffffffffffffffffffffffffffffffffffffffff\n      and\n      mul\n      or\n      swap1\n      sstore\n      pop\n        /* \"@chainlink/contracts/src/v0.8/ConfirmedOwnerWithProposal.sol\":1220:1221  0 */\n      0x00\n        /* \"@chainlink/contracts/src/v0.8/ConfirmedOwnerWithProposal.sol\":1195:1209  s_pendingOwner */\n      0x01\n      0x00\n        /* \"@chainlink/contracts/src/v0.8/ConfirmedOwnerWithProposal.sol\":1195:1222  s_pendingOwner = address(0) */\n      0x0100\n      exp\n      dup2\n      sload\n      dup2\n      0xffffffffffffffffffffffffffffffffffffffff\n      mul\n      not\n      and\n      swap1\n      dup4\n      0xffffffffffffffffffffffffffffffffffffffff\n      and\n      mul\n      or\n      swap1\n      sstore\n      pop\n        /* \"@chainlink/contracts/src/v0.8/ConfirmedOwnerWithProposal.sol\":1265:1275  msg.sender */\n      caller\n        /* \"@chainlink/contracts/src/v0.8/ConfirmedOwnerWithProposal.sol\":1234:1276  OwnershipTransferred(oldOwner, msg.sender) */\n      0xffffffffffffffffffffffffffffffffffffffff\n      and\n        /* \"@chainlink/contracts/src/v0.8/ConfirmedOwnerWithProposal.sol\":1255:1263  oldOwner */\n      dup2\n        /* \"@chainlink/contracts/src/v0.8/ConfirmedOwnerWithProposal.sol\":1234:1276  OwnershipTransferred(oldOwner, msg.sender) */\n      0xffffffffffffffffffffffffffffffffffffffff\n      and\n      0x8be0079c531659141344cd1fd0a4f28419497f9722a3daafe3b4186f6b6457e0\n      mload(0x40)\n      mload(0x40)\n      dup1\n      swap2\n      sub\n      swap1\n      log3\n        /* \"@chainlink/contracts/src/v0.8/ConfirmedOwnerWithProposal.sol\":1061:1281  {... */\n      pop\n        /* \"@chainlink/contracts/src/v0.8/ConfirmedOwnerWithProposal.sol\":1016:1281  function acceptOwnership() external override {... */\n      jump\t// out\n        /* \"contract/CoinToss.sol\":711:738  uint256[] public requestIds */\n    tag_28:\n      0x04\n      dup2\n      dup2\n      sload\n      dup2\n      lt\n      tag_77\n      jumpi\n      0x00\n      dup1\n      revert\n    tag_77:\n      swap1\n      0x00\n      mstore\n      keccak256(0x00, 0x20)\n      add\n      0x00\n      swap2\n      pop\n      swap1\n      pop\n      sload\n      dup2\n      jump\t// out\n        /* \"@chainlink/contracts/src/v0.8/ConfirmedOwnerWithProposal.sol\":1332:1413  function owner() public view override returns (address) {... */\n    tag_32:\n        /* \"@chainlink/contracts/src/v0.8/ConfirmedOwnerWithProposal.sol\":1379:1386  address */\n      0x00\n        /* \"@chainlink/contracts/src/v0.8/ConfirmedOwnerWithProposal.sol\":1401:1408  s_owner */\n      dup1\n      0x00\n      swap1\n      sload\n      swap1\n      0x0100\n      exp\n      swap1\n      div\n      0xffffffffffffffffffffffffffffffffffffffff\n      and\n        /* \"@chainlink/contracts/src/v0.8/ConfirmedOwnerWithProposal.sol\":1394:1408  return s_owner */\n      swap1\n      pop\n        /* \"@chainlink/contracts/src/v0.8/ConfirmedOwnerWithProposal.sol\":1332:1413  function owner() public view override returns (address) {... */\n      swap1\n      jump\t// out\n        /* \"contract/CoinToss.sol\":567:626  mapping(uint256 => RequestStatus)... */\n    tag_37:\n      mstore(0x20, 0x02)\n      dup1\n      0x00\n      mstore\n      keccak256(0x00, 0x40)\n      0x00\n      swap2\n      pop\n      swap1\n      pop\n      dup1\n      0x00\n      add\n      0x00\n      swap1\n      sload\n      swap1\n      0x0100\n      exp\n      swap1\n      div\n      0xff\n      and\n      swap1\n      dup1\n      0x00\n      add\n      0x01\n      swap1\n      sload\n      swap1\n      0x0100\n      exp\n      swap1\n      div\n      0xff\n      and\n      swap1\n      pop\n      dup3\n      jump\t// out\n        /* \"contract/CoinToss.sol\":2312:2637  function getRequestStatus(... */\n    tag_42:\n        /* \"contract/CoinToss.sol\":2395:2409  bool fulfilled */\n      0x00\n        /* \"contract/CoinToss.sol\":2411:2439  uint256[] memory randomWords */\n      0x60\n        /* \"contract/CoinToss.sol\":2459:2469  s_requests */\n      0x02\n        /* \"contract/CoinToss.sol\":2459:2481  s_requests[_requestId] */\n      0x00\n        /* \"contract/CoinToss.sol\":2470:2480  _requestId */\n      dup5\n        /* \"contract/CoinToss.sol\":2459:2481  s_requests[_requestId] */\n      dup2\n      mstore\n      0x20\n      add\n      swap1\n      dup2\n      mstore\n      0x20\n      add\n      0x00\n      keccak256\n        /* \"contract/CoinToss.sol\":2459:2488  s_requests[_requestId].exists */\n      0x00\n      add\n      0x01\n      swap1\n      sload\n      swap1\n      0x0100\n      exp\n      swap1\n      div\n      0xff\n      and\n        /* \"contract/CoinToss.sol\":2451:2510  require(s_requests[_requestId].exists, \"request not found\") */\n      tag_81\n      jumpi\n      mload(0x40)\n      0x08c379a000000000000000000000000000000000000000000000000000000000\n      dup2\n      mstore\n      0x04\n      add\n      tag_82\n      swap1\n      tag_83\n      jump\t// in\n    tag_82:\n      mload(0x40)\n      dup1\n      swap2\n      sub\n      swap1\n      revert\n    tag_81:\n        /* \"contract/CoinToss.sol\":2520:2548  RequestStatus memory request */\n      0x00\n        /* \"contract/CoinToss.sol\":2551:2561  s_requests */\n      0x02\n        /* \"contract/CoinToss.sol\":2551:2573  s_requests[_requestId] */\n      0x00\n        /* \"contract/CoinToss.sol\":2562:2572  _requestId */\n      dup6\n        /* \"contract/CoinToss.sol\":2551:2573  s_requests[_requestId] */\n      dup2\n      mstore\n      0x20\n      add\n      swap1\n      dup2\n      mstore\n      0x20\n      add\n      0x00\n      keccak256\n        /* \"contract/CoinToss.sol\":2520:2573  RequestStatus memory request = s_requests[_requestId] */\n      mload(0x40)\n      dup1\n      0x60\n      add\n      0x40\n      mstore\n      swap1\n      dup2\n      0x00\n      dup3\n      add\n      0x00\n      swap1\n      sload\n      swap1\n      0x0100\n      exp\n      swap1\n      div\n      0xff\n      and\n      iszero\n      iszero\n      iszero\n      iszero\n      dup2\n      mstore\n      0x20\n      add\n      0x00\n      dup3\n      add\n      0x01\n      swap1\n      sload\n      swap1\n      0x0100\n      exp\n      swap1\n      div\n      0xff\n      and\n      iszero\n      iszero\n      iszero\n      iszero\n      dup2\n      mstore\n      0x20\n      add\n      0x01\n      dup3\n      add\n      dup1\n      sload\n      dup1\n      0x20\n      mul\n      0x20\n      add\n      mload(0x40)\n      swap1\n      dup2\n      add\n      0x40\n      mstore\n      dup1\n      swap3\n      swap2\n      swap1\n      dup2\n      dup2\n      mstore\n      0x20\n      add\n      dup3\n      dup1\n      sload\n      dup1\n      iszero\n      tag_84\n      jumpi\n      0x20\n      mul\n      dup3\n      add\n      swap2\n      swap1\n      0x00\n      mstore\n      keccak256(0x00, 0x20)\n      swap1\n    tag_85:\n      dup2\n      sload\n      dup2\n      mstore\n      0x20\n      add\n      swap1\n      0x01\n      add\n      swap1\n      dup1\n      dup4\n      gt\n      tag_85\n      jumpi\n    tag_84:\n      pop\n      pop\n      pop\n      pop\n      pop\n      dup2\n      mstore\n      pop\n      pop\n      swap1\n      pop\n        /* \"contract/CoinToss.sol\":2591:2598  request */\n      dup1\n        /* \"contract/CoinToss.sol\":2591:2608  request.fulfilled */\n      0x00\n      add\n      mload\n        /* \"contract/CoinToss.sol\":2610:2617  request */\n      dup2\n        /* \"contract/CoinToss.sol\":2610:2629  request.randomWords */\n      0x40\n      add\n      mload\n        /* \"contract/CoinToss.sol\":2583:2630  return (request.fulfilled, request.randomWords) */\n      swap3\n      pop\n      swap3\n      pop\n      pop\n        /* \"contract/CoinToss.sol\":2312:2637  function getRequestStatus(... */\n      swap2\n      pop\n      swap2\n      jump\t// out\n        /* \"contract/CoinToss.sol\":1309:1931  function requestRandomWords()... */\n    tag_46:\n        /* \"contract/CoinToss.sol\":1391:1408  uint256 requestId */\n      0x00\n        /* \"@chainlink/contracts/src/v0.8/ConfirmedOwnerWithProposal.sol\":1956:1976  _validateOwnership() */\n      tag_87\n        /* \"@chainlink/contracts/src/v0.8/ConfirmedOwnerWithProposal.sol\":1956:1974  _validateOwnership */\n      tag_88\n        /* \"@chainlink/contracts/src/v0.8/ConfirmedOwnerWithProposal.sol\":1956:1976  _validateOwnership() */\n      jump\t// in\n    tag_87:\n        /* \"contract/CoinToss.sol\":1445:1456  COORDINATOR */\n      0x03\n      0x00\n      swap1\n      sload\n      swap1\n      0x0100\n      exp\n      swap1\n      div\n      0xffffffffffffffffffffffffffffffffffffffff\n      and\n        /* \"contract/CoinToss.sol\":1445:1475  COORDINATOR.requestRandomWords */\n      0xffffffffffffffffffffffffffffffffffffffff\n      and\n      0x5d3b1d30\n        /* \"contract/CoinToss.sol\":1489:1496  keyHash */\n      sload(0x06)\n        /* \"contract/CoinToss.sol\":1510:1526  s_subscriptionId */\n      0x03\n      0x14\n      swap1\n      sload\n      swap1\n      0x0100\n      exp\n      swap1\n      div\n      0xffffffffffffffff\n      and\n        /* \"contract/CoinToss.sol\":1540:1560  requestConfirmations */\n      0x07\n      0x04\n      swap1\n      sload\n      swap1\n      0x0100\n      exp\n      swap1\n      div\n      0xffff\n      and\n        /* \"contract/CoinToss.sol\":1574:1590  callbackGasLimit */\n      0x07\n      0x00\n      swap1\n      sload\n      swap1\n      0x0100\n      exp\n      swap1\n      div\n      0xffffffff\n      and\n        /* \"contract/CoinToss.sol\":1604:1612  numWords */\n      0x07\n      0x06\n      swap1\n      sload\n      swap1\n      0x0100\n      exp\n      swap1\n      div\n      0xffffffff\n      and\n        /* \"contract/CoinToss.sol\":1445:1622  COORDINATOR.requestRandomWords(... */\n      mload(0x40)\n      dup7\n      0xffffffff\n      and\n      0xe0\n      shl\n      dup2\n      mstore\n      0x04\n      add\n      tag_90\n      swap6\n      swap5\n      swap4\n      swap3\n      swap2\n      swap1\n      tag_91\n      jump\t// in\n    tag_90:\n      0x20\n      mload(0x40)\n      dup1\n      dup4\n      sub\n      dup2\n      0x00\n      dup8\n      gas\n      call\n      iszero\n      dup1\n      iszero\n      tag_93\n      jumpi\n      returndatasize\n      0x00\n      dup1\n      returndatacopy\n      revert(0x00, returndatasize)\n    tag_93:\n      pop\n      pop\n      pop\n      pop\n      mload(0x40)\n      returndatasize\n      not(0x1f)\n      0x1f\n      dup3\n      add\n      and\n      dup3\n      add\n      dup1\n      0x40\n      mstore\n      pop\n      dup2\n      add\n      swap1\n      tag_94\n      swap2\n      swap1\n      tag_95\n      jump\t// in\n    tag_94:\n        /* \"contract/CoinToss.sol\":1433:1622  requestId = COORDINATOR.requestRandomWords(... */\n      swap1\n      pop\n        /* \"contract/CoinToss.sol\":1656:1780  RequestStatus({... */\n      mload(0x40)\n      dup1\n      0x60\n      add\n      0x40\n      mstore\n      dup1\n        /* \"contract/CoinToss.sol\":1764:1769  false */\n      0x00\n        /* \"contract/CoinToss.sol\":1656:1780  RequestStatus({... */\n      iszero\n      iszero\n      dup2\n      mstore\n      0x20\n      add\n        /* \"contract/CoinToss.sol\":1735:1739  true */\n      0x01\n        /* \"contract/CoinToss.sol\":1656:1780  RequestStatus({... */\n      iszero\n      iszero\n      dup2\n      mstore\n      0x20\n      add\n        /* \"contract/CoinToss.sol\":1711:1712  0 */\n      0x00\n        /* \"contract/CoinToss.sol\":1697:1713  new uint256[](0) */\n      0xffffffffffffffff\n      dup2\n      gt\n      iszero\n      tag_96\n      jumpi\n      tag_97\n      tag_98\n      jump\t// in\n    tag_97:\n    tag_96:\n      mload(0x40)\n      swap1\n      dup1\n      dup3\n      mstore\n      dup1\n      0x20\n      mul\n      0x20\n      add\n      dup3\n      add\n      0x40\n      mstore\n      dup1\n      iszero\n      tag_99\n      jumpi\n      dup2\n      0x20\n      add\n      0x20\n      dup3\n      mul\n      dup1\n      calldatasize\n      dup4\n      calldatacopy\n      dup1\n      dup3\n      add\n      swap2\n      pop\n      pop\n      swap1\n      pop\n    tag_99:\n      pop\n        /* \"contract/CoinToss.sol\":1656:1780  RequestStatus({... */\n      dup2\n      mstore\n      pop\n        /* \"contract/CoinToss.sol\":1632:1642  s_requests */\n      0x02\n        /* \"contract/CoinToss.sol\":1632:1653  s_requests[requestId] */\n      0x00\n        /* \"contract/CoinToss.sol\":1643:1652  requestId */\n      dup4\n        /* \"contract/CoinToss.sol\":1632:1653  s_requests[requestId] */\n      dup2\n      mstore\n      0x20\n      add\n      swap1\n      dup2\n      mstore\n      0x20\n      add\n      0x00\n      keccak256\n        /* \"contract/CoinToss.sol\":1632:1780  s_requests[requestId] = RequestStatus({... */\n      0x00\n      dup3\n      add\n      mload\n      dup2\n      0x00\n      add\n      exp(0x0100, 0x00)\n      dup2\n      sload\n      dup2\n      0xff\n      mul\n      not\n      and\n      swap1\n      dup4\n      iszero\n      iszero\n      mul\n      or\n      swap1\n      sstore\n      pop\n      0x20\n      dup3\n      add\n      mload\n      dup2\n      0x00\n      add\n      exp(0x0100, 0x01)\n      dup2\n      sload\n      dup2\n      0xff\n      mul\n      not\n      and\n      swap1\n      dup4\n      iszero\n      iszero\n      mul\n      or\n      swap1\n      sstore\n      pop\n      0x40\n      dup3\n      add\n      mload\n      dup2\n      0x01\n      add\n      swap1\n      dup1\n      mload\n      swap1\n      0x20\n      add\n      swap1\n      tag_100\n      swap3\n      swap2\n      swap1\n      tag_101\n      jump\t// in\n    tag_100:\n      pop\n      swap1\n      pop\n      pop\n        /* \"contract/CoinToss.sol\":1790:1800  requestIds */\n      0x04\n        /* \"contract/CoinToss.sol\":1806:1815  requestId */\n      dup2\n        /* \"contract/CoinToss.sol\":1790:1816  requestIds.push(requestId) */\n      swap1\n      dup1\n      0x01\n      dup2\n      sload\n      add\n      dup1\n      dup3\n      sstore\n      dup1\n      swap2\n      pop\n      pop\n      0x01\n      swap1\n      sub\n      swap1\n      0x00\n      mstore\n      keccak256(0x00, 0x20)\n      add\n      0x00\n      swap1\n      swap2\n      swap1\n      swap2\n      swap1\n      swap2\n      pop\n      sstore\n        /* \"contract/CoinToss.sol\":1842:1851  requestId */\n      dup1\n        /* \"contract/CoinToss.sol\":1826:1839  lastRequestId */\n      0x05\n        /* \"contract/CoinToss.sol\":1826:1851  lastRequestId = requestId */\n      dup2\n      swap1\n      sstore\n      pop\n        /* \"contract/CoinToss.sol\":1866:1898  RequestSent(requestId, numWords) */\n      0xcc58b13ad3eab50626c6a6300b1d139cd6ebb1688a7cced9461c2f7e762665ee\n        /* \"contract/CoinToss.sol\":1878:1887  requestId */\n      dup2\n        /* \"contract/CoinToss.sol\":1889:1897  numWords */\n      0x07\n      0x06\n      swap1\n      sload\n      swap1\n      0x0100\n      exp\n      swap1\n      div\n      0xffffffff\n      and\n        /* \"contract/CoinToss.sol\":1866:1898  RequestSent(requestId, numWords) */\n      mload(0x40)\n      tag_103\n      swap3\n      swap2\n      swap1\n      tag_104\n      jump\t// in\n    tag_103:\n      mload(0x40)\n      dup1\n      swap2\n      sub\n      swap1\n      log1\n        /* \"contract/CoinToss.sol\":1309:1931  function requestRandomWords()... */\n      swap1\n      jump\t// out\n        /* \"@chainlink/contracts/src/v0.8/ConfirmedOwnerWithProposal.sol\":826:924  function transferOwnership(address to) public override onlyOwner {... */\n    tag_51:\n        /* \"@chainlink/contracts/src/v0.8/ConfirmedOwnerWithProposal.sol\":1956:1976  _validateOwnership() */\n      tag_106\n        /* \"@chainlink/contracts/src/v0.8/ConfirmedOwnerWithProposal.sol\":1956:1974  _validateOwnership */\n      tag_88\n        /* \"@chainlink/contracts/src/v0.8/ConfirmedOwnerWithProposal.sol\":1956:1976  _validateOwnership() */\n      jump\t// in\n    tag_106:\n        /* \"@chainlink/contracts/src/v0.8/ConfirmedOwnerWithProposal.sol\":897:919  _transferOwnership(to) */\n      tag_108\n        /* \"@chainlink/contracts/src/v0.8/ConfirmedOwnerWithProposal.sol\":916:918  to */\n      dup2\n        /* \"@chainlink/contracts/src/v0.8/ConfirmedOwnerWithProposal.sol\":897:915  _transferOwnership */\n      tag_109\n        /* \"@chainlink/contracts/src/v0.8/ConfirmedOwnerWithProposal.sol\":897:919  _transferOwnership(to) */\n      jump\t// in\n    tag_108:\n        /* \"@chainlink/contracts/src/v0.8/ConfirmedOwnerWithProposal.sol\":826:924  function transferOwnership(address to) public override onlyOwner {... */\n      pop\n      jump\t// out\n        /* \"contract/CoinToss.sol\":744:772  uint256 public lastRequestId */\n    tag_53:\n      sload(0x05)\n      dup2\n      jump\t// out\n        /* \"contract/CoinToss.sol\":1937:2306  function fulfillRandomWords(... */\n    tag_72:\n        /* \"contract/CoinToss.sol\":2074:2084  s_requests */\n      0x02\n        /* \"contract/CoinToss.sol\":2074:2096  s_requests[_requestId] */\n      0x00\n        /* \"contract/CoinToss.sol\":2085:2095  _requestId */\n      dup4\n        /* \"contract/CoinToss.sol\":2074:2096  s_requests[_requestId] */\n      dup2\n      mstore\n      0x20\n      add\n      swap1\n      dup2\n      mstore\n      0x20\n      add\n      0x00\n      keccak256\n        /* \"contract/CoinToss.sol\":2074:2103  s_requests[_requestId].exists */\n      0x00\n      add\n      0x01\n      swap1\n      sload\n      swap1\n      0x0100\n      exp\n      swap1\n      div\n      0xff\n      and\n        /* \"contract/CoinToss.sol\":2066:2125  require(s_requests[_requestId].exists, \"request not found\") */\n      tag_111\n      jumpi\n      mload(0x40)\n      0x08c379a000000000000000000000000000000000000000000000000000000000\n      dup2\n      mstore\n      0x04\n      add\n      tag_112\n      swap1\n      tag_83\n      jump\t// in\n    tag_112:\n      mload(0x40)\n      dup1\n      swap2\n      sub\n      swap1\n      revert\n    tag_111:\n        /* \"contract/CoinToss.sol\":2170:2174  true */\n      0x01\n        /* \"contract/CoinToss.sol\":2135:2145  s_requests */\n      0x02\n        /* \"contract/CoinToss.sol\":2135:2157  s_requests[_requestId] */\n      0x00\n        /* \"contract/CoinToss.sol\":2146:2156  _requestId */\n      dup5\n        /* \"contract/CoinToss.sol\":2135:2157  s_requests[_requestId] */\n      dup2\n      mstore\n      0x20\n      add\n      swap1\n      dup2\n      mstore\n      0x20\n      add\n      0x00\n      keccak256\n        /* \"contract/CoinToss.sol\":2135:2167  s_requests[_requestId].fulfilled */\n      0x00\n      add\n      0x00\n        /* \"contract/CoinToss.sol\":2135:2174  s_requests[_requestId].fulfilled = true */\n      0x0100\n      exp\n      dup2\n      sload\n      dup2\n      0xff\n      mul\n      not\n      and\n      swap1\n      dup4\n      iszero\n      iszero\n      mul\n      or\n      swap1\n      sstore\n      pop\n        /* \"contract/CoinToss.sol\":2221:2233  _randomWords */\n      dup1\n        /* \"contract/CoinToss.sol\":2184:2194  s_requests */\n      0x02\n        /* \"contract/CoinToss.sol\":2184:2206  s_requests[_requestId] */\n      0x00\n        /* \"contract/CoinToss.sol\":2195:2205  _requestId */\n      dup5\n        /* \"contract/CoinToss.sol\":2184:2206  s_requests[_requestId] */\n      dup2\n      mstore\n      0x20\n      add\n      swap1\n      dup2\n      mstore\n      0x20\n      add\n      0x00\n      keccak256\n        /* \"contract/CoinToss.sol\":2184:2218  s_requests[_requestId].randomWords */\n      0x01\n      add\n        /* \"contract/CoinToss.sol\":2184:2233  s_requests[_requestId].randomWords = _randomWords */\n      swap1\n      dup1\n      mload\n      swap1\n      0x20\n      add\n      swap1\n      tag_113\n      swap3\n      swap2\n      swap1\n      tag_101\n      jump\t// in\n    tag_113:\n      pop\n        /* \"contract/CoinToss.sol\":2257:2299  RequestFulfilled(_requestId, _randomWords) */\n      0xfe2e2d779dba245964d4e3ef9b994be63856fd568bf7d3ca9e224755cb1bd54d\n        /* \"contract/CoinToss.sol\":2274:2284  _requestId */\n      dup3\n        /* \"contract/CoinToss.sol\":2286:2298  _randomWords */\n      dup3\n        /* \"contract/CoinToss.sol\":2257:2299  RequestFulfilled(_requestId, _randomWords) */\n      mload(0x40)\n      tag_114\n      swap3\n      swap2\n      swap1\n      tag_115\n      jump\t// in\n    tag_114:\n      mload(0x40)\n      dup1\n      swap2\n      sub\n      swap1\n      log1\n        /* \"contract/CoinToss.sol\":1937:2306  function fulfillRandomWords(... */\n      pop\n      pop\n      jump\t// out\n        /* \"@chainlink/contracts/src/v0.8/ConfirmedOwnerWithProposal.sol\":1730:1841  function _validateOwnership() internal view {... */\n    tag_88:\n        /* \"@chainlink/contracts/src/v0.8/ConfirmedOwnerWithProposal.sol\":1802:1809  s_owner */\n      0x00\n      dup1\n      sload\n      swap1\n      0x0100\n      exp\n      swap1\n      div\n      0xffffffffffffffffffffffffffffffffffffffff\n      and\n        /* \"@chainlink/contracts/src/v0.8/ConfirmedOwnerWithProposal.sol\":1788:1809  msg.sender == s_owner */\n      0xffffffffffffffffffffffffffffffffffffffff\n      and\n        /* \"@chainlink/contracts/src/v0.8/ConfirmedOwnerWithProposal.sol\":1788:1798  msg.sender */\n      caller\n        /* \"@chainlink/contracts/src/v0.8/ConfirmedOwnerWithProposal.sol\":1788:1809  msg.sender == s_owner */\n      0xffffffffffffffffffffffffffffffffffffffff\n      and\n      eq\n        /* \"@chainlink/contracts/src/v0.8/ConfirmedOwnerWithProposal.sol\":1780:1836  require(msg.sender == s_owner, \"Only callable by owner\") */\n      tag_117\n      jumpi\n      mload(0x40)\n      0x08c379a000000000000000000000000000000000000000000000000000000000\n      dup2\n      mstore\n      0x04\n      add\n      tag_118\n      swap1\n      tag_119\n      jump\t// in\n    tag_118:\n      mload(0x40)\n      dup1\n      swap2\n      sub\n      swap1\n      revert\n    tag_117:\n        /* \"@chainlink/contracts/src/v0.8/ConfirmedOwnerWithProposal.sol\":1730:1841  function _validateOwnership() internal view {... */\n      jump\t// out\n        /* \"@chainlink/contracts/src/v0.8/ConfirmedOwnerWithProposal.sol\":1497:1685  function _transferOwnership(address to) private {... */\n    tag_109:\n        /* \"@chainlink/contracts/src/v0.8/ConfirmedOwnerWithProposal.sol\":1565:1575  msg.sender */\n      caller\n        /* \"@chainlink/contracts/src/v0.8/ConfirmedOwnerWithProposal.sol\":1559:1575  to != msg.sender */\n      0xffffffffffffffffffffffffffffffffffffffff\n      and\n        /* \"@chainlink/contracts/src/v0.8/ConfirmedOwnerWithProposal.sol\":1559:1561  to */\n      dup2\n        /* \"@chainlink/contracts/src/v0.8/ConfirmedOwnerWithProposal.sol\":1559:1575  to != msg.sender */\n      0xffffffffffffffffffffffffffffffffffffffff\n      and\n      sub\n        /* \"@chainlink/contracts/src/v0.8/ConfirmedOwnerWithProposal.sol\":1551:1603  require(to != msg.sender, \"Cannot transfer to self\") */\n      tag_121\n      jumpi\n      mload(0x40)\n      0x08c379a000000000000000000000000000000000000000000000000000000000\n      dup2\n      mstore\n      0x04\n      add\n      tag_122\n      swap1\n      tag_123\n      jump\t// in\n    tag_122:\n      mload(0x40)\n      dup1\n      swap2\n      sub\n      swap1\n      revert\n    tag_121:\n        /* \"@chainlink/contracts/src/v0.8/ConfirmedOwnerWithProposal.sol\":1627:1629  to */\n      dup1\n        /* \"@chainlink/contracts/src/v0.8/ConfirmedOwnerWithProposal.sol\":1610:1624  s_pendingOwner */\n      0x01\n      0x00\n        /* \"@chainlink/contracts/src/v0.8/ConfirmedOwnerWithProposal.sol\":1610:1629  s_pendingOwner = to */\n      0x0100\n      exp\n      dup2\n      sload\n      dup2\n      0xffffffffffffffffffffffffffffffffffffffff\n      mul\n      not\n      and\n      swap1\n      dup4\n      0xffffffffffffffffffffffffffffffffffffffff\n      and\n      mul\n      or\n      swap1\n      sstore\n      pop\n        /* \"@chainlink/contracts/src/v0.8/ConfirmedOwnerWithProposal.sol\":1677:1679  to */\n      dup1\n        /* \"@chainlink/contracts/src/v0.8/ConfirmedOwnerWithProposal.sol\":1641:1680  OwnershipTransferRequested(s_owner, to) */\n      0xffffffffffffffffffffffffffffffffffffffff\n      and\n        /* \"@chainlink/contracts/src/v0.8/ConfirmedOwnerWithProposal.sol\":1668:1675  s_owner */\n      0x00\n      dup1\n      sload\n      swap1\n      0x0100\n      exp\n      swap1\n      div\n      0xffffffffffffffffffffffffffffffffffffffff\n      and\n        /* \"@chainlink/contracts/src/v0.8/ConfirmedOwnerWithProposal.sol\":1641:1680  OwnershipTransferRequested(s_owner, to) */\n      0xffffffffffffffffffffffffffffffffffffffff\n      and\n      0xed8889f560326eb138920d842192f0eb3dd22b4f139c87a2c57538e05bae1278\n      mload(0x40)\n      mload(0x40)\n      dup1\n      swap2\n      sub\n      swap1\n      log3\n        /* \"@chainlink/contracts/src/v0.8/ConfirmedOwnerWithProposal.sol\":1497:1685  function _transferOwnership(address to) private {... */\n      pop\n      jump\t// out\n    tag_101:\n      dup3\n      dup1\n      sload\n      dup3\n      dup3\n      sstore\n      swap1\n      0x00\n      mstore\n      keccak256(0x00, 0x20)\n      swap1\n      dup2\n      add\n      swap3\n      dup3\n      iszero\n      tag_124\n      jumpi\n      swap2\n      0x20\n      mul\n      dup3\n      add\n    tag_125:\n      dup3\n      dup2\n      gt\n      iszero\n      tag_126\n      jumpi\n      dup3\n      mload\n      dup3\n      sstore\n      swap2\n      0x20\n      add\n      swap2\n      swap1\n      0x01\n      add\n      swap1\n      jump(tag_125)\n    tag_126:\n    tag_124:\n      pop\n      swap1\n      pop\n      tag_127\n      swap2\n      swap1\n      tag_128\n      jump\t// in\n    tag_127:\n      pop\n      swap1\n      jump\t// out\n    tag_128:\n    tag_129:\n      dup1\n      dup3\n      gt\n      iszero\n      tag_130\n      jumpi\n      0x00\n      dup2\n      0x00\n      swap1\n      sstore\n      pop\n      0x01\n      add\n      jump(tag_129)\n    tag_130:\n      pop\n      swap1\n      jump\t// out\n        /* \"#utility.yul\":7:82   */\n    tag_131:\n        /* \"#utility.yul\":40:46   */\n      0x00\n        /* \"#utility.yul\":73:75   */\n      0x40\n        /* \"#utility.yul\":67:76   */\n      mload\n        /* \"#utility.yul\":57:76   */\n      swap1\n      pop\n        /* \"#utility.yul\":7:82   */\n      swap1\n      jump\t// out\n        /* \"#utility.yul\":88:205   */\n    tag_132:\n        /* \"#utility.yul\":197:198   */\n      0x00\n        /* \"#utility.yul\":194:195   */\n      dup1\n        /* \"#utility.yul\":187:199   */\n      revert\n        /* \"#utility.yul\":211:328   */\n    tag_133:\n        /* \"#utility.yul\":320:321   */\n      0x00\n        /* \"#utility.yul\":317:318   */\n      dup1\n        /* \"#utility.yul\":310:322   */\n      revert\n        /* \"#utility.yul\":334:411   */\n    tag_134:\n        /* \"#utility.yul\":371:378   */\n      0x00\n        /* \"#utility.yul\":400:405   */\n      dup2\n        /* \"#utility.yul\":389:405   */\n      swap1\n      pop\n        /* \"#utility.yul\":334:411   */\n      swap2\n      swap1\n      pop\n      jump\t// out\n        /* \"#utility.yul\":417:539   */\n    tag_135:\n        /* \"#utility.yul\":490:514   */\n      tag_190\n        /* \"#utility.yul\":508:513   */\n      dup2\n        /* \"#utility.yul\":490:514   */\n      tag_134\n      jump\t// in\n    tag_190:\n        /* \"#utility.yul\":483:488   */\n      dup2\n        /* \"#utility.yul\":480:515   */\n      eq\n        /* \"#utility.yul\":470:533   */\n      tag_191\n      jumpi\n        /* \"#utility.yul\":529:530   */\n      0x00\n        /* \"#utility.yul\":526:527   */\n      dup1\n        /* \"#utility.yul\":519:531   */\n      revert\n        /* \"#utility.yul\":470:533   */\n    tag_191:\n        /* \"#utility.yul\":417:539   */\n      pop\n      jump\t// out\n        /* \"#utility.yul\":545:684   */\n    tag_136:\n        /* \"#utility.yul\":591:596   */\n      0x00\n        /* \"#utility.yul\":629:635   */\n      dup2\n        /* \"#utility.yul\":616:636   */\n      calldataload\n        /* \"#utility.yul\":607:636   */\n      swap1\n      pop\n        /* \"#utility.yul\":645:678   */\n      tag_193\n        /* \"#utility.yul\":672:677   */\n      dup2\n        /* \"#utility.yul\":645:678   */\n      tag_135\n      jump\t// in\n    tag_193:\n        /* \"#utility.yul\":545:684   */\n      swap3\n      swap2\n      pop\n      pop\n      jump\t// out\n        /* \"#utility.yul\":690:1019   */\n    tag_16:\n        /* \"#utility.yul\":749:755   */\n      0x00\n        /* \"#utility.yul\":798:800   */\n      0x20\n        /* \"#utility.yul\":786:795   */\n      dup3\n        /* \"#utility.yul\":777:784   */\n      dup5\n        /* \"#utility.yul\":773:796   */\n      sub\n        /* \"#utility.yul\":769:801   */\n      slt\n        /* \"#utility.yul\":766:885   */\n      iszero\n      tag_195\n      jumpi\n        /* \"#utility.yul\":804:883   */\n      tag_196\n      tag_132\n      jump\t// in\n    tag_196:\n        /* \"#utility.yul\":766:885   */\n    tag_195:\n        /* \"#utility.yul\":924:925   */\n      0x00\n        /* \"#utility.yul\":949:1002   */\n      tag_197\n        /* \"#utility.yul\":994:1001   */\n      dup5\n        /* \"#utility.yul\":985:991   */\n      dup3\n        /* \"#utility.yul\":974:983   */\n      dup6\n        /* \"#utility.yul\":970:992   */\n      add\n        /* \"#utility.yul\":949:1002   */\n      tag_136\n      jump\t// in\n    tag_197:\n        /* \"#utility.yul\":939:1002   */\n      swap2\n      pop\n        /* \"#utility.yul\":895:1012   */\n      pop\n        /* \"#utility.yul\":690:1019   */\n      swap3\n      swap2\n      pop\n      pop\n      jump\t// out\n        /* \"#utility.yul\":1025:1124   */\n    tag_137:\n        /* \"#utility.yul\":1077:1083   */\n      0x00\n        /* \"#utility.yul\":1111:1116   */\n      dup2\n        /* \"#utility.yul\":1105:1117   */\n      mload\n        /* \"#utility.yul\":1095:1117   */\n      swap1\n      pop\n        /* \"#utility.yul\":1025:1124   */\n      swap2\n      swap1\n      pop\n      jump\t// out\n        /* \"#utility.yul\":1130:1299   */\n    tag_138:\n        /* \"#utility.yul\":1214:1225   */\n      0x00\n        /* \"#utility.yul\":1248:1254   */\n      dup3\n        /* \"#utility.yul\":1243:1246   */\n      dup3\n        /* \"#utility.yul\":1236:1255   */\n      mstore\n        /* \"#utility.yul\":1288:1292   */\n      0x20\n        /* \"#utility.yul\":1283:1286   */\n      dup3\n        /* \"#utility.yul\":1279:1293   */\n      add\n        /* \"#utility.yul\":1264:1293   */\n      swap1\n      pop\n        /* \"#utility.yul\":1130:1299   */\n      swap3\n      swap2\n      pop\n      pop\n      jump\t// out\n        /* \"#utility.yul\":1305:1551   */\n    tag_139:\n        /* \"#utility.yul\":1386:1387   */\n      0x00\n        /* \"#utility.yul\":1396:1509   */\n    tag_201:\n        /* \"#utility.yul\":1410:1416   */\n      dup4\n        /* \"#utility.yul\":1407:1408   */\n      dup2\n        /* \"#utility.yul\":1404:1417   */\n      lt\n        /* \"#utility.yul\":1396:1509   */\n      iszero\n      tag_203\n      jumpi\n        /* \"#utility.yul\":1495:1496   */\n      dup1\n        /* \"#utility.yul\":1490:1493   */\n      dup3\n        /* \"#utility.yul\":1486:1497   */\n      add\n        /* \"#utility.yul\":1480:1498   */\n      mload\n        /* \"#utility.yul\":1476:1477   */\n      dup2\n        /* \"#utility.yul\":1471:1474   */\n      dup5\n        /* \"#utility.yul\":1467:1478   */\n      add\n        /* \"#utility.yul\":1460:1499   */\n      mstore\n        /* \"#utility.yul\":1432:1434   */\n      0x20\n        /* \"#utility.yul\":1429:1430   */\n      dup2\n        /* \"#utility.yul\":1425:1435   */\n      add\n        /* \"#utility.yul\":1420:1435   */\n      swap1\n      pop\n        /* \"#utility.yul\":1396:1509   */\n      jump(tag_201)\n    tag_203:\n        /* \"#utility.yul\":1543:1544   */\n      0x00\n        /* \"#utility.yul\":1534:1540   */\n      dup5\n        /* \"#utility.yul\":1529:1532   */\n      dup5\n        /* \"#utility.yul\":1525:1541   */\n      add\n        /* \"#utility.yul\":1518:1545   */\n      mstore\n        /* \"#utility.yul\":1367:1551   */\n      pop\n        /* \"#utility.yul\":1305:1551   */\n      pop\n      pop\n      pop\n      jump\t// out\n        /* \"#utility.yul\":1557:1659   */\n    tag_140:\n        /* \"#utility.yul\":1598:1604   */\n      0x00\n        /* \"#utility.yul\":1649:1651   */\n      0x1f\n        /* \"#utility.yul\":1645:1652   */\n      not\n        /* \"#utility.yul\":1640:1642   */\n      0x1f\n        /* \"#utility.yul\":1633:1638   */\n      dup4\n        /* \"#utility.yul\":1629:1643   */\n      add\n        /* \"#utility.yul\":1625:1653   */\n      and\n        /* \"#utility.yul\":1615:1653   */\n      swap1\n      pop\n        /* \"#utility.yul\":1557:1659   */\n      swap2\n      swap1\n      pop\n      jump\t// out\n        /* \"#utility.yul\":1665:2042   */\n    tag_141:\n        /* \"#utility.yul\":1753:1756   */\n      0x00\n        /* \"#utility.yul\":1781:1820   */\n      tag_206\n        /* \"#utility.yul\":1814:1819   */\n      dup3\n        /* \"#utility.yul\":1781:1820   */\n      tag_137\n      jump\t// in\n    tag_206:\n        /* \"#utility.yul\":1836:1907   */\n      tag_207\n        /* \"#utility.yul\":1900:1906   */\n      dup2\n        /* \"#utility.yul\":1895:1898   */\n      dup6\n        /* \"#utility.yul\":1836:1907   */\n      tag_138\n      jump\t// in\n    tag_207:\n        /* \"#utility.yul\":1829:1907   */\n      swap4\n      pop\n        /* \"#utility.yul\":1916:1981   */\n      tag_208\n        /* \"#utility.yul\":1974:1980   */\n      dup2\n        /* \"#utility.yul\":1969:1972   */\n      dup6\n        /* \"#utility.yul\":1962:1966   */\n      0x20\n        /* \"#utility.yul\":1955:1960   */\n      dup7\n        /* \"#utility.yul\":1951:1967   */\n      add\n        /* \"#utility.yul\":1916:1981   */\n      tag_139\n      jump\t// in\n    tag_208:\n        /* \"#utility.yul\":2006:2035   */\n      tag_209\n        /* \"#utility.yul\":2028:2034   */\n      dup2\n        /* \"#utility.yul\":2006:2035   */\n      tag_140\n      jump\t// in\n    tag_209:\n        /* \"#utility.yul\":2001:2004   */\n      dup5\n        /* \"#utility.yul\":1997:2036   */\n      add\n        /* \"#utility.yul\":1990:2036   */\n      swap2\n      pop\n        /* \"#utility.yul\":1757:2042   */\n      pop\n        /* \"#utility.yul\":1665:2042   */\n      swap3\n      swap2\n      pop\n      pop\n      jump\t// out\n        /* \"#utility.yul\":2048:2361   */\n    tag_19:\n        /* \"#utility.yul\":2161:2165   */\n      0x00\n        /* \"#utility.yul\":2199:2201   */\n      0x20\n        /* \"#utility.yul\":2188:2197   */\n      dup3\n        /* \"#utility.yul\":2184:2202   */\n      add\n        /* \"#utility.yul\":2176:2202   */\n      swap1\n      pop\n        /* \"#utility.yul\":2248:2257   */\n      dup2\n        /* \"#utility.yul\":2242:2246   */\n      dup2\n        /* \"#utility.yul\":2238:2258   */\n      sub\n        /* \"#utility.yul\":2234:2235   */\n      0x00\n        /* \"#utility.yul\":2223:2232   */\n      dup4\n        /* \"#utility.yul\":2219:2236   */\n      add\n        /* \"#utility.yul\":2212:2259   */\n      mstore\n        /* \"#utility.yul\":2276:2354   */\n      tag_211\n        /* \"#utility.yul\":2349:2353   */\n      dup2\n        /* \"#utility.yul\":2340:2346   */\n      dup5\n        /* \"#utility.yul\":2276:2354   */\n      tag_141\n      jump\t// in\n    tag_211:\n        /* \"#utility.yul\":2268:2354   */\n      swap1\n      pop\n        /* \"#utility.yul\":2048:2361   */\n      swap3\n      swap2\n      pop\n      pop\n      jump\t// out\n        /* \"#utility.yul\":2367:2484   */\n    tag_142:\n        /* \"#utility.yul\":2476:2477   */\n      0x00\n        /* \"#utility.yul\":2473:2474   */\n      dup1\n        /* \"#utility.yul\":2466:2478   */\n      revert\n        /* \"#utility.yul\":2490:2670   */\n    tag_98:\n        /* \"#utility.yul\":2538:2615   */\n      0x4e487b7100000000000000000000000000000000000000000000000000000000\n        /* \"#utility.yul\":2535:2536   */\n      0x00\n        /* \"#utility.yul\":2528:2616   */\n      mstore\n        /* \"#utility.yul\":2635:2639   */\n      0x41\n        /* \"#utility.yul\":2632:2633   */\n      0x04\n        /* \"#utility.yul\":2625:2640   */\n      mstore\n        /* \"#utility.yul\":2659:2663   */\n      0x24\n        /* \"#utility.yul\":2656:2657   */\n      0x00\n        /* \"#utility.yul\":2649:2664   */\n      revert\n        /* \"#utility.yul\":2676:2957   */\n    tag_143:\n        /* \"#utility.yul\":2759:2786   */\n      tag_215\n        /* \"#utility.yul\":2781:2785   */\n      dup3\n        /* \"#utility.yul\":2759:2786   */\n      tag_140\n      jump\t// in\n    tag_215:\n        /* \"#utility.yul\":2751:2757   */\n      dup2\n        /* \"#utility.yul\":2747:2787   */\n      add\n        /* \"#utility.yul\":2889:2895   */\n      dup2\n        /* \"#utility.yul\":2877:2887   */\n      dup2\n        /* \"#utility.yul\":2874:2896   */\n      lt\n        /* \"#utility.yul\":2853:2871   */\n      0xffffffffffffffff\n        /* \"#utility.yul\":2841:2851   */\n      dup3\n        /* \"#utility.yul\":2838:2872   */\n      gt\n        /* \"#utility.yul\":2835:2897   */\n      or\n        /* \"#utility.yul\":2832:2920   */\n      iszero\n      tag_216\n      jumpi\n        /* \"#utility.yul\":2900:2918   */\n      tag_217\n      tag_98\n      jump\t// in\n    tag_217:\n        /* \"#utility.yul\":2832:2920   */\n    tag_216:\n        /* \"#utility.yul\":2940:2950   */\n      dup1\n        /* \"#utility.yul\":2936:2938   */\n      0x40\n        /* \"#utility.yul\":2929:2951   */\n      mstore\n        /* \"#utility.yul\":2719:2957   */\n      pop\n        /* \"#utility.yul\":2676:2957   */\n      pop\n      pop\n      jump\t// out\n        /* \"#utility.yul\":2963:3092   */\n    tag_144:\n        /* \"#utility.yul\":2997:3003   */\n      0x00\n        /* \"#utility.yul\":3024:3044   */\n      tag_219\n      tag_131\n      jump\t// in\n    tag_219:\n        /* \"#utility.yul\":3014:3044   */\n      swap1\n      pop\n        /* \"#utility.yul\":3053:3086   */\n      tag_220\n        /* \"#utility.yul\":3081:3085   */\n      dup3\n        /* \"#utility.yul\":3073:3079   */\n      dup3\n        /* \"#utility.yul\":3053:3086   */\n      tag_143\n      jump\t// in\n    tag_220:\n        /* \"#utility.yul\":2963:3092   */\n      swap2\n      swap1\n      pop\n      jump\t// out\n        /* \"#utility.yul\":3098:3409   */\n    tag_145:\n        /* \"#utility.yul\":3175:3179   */\n      0x00\n        /* \"#utility.yul\":3265:3283   */\n      0xffffffffffffffff\n        /* \"#utility.yul\":3257:3263   */\n      dup3\n        /* \"#utility.yul\":3254:3284   */\n      gt\n        /* \"#utility.yul\":3251:3307   */\n      iszero\n      tag_222\n      jumpi\n        /* \"#utility.yul\":3287:3305   */\n      tag_223\n      tag_98\n      jump\t// in\n    tag_223:\n        /* \"#utility.yul\":3251:3307   */\n    tag_222:\n        /* \"#utility.yul\":3337:3341   */\n      0x20\n        /* \"#utility.yul\":3329:3335   */\n      dup3\n        /* \"#utility.yul\":3325:3342   */\n      mul\n        /* \"#utility.yul\":3317:3342   */\n      swap1\n      pop\n        /* \"#utility.yul\":3397:3401   */\n      0x20\n        /* \"#utility.yul\":3391:3395   */\n      dup2\n        /* \"#utility.yul\":3387:3402   */\n      add\n        /* \"#utility.yul\":3379:3402   */\n      swap1\n      pop\n        /* \"#utility.yul\":3098:3409   */\n      swap2\n      swap1\n      pop\n      jump\t// out\n        /* \"#utility.yul\":3415:3532   */\n    tag_146:\n        /* \"#utility.yul\":3524:3525   */\n      0x00\n        /* \"#utility.yul\":3521:3522   */\n      dup1\n        /* \"#utility.yul\":3514:3526   */\n      revert\n        /* \"#utility.yul\":3555:4265   */\n    tag_147:\n        /* \"#utility.yul\":3651:3656   */\n      0x00\n        /* \"#utility.yul\":3676:3757   */\n      tag_226\n        /* \"#utility.yul\":3692:3756   */\n      tag_227\n        /* \"#utility.yul\":3749:3755   */\n      dup5\n        /* \"#utility.yul\":3692:3756   */\n      tag_145\n      jump\t// in\n    tag_227:\n        /* \"#utility.yul\":3676:3757   */\n      tag_144\n      jump\t// in\n    tag_226:\n        /* \"#utility.yul\":3667:3757   */\n      swap1\n      pop\n        /* \"#utility.yul\":3777:3782   */\n      dup1\n        /* \"#utility.yul\":3806:3812   */\n      dup4\n        /* \"#utility.yul\":3799:3804   */\n      dup3\n        /* \"#utility.yul\":3792:3813   */\n      mstore\n        /* \"#utility.yul\":3840:3844   */\n      0x20\n        /* \"#utility.yul\":3833:3838   */\n      dup3\n        /* \"#utility.yul\":3829:3845   */\n      add\n        /* \"#utility.yul\":3822:3845   */\n      swap1\n      pop\n        /* \"#utility.yul\":3893:3897   */\n      0x20\n        /* \"#utility.yul\":3885:3891   */\n      dup5\n        /* \"#utility.yul\":3881:3898   */\n      mul\n        /* \"#utility.yul\":3873:3879   */\n      dup4\n        /* \"#utility.yul\":3869:3899   */\n      add\n        /* \"#utility.yul\":3922:3925   */\n      dup6\n        /* \"#utility.yul\":3914:3920   */\n      dup2\n        /* \"#utility.yul\":3911:3926   */\n      gt\n        /* \"#utility.yul\":3908:4030   */\n      iszero\n      tag_228\n      jumpi\n        /* \"#utility.yul\":3941:4020   */\n      tag_229\n      tag_146\n      jump\t// in\n    tag_229:\n        /* \"#utility.yul\":3908:4030   */\n    tag_228:\n        /* \"#utility.yul\":4056:4062   */\n      dup4\n        /* \"#utility.yul\":4039:4259   */\n    tag_230:\n        /* \"#utility.yul\":4073:4079   */\n      dup2\n        /* \"#utility.yul\":4068:4071   */\n      dup2\n        /* \"#utility.yul\":4065:4080   */\n      lt\n        /* \"#utility.yul\":4039:4259   */\n      iszero\n      tag_232\n      jumpi\n        /* \"#utility.yul\":4148:4151   */\n      dup1\n        /* \"#utility.yul\":4177:4214   */\n      tag_233\n        /* \"#utility.yul\":4210:4213   */\n      dup9\n        /* \"#utility.yul\":4198:4208   */\n      dup3\n        /* \"#utility.yul\":4177:4214   */\n      tag_136\n      jump\t// in\n    tag_233:\n        /* \"#utility.yul\":4172:4175   */\n      dup5\n        /* \"#utility.yul\":4165:4215   */\n      mstore\n        /* \"#utility.yul\":4244:4248   */\n      0x20\n        /* \"#utility.yul\":4239:4242   */\n      dup5\n        /* \"#utility.yul\":4235:4249   */\n      add\n        /* \"#utility.yul\":4228:4249   */\n      swap4\n      pop\n        /* \"#utility.yul\":4115:4259   */\n      pop\n        /* \"#utility.yul\":4099:4103   */\n      0x20\n        /* \"#utility.yul\":4094:4097   */\n      dup2\n        /* \"#utility.yul\":4090:4104   */\n      add\n        /* \"#utility.yul\":4083:4104   */\n      swap1\n      pop\n        /* \"#utility.yul\":4039:4259   */\n      jump(tag_230)\n    tag_232:\n        /* \"#utility.yul\":4043:4064   */\n      pop\n        /* \"#utility.yul\":3657:4265   */\n      pop\n      pop\n        /* \"#utility.yul\":3555:4265   */\n      swap4\n      swap3\n      pop\n      pop\n      pop\n      jump\t// out\n        /* \"#utility.yul\":4288:4658   */\n    tag_148:\n        /* \"#utility.yul\":4359:4364   */\n      0x00\n        /* \"#utility.yul\":4408:4411   */\n      dup3\n        /* \"#utility.yul\":4401:4405   */\n      0x1f\n        /* \"#utility.yul\":4393:4399   */\n      dup4\n        /* \"#utility.yul\":4389:4406   */\n      add\n        /* \"#utility.yul\":4385:4412   */\n      slt\n        /* \"#utility.yul\":4375:4497   */\n      tag_235\n      jumpi\n        /* \"#utility.yul\":4416:4495   */\n      tag_236\n      tag_142\n      jump\t// in\n    tag_236:\n        /* \"#utility.yul\":4375:4497   */\n    tag_235:\n        /* \"#utility.yul\":4533:4539   */\n      dup2\n        /* \"#utility.yul\":4520:4540   */\n      calldataload\n        /* \"#utility.yul\":4558:4652   */\n      tag_237\n        /* \"#utility.yul\":4648:4651   */\n      dup5\n        /* \"#utility.yul\":4640:4646   */\n      dup3\n        /* \"#utility.yul\":4633:4637   */\n      0x20\n        /* \"#utility.yul\":4625:4631   */\n      dup7\n        /* \"#utility.yul\":4621:4638   */\n      add\n        /* \"#utility.yul\":4558:4652   */\n      tag_147\n      jump\t// in\n    tag_237:\n        /* \"#utility.yul\":4549:4652   */\n      swap2\n      pop\n        /* \"#utility.yul\":4365:4658   */\n      pop\n        /* \"#utility.yul\":4288:4658   */\n      swap3\n      swap2\n      pop\n      pop\n      jump\t// out\n        /* \"#utility.yul\":4664:5348   */\n    tag_22:\n        /* \"#utility.yul\":4757:4763   */\n      0x00\n        /* \"#utility.yul\":4765:4771   */\n      dup1\n        /* \"#utility.yul\":4814:4816   */\n      0x40\n        /* \"#utility.yul\":4802:4811   */\n      dup4\n        /* \"#utility.yul\":4793:4800   */\n      dup6\n        /* \"#utility.yul\":4789:4812   */\n      sub\n        /* \"#utility.yul\":4785:4817   */\n      slt\n        /* \"#utility.yul\":4782:4901   */\n      iszero\n      tag_239\n      jumpi\n        /* \"#utility.yul\":4820:4899   */\n      tag_240\n      tag_132\n      jump\t// in\n    tag_240:\n        /* \"#utility.yul\":4782:4901   */\n    tag_239:\n        /* \"#utility.yul\":4940:4941   */\n      0x00\n        /* \"#utility.yul\":4965:5018   */\n      tag_241\n        /* \"#utility.yul\":5010:5017   */\n      dup6\n        /* \"#utility.yul\":5001:5007   */\n      dup3\n        /* \"#utility.yul\":4990:4999   */\n      dup7\n        /* \"#utility.yul\":4986:5008   */\n      add\n        /* \"#utility.yul\":4965:5018   */\n      tag_136\n      jump\t// in\n    tag_241:\n        /* \"#utility.yul\":4955:5018   */\n      swap3\n      pop\n        /* \"#utility.yul\":4911:5028   */\n      pop\n        /* \"#utility.yul\":5095:5097   */\n      0x20\n        /* \"#utility.yul\":5084:5093   */\n      dup4\n        /* \"#utility.yul\":5080:5098   */\n      add\n        /* \"#utility.yul\":5067:5099   */\n      calldataload\n        /* \"#utility.yul\":5126:5144   */\n      0xffffffffffffffff\n        /* \"#utility.yul\":5118:5124   */\n      dup2\n        /* \"#utility.yul\":5115:5145   */\n      gt\n        /* \"#utility.yul\":5112:5229   */\n      iszero\n      tag_242\n      jumpi\n        /* \"#utility.yul\":5148:5227   */\n      tag_243\n      tag_133\n      jump\t// in\n    tag_243:\n        /* \"#utility.yul\":5112:5229   */\n    tag_242:\n        /* \"#utility.yul\":5253:5331   */\n      tag_244\n        /* \"#utility.yul\":5323:5330   */\n      dup6\n        /* \"#utility.yul\":5314:5320   */\n      dup3\n        /* \"#utility.yul\":5303:5312   */\n      dup7\n        /* \"#utility.yul\":5299:5321   */\n      add\n        /* \"#utility.yul\":5253:5331   */\n      tag_148\n      jump\t// in\n    tag_244:\n        /* \"#utility.yul\":5243:5331   */\n      swap2\n      pop\n        /* \"#utility.yul\":5038:5341   */\n      pop\n        /* \"#utility.yul\":4664:5348   */\n      swap3\n      pop\n      swap3\n      swap1\n      pop\n      jump\t// out\n        /* \"#utility.yul\":5354:5472   */\n    tag_149:\n        /* \"#utility.yul\":5441:5465   */\n      tag_246\n        /* \"#utility.yul\":5459:5464   */\n      dup2\n        /* \"#utility.yul\":5441:5465   */\n      tag_134\n      jump\t// in\n    tag_246:\n        /* \"#utility.yul\":5436:5439   */\n      dup3\n        /* \"#utility.yul\":5429:5466   */\n      mstore\n        /* \"#utility.yul\":5354:5472   */\n      pop\n      pop\n      jump\t// out\n        /* \"#utility.yul\":5478:5700   */\n    tag_30:\n        /* \"#utility.yul\":5571:5575   */\n      0x00\n        /* \"#utility.yul\":5609:5611   */\n      0x20\n        /* \"#utility.yul\":5598:5607   */\n      dup3\n        /* \"#utility.yul\":5594:5612   */\n      add\n        /* \"#utility.yul\":5586:5612   */\n      swap1\n      pop\n        /* \"#utility.yul\":5622:5693   */\n      tag_248\n        /* \"#utility.yul\":5690:5691   */\n      0x00\n        /* \"#utility.yul\":5679:5688   */\n      dup4\n        /* \"#utility.yul\":5675:5692   */\n      add\n        /* \"#utility.yul\":5666:5672   */\n      dup5\n        /* \"#utility.yul\":5622:5693   */\n      tag_149\n      jump\t// in\n    tag_248:\n        /* \"#utility.yul\":5478:5700   */\n      swap3\n      swap2\n      pop\n      pop\n      jump\t// out\n        /* \"#utility.yul\":5706:5832   */\n    tag_150:\n        /* \"#utility.yul\":5743:5750   */\n      0x00\n        /* \"#utility.yul\":5783:5825   */\n      0xffffffffffffffffffffffffffffffffffffffff\n        /* \"#utility.yul\":5776:5781   */\n      dup3\n        /* \"#utility.yul\":5772:5826   */\n      and\n        /* \"#utility.yul\":5761:5826   */\n      swap1\n      pop\n        /* \"#utility.yul\":5706:5832   */\n      swap2\n      swap1\n      pop\n      jump\t// out\n        /* \"#utility.yul\":5838:5934   */\n    tag_151:\n        /* \"#utility.yul\":5875:5882   */\n      0x00\n        /* \"#utility.yul\":5904:5928   */\n      tag_251\n        /* \"#utility.yul\":5922:5927   */\n      dup3\n        /* \"#utility.yul\":5904:5928   */\n      tag_150\n      jump\t// in\n    tag_251:\n        /* \"#utility.yul\":5893:5928   */\n      swap1\n      pop\n        /* \"#utility.yul\":5838:5934   */\n      swap2\n      swap1\n      pop\n      jump\t// out\n        /* \"#utility.yul\":5940:6058   */\n    tag_152:\n        /* \"#utility.yul\":6027:6051   */\n      tag_253\n        /* \"#utility.yul\":6045:6050   */\n      dup2\n        /* \"#utility.yul\":6027:6051   */\n      tag_151\n      jump\t// in\n    tag_253:\n        /* \"#utility.yul\":6022:6025   */\n      dup3\n        /* \"#utility.yul\":6015:6052   */\n      mstore\n        /* \"#utility.yul\":5940:6058   */\n      pop\n      pop\n      jump\t// out\n        /* \"#utility.yul\":6064:6286   */\n    tag_34:\n        /* \"#utility.yul\":6157:6161   */\n      0x00\n        /* \"#utility.yul\":6195:6197   */\n      0x20\n        /* \"#utility.yul\":6184:6193   */\n      dup3\n        /* \"#utility.yul\":6180:6198   */\n      add\n        /* \"#utility.yul\":6172:6198   */\n      swap1\n      pop\n        /* \"#utility.yul\":6208:6279   */\n      tag_255\n        /* \"#utility.yul\":6276:6277   */\n      0x00\n        /* \"#utility.yul\":6265:6274   */\n      dup4\n        /* \"#utility.yul\":6261:6278   */\n      add\n        /* \"#utility.yul\":6252:6258   */\n      dup5\n        /* \"#utility.yul\":6208:6279   */\n      tag_152\n      jump\t// in\n    tag_255:\n        /* \"#utility.yul\":6064:6286   */\n      swap3\n      swap2\n      pop\n      pop\n      jump\t// out\n        /* \"#utility.yul\":6292:6382   */\n    tag_153:\n        /* \"#utility.yul\":6326:6333   */\n      0x00\n        /* \"#utility.yul\":6369:6374   */\n      dup2\n        /* \"#utility.yul\":6362:6375   */\n      iszero\n        /* \"#utility.yul\":6355:6376   */\n      iszero\n        /* \"#utility.yul\":6344:6376   */\n      swap1\n      pop\n        /* \"#utility.yul\":6292:6382   */\n      swap2\n      swap1\n      pop\n      jump\t// out\n        /* \"#utility.yul\":6388:6497   */\n    tag_154:\n        /* \"#utility.yul\":6469:6490   */\n      tag_258\n        /* \"#utility.yul\":6484:6489   */\n      dup2\n        /* \"#utility.yul\":6469:6490   */\n      tag_153\n      jump\t// in\n    tag_258:\n        /* \"#utility.yul\":6464:6467   */\n      dup3\n        /* \"#utility.yul\":6457:6491   */\n      mstore\n        /* \"#utility.yul\":6388:6497   */\n      pop\n      pop\n      jump\t// out\n        /* \"#utility.yul\":6503:6811   */\n    tag_39:\n        /* \"#utility.yul\":6612:6616   */\n      0x00\n        /* \"#utility.yul\":6650:6652   */\n      0x40\n        /* \"#utility.yul\":6639:6648   */\n      dup3\n        /* \"#utility.yul\":6635:6653   */\n      add\n        /* \"#utility.yul\":6627:6653   */\n      swap1\n      pop\n        /* \"#utility.yul\":6663:6728   */\n      tag_260\n        /* \"#utility.yul\":6725:6726   */\n      0x00\n        /* \"#utility.yul\":6714:6723   */\n      dup4\n        /* \"#utility.yul\":6710:6727   */\n      add\n        /* \"#utility.yul\":6701:6707   */\n      dup6\n        /* \"#utility.yul\":6663:6728   */\n      tag_154\n      jump\t// in\n    tag_260:\n        /* \"#utility.yul\":6738:6804   */\n      tag_261\n        /* \"#utility.yul\":6800:6802   */\n      0x20\n        /* \"#utility.yul\":6789:6798   */\n      dup4\n        /* \"#utility.yul\":6785:6803   */\n      add\n        /* \"#utility.yul\":6776:6782   */\n      dup5\n        /* \"#utility.yul\":6738:6804   */\n      tag_154\n      jump\t// in\n    tag_261:\n        /* \"#utility.yul\":6503:6811   */\n      swap4\n      swap3\n      pop\n      pop\n      pop\n      jump\t// out\n        /* \"#utility.yul\":6817:6931   */\n    tag_155:\n        /* \"#utility.yul\":6884:6890   */\n      0x00\n        /* \"#utility.yul\":6918:6923   */\n      dup2\n        /* \"#utility.yul\":6912:6924   */\n      mload\n        /* \"#utility.yul\":6902:6924   */\n      swap1\n      pop\n        /* \"#utility.yul\":6817:6931   */\n      swap2\n      swap1\n      pop\n      jump\t// out\n        /* \"#utility.yul\":6937:7121   */\n    tag_156:\n        /* \"#utility.yul\":7036:7047   */\n      0x00\n        /* \"#utility.yul\":7070:7076   */\n      dup3\n        /* \"#utility.yul\":7065:7068   */\n      dup3\n        /* \"#utility.yul\":7058:7077   */\n      mstore\n        /* \"#utility.yul\":7110:7114   */\n      0x20\n        /* \"#utility.yul\":7105:7108   */\n      dup3\n        /* \"#utility.yul\":7101:7115   */\n      add\n        /* \"#utility.yul\":7086:7115   */\n      swap1\n      pop\n        /* \"#utility.yul\":6937:7121   */\n      swap3\n      swap2\n      pop\n      pop\n      jump\t// out\n        /* \"#utility.yul\":7127:7259   */\n    tag_157:\n        /* \"#utility.yul\":7194:7198   */\n      0x00\n        /* \"#utility.yul\":7217:7220   */\n      dup2\n        /* \"#utility.yul\":7209:7220   */\n      swap1\n      pop\n        /* \"#utility.yul\":7247:7251   */\n      0x20\n        /* \"#utility.yul\":7242:7245   */\n      dup3\n        /* \"#utility.yul\":7238:7252   */\n      add\n        /* \"#utility.yul\":7230:7252   */\n      swap1\n      pop\n        /* \"#utility.yul\":7127:7259   */\n      swap2\n      swap1\n      pop\n      jump\t// out\n        /* \"#utility.yul\":7265:7373   */\n    tag_158:\n        /* \"#utility.yul\":7342:7366   */\n      tag_266\n        /* \"#utility.yul\":7360:7365   */\n      dup2\n        /* \"#utility.yul\":7342:7366   */\n      tag_134\n      jump\t// in\n    tag_266:\n        /* \"#utility.yul\":7337:7340   */\n      dup3\n        /* \"#utility.yul\":7330:7367   */\n      mstore\n        /* \"#utility.yul\":7265:7373   */\n      pop\n      pop\n      jump\t// out\n        /* \"#utility.yul\":7379:7558   */\n    tag_159:\n        /* \"#utility.yul\":7448:7458   */\n      0x00\n        /* \"#utility.yul\":7469:7515   */\n      tag_268\n        /* \"#utility.yul\":7511:7514   */\n      dup4\n        /* \"#utility.yul\":7503:7509   */\n      dup4\n        /* \"#utility.yul\":7469:7515   */\n      tag_158\n      jump\t// in\n    tag_268:\n        /* \"#utility.yul\":7547:7551   */\n      0x20\n        /* \"#utility.yul\":7542:7545   */\n      dup4\n        /* \"#utility.yul\":7538:7552   */\n      add\n        /* \"#utility.yul\":7524:7552   */\n      swap1\n      pop\n        /* \"#utility.yul\":7379:7558   */\n      swap3\n      swap2\n      pop\n      pop\n      jump\t// out\n        /* \"#utility.yul\":7564:7677   */\n    tag_160:\n        /* \"#utility.yul\":7634:7638   */\n      0x00\n        /* \"#utility.yul\":7666:7670   */\n      0x20\n        /* \"#utility.yul\":7661:7664   */\n      dup3\n        /* \"#utility.yul\":7657:7671   */\n      add\n        /* \"#utility.yul\":7649:7671   */\n      swap1\n      pop\n        /* \"#utility.yul\":7564:7677   */\n      swap2\n      swap1\n      pop\n      jump\t// out\n        /* \"#utility.yul\":7713:8445   */\n    tag_161:\n        /* \"#utility.yul\":7832:7835   */\n      0x00\n        /* \"#utility.yul\":7861:7915   */\n      tag_271\n        /* \"#utility.yul\":7909:7914   */\n      dup3\n        /* \"#utility.yul\":7861:7915   */\n      tag_155\n      jump\t// in\n    tag_271:\n        /* \"#utility.yul\":7931:8017   */\n      tag_272\n        /* \"#utility.yul\":8010:8016   */\n      dup2\n        /* \"#utility.yul\":8005:8008   */\n      dup6\n        /* \"#utility.yul\":7931:8017   */\n      tag_156\n      jump\t// in\n    tag_272:\n        /* \"#utility.yul\":7924:8017   */\n      swap4\n      pop\n        /* \"#utility.yul\":8041:8097   */\n      tag_273\n        /* \"#utility.yul\":8091:8096   */\n      dup4\n        /* \"#utility.yul\":8041:8097   */\n      tag_157\n      jump\t// in\n    tag_273:\n        /* \"#utility.yul\":8120:8127   */\n      dup1\n        /* \"#utility.yul\":8151:8152   */\n      0x00\n        /* \"#utility.yul\":8136:8420   */\n    tag_274:\n        /* \"#utility.yul\":8161:8167   */\n      dup4\n        /* \"#utility.yul\":8158:8159   */\n      dup2\n        /* \"#utility.yul\":8155:8168   */\n      lt\n        /* \"#utility.yul\":8136:8420   */\n      iszero\n      tag_276\n      jumpi\n        /* \"#utility.yul\":8237:8243   */\n      dup2\n        /* \"#utility.yul\":8231:8244   */\n      mload\n        /* \"#utility.yul\":8264:8327   */\n      tag_277\n        /* \"#utility.yul\":8323:8326   */\n      dup9\n        /* \"#utility.yul\":8308:8321   */\n      dup3\n        /* \"#utility.yul\":8264:8327   */\n      tag_159\n      jump\t// in\n    tag_277:\n        /* \"#utility.yul\":8257:8327   */\n      swap8\n      pop\n        /* \"#utility.yul\":8350:8410   */\n      tag_278\n        /* \"#utility.yul\":8403:8409   */\n      dup4\n        /* \"#utility.yul\":8350:8410   */\n      tag_160\n      jump\t// in\n    tag_278:\n        /* \"#utility.yul\":8340:8410   */\n      swap3\n      pop\n        /* \"#utility.yul\":8196:8420   */\n      pop\n        /* \"#utility.yul\":8183:8184   */\n      0x01\n        /* \"#utility.yul\":8180:8181   */\n      dup2\n        /* \"#utility.yul\":8176:8185   */\n      add\n        /* \"#utility.yul\":8171:8185   */\n      swap1\n      pop\n        /* \"#utility.yul\":8136:8420   */\n      jump(tag_274)\n    tag_276:\n        /* \"#utility.yul\":8140:8154   */\n      pop\n        /* \"#utility.yul\":8436:8439   */\n      dup6\n        /* \"#utility.yul\":8429:8439   */\n      swap4\n      pop\n        /* \"#utility.yul\":7837:8445   */\n      pop\n      pop\n      pop\n        /* \"#utility.yul\":7713:8445   */\n      swap3\n      swap2\n      pop\n      pop\n      jump\t// out\n        /* \"#utility.yul\":8451:8922   */\n    tag_44:\n        /* \"#utility.yul\":8616:8620   */\n      0x00\n        /* \"#utility.yul\":8654:8656   */\n      0x40\n        /* \"#utility.yul\":8643:8652   */\n      dup3\n        /* \"#utility.yul\":8639:8657   */\n      add\n        /* \"#utility.yul\":8631:8657   */\n      swap1\n      pop\n        /* \"#utility.yul\":8667:8732   */\n      tag_280\n        /* \"#utility.yul\":8729:8730   */\n      0x00\n        /* \"#utility.yul\":8718:8727   */\n      dup4\n        /* \"#utility.yul\":8714:8731   */\n      add\n        /* \"#utility.yul\":8705:8711   */\n      dup6\n        /* \"#utility.yul\":8667:8732   */\n      tag_154\n      jump\t// in\n    tag_280:\n        /* \"#utility.yul\":8779:8788   */\n      dup2\n        /* \"#utility.yul\":8773:8777   */\n      dup2\n        /* \"#utility.yul\":8769:8789   */\n      sub\n        /* \"#utility.yul\":8764:8766   */\n      0x20\n        /* \"#utility.yul\":8753:8762   */\n      dup4\n        /* \"#utility.yul\":8749:8767   */\n      add\n        /* \"#utility.yul\":8742:8790   */\n      mstore\n        /* \"#utility.yul\":8807:8915   */\n      tag_281\n        /* \"#utility.yul\":8910:8914   */\n      dup2\n        /* \"#utility.yul\":8901:8907   */\n      dup5\n        /* \"#utility.yul\":8807:8915   */\n      tag_161\n      jump\t// in\n    tag_281:\n        /* \"#utility.yul\":8799:8915   */\n      swap1\n      pop\n        /* \"#utility.yul\":8451:8922   */\n      swap4\n      swap3\n      pop\n      pop\n      pop\n      jump\t// out\n        /* \"#utility.yul\":8928:9050   */\n    tag_162:\n        /* \"#utility.yul\":9001:9025   */\n      tag_283\n        /* \"#utility.yul\":9019:9024   */\n      dup2\n        /* \"#utility.yul\":9001:9025   */\n      tag_151\n      jump\t// in\n    tag_283:\n        /* \"#utility.yul\":8994:8999   */\n      dup2\n        /* \"#utility.yul\":8991:9026   */\n      eq\n        /* \"#utility.yul\":8981:9044   */\n      tag_284\n      jumpi\n        /* \"#utility.yul\":9040:9041   */\n      0x00\n        /* \"#utility.yul\":9037:9038   */\n      dup1\n        /* \"#utility.yul\":9030:9042   */\n      revert\n        /* \"#utility.yul\":8981:9044   */\n    tag_284:\n        /* \"#utility.yul\":8928:9050   */\n      pop\n      jump\t// out\n        /* \"#utility.yul\":9056:9195   */\n    tag_163:\n        /* \"#utility.yul\":9102:9107   */\n      0x00\n        /* \"#utility.yul\":9140:9146   */\n      dup2\n        /* \"#utility.yul\":9127:9147   */\n      calldataload\n        /* \"#utility.yul\":9118:9147   */\n      swap1\n      pop\n        /* \"#utility.yul\":9156:9189   */\n      tag_286\n        /* \"#utility.yul\":9183:9188   */\n      dup2\n        /* \"#utility.yul\":9156:9189   */\n      tag_162\n      jump\t// in\n    tag_286:\n        /* \"#utility.yul\":9056:9195   */\n      swap3\n      swap2\n      pop\n      pop\n      jump\t// out\n        /* \"#utility.yul\":9201:9530   */\n    tag_50:\n        /* \"#utility.yul\":9260:9266   */\n      0x00\n        /* \"#utility.yul\":9309:9311   */\n      0x20\n        /* \"#utility.yul\":9297:9306   */\n      dup3\n        /* \"#utility.yul\":9288:9295   */\n      dup5\n        /* \"#utility.yul\":9284:9307   */\n      sub\n        /* \"#utility.yul\":9280:9312   */\n      slt\n        /* \"#utility.yul\":9277:9396   */\n      iszero\n      tag_288\n      jumpi\n        /* \"#utility.yul\":9315:9394   */\n      tag_289\n      tag_132\n      jump\t// in\n    tag_289:\n        /* \"#utility.yul\":9277:9396   */\n    tag_288:\n        /* \"#utility.yul\":9435:9436   */\n      0x00\n        /* \"#utility.yul\":9460:9513   */\n      tag_290\n        /* \"#utility.yul\":9505:9512   */\n      dup5\n        /* \"#utility.yul\":9496:9502   */\n      dup3\n        /* \"#utility.yul\":9485:9494   */\n      dup6\n        /* \"#utility.yul\":9481:9503   */\n      add\n        /* \"#utility.yul\":9460:9513   */\n      tag_163\n      jump\t// in\n    tag_290:\n        /* \"#utility.yul\":9450:9513   */\n      swap2\n      pop\n        /* \"#utility.yul\":9406:9523   */\n      pop\n        /* \"#utility.yul\":9201:9530   */\n      swap3\n      swap2\n      pop\n      pop\n      jump\t// out\n        /* \"#utility.yul\":9536:9703   */\n    tag_164:\n        /* \"#utility.yul\":9676:9695   */\n      0x4e6f74207965742066756c66696c6c6564000000000000000000000000000000\n        /* \"#utility.yul\":9672:9673   */\n      0x00\n        /* \"#utility.yul\":9664:9670   */\n      dup3\n        /* \"#utility.yul\":9660:9674   */\n      add\n        /* \"#utility.yul\":9653:9696   */\n      mstore\n        /* \"#utility.yul\":9536:9703   */\n      pop\n      jump\t// out\n        /* \"#utility.yul\":9709:10075   */\n    tag_165:\n        /* \"#utility.yul\":9851:9854   */\n      0x00\n        /* \"#utility.yul\":9872:9939   */\n      tag_293\n        /* \"#utility.yul\":9936:9938   */\n      0x11\n        /* \"#utility.yul\":9931:9934   */\n      dup4\n        /* \"#utility.yul\":9872:9939   */\n      tag_138\n      jump\t// in\n    tag_293:\n        /* \"#utility.yul\":9865:9939   */\n      swap2\n      pop\n        /* \"#utility.yul\":9948:10041   */\n      tag_294\n        /* \"#utility.yul\":10037:10040   */\n      dup3\n        /* \"#utility.yul\":9948:10041   */\n      tag_164\n      jump\t// in\n    tag_294:\n        /* \"#utility.yul\":10066:10068   */\n      0x20\n        /* \"#utility.yul\":10061:10064   */\n      dup3\n        /* \"#utility.yul\":10057:10069   */\n      add\n        /* \"#utility.yul\":10050:10069   */\n      swap1\n      pop\n        /* \"#utility.yul\":9709:10075   */\n      swap2\n      swap1\n      pop\n      jump\t// out\n        /* \"#utility.yul\":10081:10500   */\n    tag_58:\n        /* \"#utility.yul\":10247:10251   */\n      0x00\n        /* \"#utility.yul\":10285:10287   */\n      0x20\n        /* \"#utility.yul\":10274:10283   */\n      dup3\n        /* \"#utility.yul\":10270:10288   */\n      add\n        /* \"#utility.yul\":10262:10288   */\n      swap1\n      pop\n        /* \"#utility.yul\":10334:10343   */\n      dup2\n        /* \"#utility.yul\":10328:10332   */\n      dup2\n        /* \"#utility.yul\":10324:10344   */\n      sub\n        /* \"#utility.yul\":10320:10321   */\n      0x00\n        /* \"#utility.yul\":10309:10318   */\n      dup4\n        /* \"#utility.yul\":10305:10322   */\n      add\n        /* \"#utility.yul\":10298:10345   */\n      mstore\n        /* \"#utility.yul\":10362:10493   */\n      tag_296\n        /* \"#utility.yul\":10488:10492   */\n      dup2\n        /* \"#utility.yul\":10362:10493   */\n      tag_165\n      jump\t// in\n    tag_296:\n        /* \"#utility.yul\":10354:10493   */\n      swap1\n      pop\n        /* \"#utility.yul\":10081:10500   */\n      swap2\n      swap1\n      pop\n      jump\t// out\n        /* \"#utility.yul\":10506:10686   */\n    tag_61:\n        /* \"#utility.yul\":10554:10631   */\n      0x4e487b7100000000000000000000000000000000000000000000000000000000\n        /* \"#utility.yul\":10551:10552   */\n      0x00\n        /* \"#utility.yul\":10544:10632   */\n      mstore\n        /* \"#utility.yul\":10651:10655   */\n      0x32\n        /* \"#utility.yul\":10648:10649   */\n      0x04\n        /* \"#utility.yul\":10641:10656   */\n      mstore\n        /* \"#utility.yul\":10675:10679   */\n      0x24\n        /* \"#utility.yul\":10672:10673   */\n      0x00\n        /* \"#utility.yul\":10665:10680   */\n      revert\n        /* \"#utility.yul\":10692:10872   */\n    tag_166:\n        /* \"#utility.yul\":10740:10817   */\n      0x4e487b7100000000000000000000000000000000000000000000000000000000\n        /* \"#utility.yul\":10737:10738   */\n      0x00\n        /* \"#utility.yul\":10730:10818   */\n      mstore\n        /* \"#utility.yul\":10837:10841   */\n      0x12\n        /* \"#utility.yul\":10834:10835   */\n      0x04\n        /* \"#utility.yul\":10827:10842   */\n      mstore\n        /* \"#utility.yul\":10861:10865   */\n      0x24\n        /* \"#utility.yul\":10858:10859   */\n      0x00\n        /* \"#utility.yul\":10851:10866   */\n      revert\n        /* \"#utility.yul\":10878:11054   */\n    tag_64:\n        /* \"#utility.yul\":10910:10911   */\n      0x00\n        /* \"#utility.yul\":10927:10947   */\n      tag_300\n        /* \"#utility.yul\":10945:10946   */\n      dup3\n        /* \"#utility.yul\":10927:10947   */\n      tag_134\n      jump\t// in\n    tag_300:\n        /* \"#utility.yul\":10922:10947   */\n      swap2\n      pop\n        /* \"#utility.yul\":10961:10981   */\n      tag_301\n        /* \"#utility.yul\":10979:10980   */\n      dup4\n        /* \"#utility.yul\":10961:10981   */\n      tag_134\n      jump\t// in\n    tag_301:\n        /* \"#utility.yul\":10956:10981   */\n      swap3\n      pop\n        /* \"#utility.yul\":11000:11001   */\n      dup3\n        /* \"#utility.yul\":10990:11025   */\n      tag_302\n      jumpi\n        /* \"#utility.yul\":11005:11023   */\n      tag_303\n      tag_166\n      jump\t// in\n    tag_303:\n        /* \"#utility.yul\":10990:11025   */\n    tag_302:\n        /* \"#utility.yul\":11046:11047   */\n      dup3\n        /* \"#utility.yul\":11043:11044   */\n      dup3\n        /* \"#utility.yul\":11039:11048   */\n      mod\n        /* \"#utility.yul\":11034:11048   */\n      swap1\n      pop\n        /* \"#utility.yul\":10878:11054   */\n      swap3\n      swap2\n      pop\n      pop\n      jump\t// out\n        /* \"#utility.yul\":11060:11392   */\n    tag_70:\n        /* \"#utility.yul\":11181:11185   */\n      0x00\n        /* \"#utility.yul\":11219:11221   */\n      0x40\n        /* \"#utility.yul\":11208:11217   */\n      dup3\n        /* \"#utility.yul\":11204:11222   */\n      add\n        /* \"#utility.yul\":11196:11222   */\n      swap1\n      pop\n        /* \"#utility.yul\":11232:11303   */\n      tag_305\n        /* \"#utility.yul\":11300:11301   */\n      0x00\n        /* \"#utility.yul\":11289:11298   */\n      dup4\n        /* \"#utility.yul\":11285:11302   */\n      add\n        /* \"#utility.yul\":11276:11282   */\n      dup6\n        /* \"#utility.yul\":11232:11303   */\n      tag_152\n      jump\t// in\n    tag_305:\n        /* \"#utility.yul\":11313:11385   */\n      tag_306\n        /* \"#utility.yul\":11381:11383   */\n      0x20\n        /* \"#utility.yul\":11370:11379   */\n      dup4\n        /* \"#utility.yul\":11366:11384   */\n      add\n        /* \"#utility.yul\":11357:11363   */\n      dup5\n        /* \"#utility.yul\":11313:11385   */\n      tag_152\n      jump\t// in\n    tag_306:\n        /* \"#utility.yul\":11060:11392   */\n      swap4\n      swap3\n      pop\n      pop\n      pop\n      jump\t// out\n        /* \"#utility.yul\":11398:11570   */\n    tag_167:\n        /* \"#utility.yul\":11538:11562   */\n      0x4d7573742062652070726f706f736564206f776e657200000000000000000000\n        /* \"#utility.yul\":11534:11535   */\n      0x00\n        /* \"#utility.yul\":11526:11532   */\n      dup3\n        /* \"#utility.yul\":11522:11536   */\n      add\n        /* \"#utility.yul\":11515:11563   */\n      mstore\n        /* \"#utility.yul\":11398:11570   */\n      pop\n      jump\t// out\n        /* \"#utility.yul\":11576:11942   */\n    tag_168:\n        /* \"#utility.yul\":11718:11721   */\n      0x00\n        /* \"#utility.yul\":11739:11806   */\n      tag_309\n        /* \"#utility.yul\":11803:11805   */\n      0x16\n        /* \"#utility.yul\":11798:11801   */\n      dup4\n        /* \"#utility.yul\":11739:11806   */\n      tag_138\n      jump\t// in\n    tag_309:\n        /* \"#utility.yul\":11732:11806   */\n      swap2\n      pop\n        /* \"#utility.yul\":11815:11908   */\n      tag_310\n        /* \"#utility.yul\":11904:11907   */\n      dup3\n        /* \"#utility.yul\":11815:11908   */\n      tag_167\n      jump\t// in\n    tag_310:\n        /* \"#utility.yul\":11933:11935   */\n      0x20\n        /* \"#utility.yul\":11928:11931   */\n      dup3\n        /* \"#utility.yul\":11924:11936   */\n      add\n        /* \"#utility.yul\":11917:11936   */\n      swap1\n      pop\n        /* \"#utility.yul\":11576:11942   */\n      swap2\n      swap1\n      pop\n      jump\t// out\n        /* \"#utility.yul\":11948:12367   */\n    tag_76:\n        /* \"#utility.yul\":12114:12118   */\n      0x00\n        /* \"#utility.yul\":12152:12154   */\n      0x20\n        /* \"#utility.yul\":12141:12150   */\n      dup3\n        /* \"#utility.yul\":12137:12155   */\n      add\n        /* \"#utility.yul\":12129:12155   */\n      swap1\n      pop\n        /* \"#utility.yul\":12201:12210   */\n      dup2\n        /* \"#utility.yul\":12195:12199   */\n      dup2\n        /* \"#utility.yul\":12191:12211   */\n      sub\n        /* \"#utility.yul\":12187:12188   */\n      0x00\n        /* \"#utility.yul\":12176:12185   */\n      dup4\n        /* \"#utility.yul\":12172:12189   */\n      add\n        /* \"#utility.yul\":12165:12212   */\n      mstore\n        /* \"#utility.yul\":12229:12360   */\n      tag_312\n        /* \"#utility.yul\":12355:12359   */\n      dup2\n        /* \"#utility.yul\":12229:12360   */\n      tag_168\n      jump\t// in\n    tag_312:\n        /* \"#utility.yul\":12221:12360   */\n      swap1\n      pop\n        /* \"#utility.yul\":11948:12367   */\n      swap2\n      swap1\n      pop\n      jump\t// out\n        /* \"#utility.yul\":12373:12540   */\n    tag_169:\n        /* \"#utility.yul\":12513:12532   */\n      0x72657175657374206e6f7420666f756e64000000000000000000000000000000\n        /* \"#utility.yul\":12509:12510   */\n      0x00\n        /* \"#utility.yul\":12501:12507   */\n      dup3\n        /* \"#utility.yul\":12497:12511   */\n      add\n        /* \"#utility.yul\":12490:12533   */\n      mstore\n        /* \"#utility.yul\":12373:12540   */\n      pop\n      jump\t// out\n        /* \"#utility.yul\":12546:12912   */\n    tag_170:\n        /* \"#utility.yul\":12688:12691   */\n      0x00\n        /* \"#utility.yul\":12709:12776   */\n      tag_315\n        /* \"#utility.yul\":12773:12775   */\n      0x11\n        /* \"#utility.yul\":12768:12771   */\n      dup4\n        /* \"#utility.yul\":12709:12776   */\n      tag_138\n      jump\t// in\n    tag_315:\n        /* \"#utility.yul\":12702:12776   */\n      swap2\n      pop\n        /* \"#utility.yul\":12785:12878   */\n      tag_316\n        /* \"#utility.yul\":12874:12877   */\n      dup3\n        /* \"#utility.yul\":12785:12878   */\n      tag_169\n      jump\t// in\n    tag_316:\n        /* \"#utility.yul\":12903:12905   */\n      0x20\n        /* \"#utility.yul\":12898:12901   */\n      dup3\n        /* \"#utility.yul\":12894:12906   */\n      add\n        /* \"#utility.yul\":12887:12906   */\n      swap1\n      pop\n        /* \"#utility.yul\":12546:12912   */\n      swap2\n      swap1\n      pop\n      jump\t// out\n        /* \"#utility.yul\":12918:13337   */\n    tag_83:\n        /* \"#utility.yul\":13084:13088   */\n      0x00\n        /* \"#utility.yul\":13122:13124   */\n      0x20\n        /* \"#utility.yul\":13111:13120   */\n      dup3\n        /* \"#utility.yul\":13107:13125   */\n      add\n        /* \"#utility.yul\":13099:13125   */\n      swap1\n      pop\n        /* \"#utility.yul\":13171:13180   */\n      dup2\n        /* \"#utility.yul\":13165:13169   */\n      dup2\n        /* \"#utility.yul\":13161:13181   */\n      sub\n        /* \"#utility.yul\":13157:13158   */\n      0x00\n        /* \"#utility.yul\":13146:13155   */\n      dup4\n        /* \"#utility.yul\":13142:13159   */\n      add\n        /* \"#utility.yul\":13135:13182   */\n      mstore\n        /* \"#utility.yul\":13199:13330   */\n      tag_318\n        /* \"#utility.yul\":13325:13329   */\n      dup2\n        /* \"#utility.yul\":13199:13330   */\n      tag_170\n      jump\t// in\n    tag_318:\n        /* \"#utility.yul\":13191:13330   */\n      swap1\n      pop\n        /* \"#utility.yul\":12918:13337   */\n      swap2\n      swap1\n      pop\n      jump\t// out\n        /* \"#utility.yul\":13343:13420   */\n    tag_171:\n        /* \"#utility.yul\":13380:13387   */\n      0x00\n        /* \"#utility.yul\":13409:13414   */\n      dup2\n        /* \"#utility.yul\":13398:13414   */\n      swap1\n      pop\n        /* \"#utility.yul\":13343:13420   */\n      swap2\n      swap1\n      pop\n      jump\t// out\n        /* \"#utility.yul\":13426:13544   */\n    tag_172:\n        /* \"#utility.yul\":13513:13537   */\n      tag_321\n        /* \"#utility.yul\":13531:13536   */\n      dup2\n        /* \"#utility.yul\":13513:13537   */\n      tag_171\n      jump\t// in\n    tag_321:\n        /* \"#utility.yul\":13508:13511   */\n      dup3\n        /* \"#utility.yul\":13501:13538   */\n      mstore\n        /* \"#utility.yul\":13426:13544   */\n      pop\n      pop\n      jump\t// out\n        /* \"#utility.yul\":13550:13651   */\n    tag_173:\n        /* \"#utility.yul\":13586:13593   */\n      0x00\n        /* \"#utility.yul\":13626:13644   */\n      0xffffffffffffffff\n        /* \"#utility.yul\":13619:13624   */\n      dup3\n        /* \"#utility.yul\":13615:13645   */\n      and\n        /* \"#utility.yul\":13604:13645   */\n      swap1\n      pop\n        /* \"#utility.yul\":13550:13651   */\n      swap2\n      swap1\n      pop\n      jump\t// out\n        /* \"#utility.yul\":13657:13772   */\n    tag_174:\n        /* \"#utility.yul\":13742:13765   */\n      tag_324\n        /* \"#utility.yul\":13759:13764   */\n      dup2\n        /* \"#utility.yul\":13742:13765   */\n      tag_173\n      jump\t// in\n    tag_324:\n        /* \"#utility.yul\":13737:13740   */\n      dup3\n        /* \"#utility.yul\":13730:13766   */\n      mstore\n        /* \"#utility.yul\":13657:13772   */\n      pop\n      pop\n      jump\t// out\n        /* \"#utility.yul\":13778:13867   */\n    tag_175:\n        /* \"#utility.yul\":13814:13821   */\n      0x00\n        /* \"#utility.yul\":13854:13860   */\n      0xffff\n        /* \"#utility.yul\":13847:13852   */\n      dup3\n        /* \"#utility.yul\":13843:13861   */\n      and\n        /* \"#utility.yul\":13832:13861   */\n      swap1\n      pop\n        /* \"#utility.yul\":13778:13867   */\n      swap2\n      swap1\n      pop\n      jump\t// out\n        /* \"#utility.yul\":13873:13988   */\n    tag_176:\n        /* \"#utility.yul\":13958:13981   */\n      tag_327\n        /* \"#utility.yul\":13975:13980   */\n      dup2\n        /* \"#utility.yul\":13958:13981   */\n      tag_175\n      jump\t// in\n    tag_327:\n        /* \"#utility.yul\":13953:13956   */\n      dup3\n        /* \"#utility.yul\":13946:13982   */\n      mstore\n        /* \"#utility.yul\":13873:13988   */\n      pop\n      pop\n      jump\t// out\n        /* \"#utility.yul\":13994:14087   */\n    tag_177:\n        /* \"#utility.yul\":14030:14037   */\n      0x00\n        /* \"#utility.yul\":14070:14080   */\n      0xffffffff\n        /* \"#utility.yul\":14063:14068   */\n      dup3\n        /* \"#utility.yul\":14059:14081   */\n      and\n        /* \"#utility.yul\":14048:14081   */\n      swap1\n      pop\n        /* \"#utility.yul\":13994:14087   */\n      swap2\n      swap1\n      pop\n      jump\t// out\n        /* \"#utility.yul\":14093:14208   */\n    tag_178:\n        /* \"#utility.yul\":14178:14201   */\n      tag_330\n        /* \"#utility.yul\":14195:14200   */\n      dup2\n        /* \"#utility.yul\":14178:14201   */\n      tag_177\n      jump\t// in\n    tag_330:\n        /* \"#utility.yul\":14173:14176   */\n      dup3\n        /* \"#utility.yul\":14166:14202   */\n      mstore\n        /* \"#utility.yul\":14093:14208   */\n      pop\n      pop\n      jump\t// out\n        /* \"#utility.yul\":14214:14862   */\n    tag_91:\n        /* \"#utility.yul\":14411:14415   */\n      0x00\n        /* \"#utility.yul\":14449:14452   */\n      0xa0\n        /* \"#utility.yul\":14438:14447   */\n      dup3\n        /* \"#utility.yul\":14434:14453   */\n      add\n        /* \"#utility.yul\":14426:14453   */\n      swap1\n      pop\n        /* \"#utility.yul\":14463:14534   */\n      tag_332\n        /* \"#utility.yul\":14531:14532   */\n      0x00\n        /* \"#utility.yul\":14520:14529   */\n      dup4\n        /* \"#utility.yul\":14516:14533   */\n      add\n        /* \"#utility.yul\":14507:14513   */\n      dup9\n        /* \"#utility.yul\":14463:14534   */\n      tag_172\n      jump\t// in\n    tag_332:\n        /* \"#utility.yul\":14544:14614   */\n      tag_333\n        /* \"#utility.yul\":14610:14612   */\n      0x20\n        /* \"#utility.yul\":14599:14608   */\n      dup4\n        /* \"#utility.yul\":14595:14613   */\n      add\n        /* \"#utility.yul\":14586:14592   */\n      dup8\n        /* \"#utility.yul\":14544:14614   */\n      tag_174\n      jump\t// in\n    tag_333:\n        /* \"#utility.yul\":14624:14694   */\n      tag_334\n        /* \"#utility.yul\":14690:14692   */\n      0x40\n        /* \"#utility.yul\":14679:14688   */\n      dup4\n        /* \"#utility.yul\":14675:14693   */\n      add\n        /* \"#utility.yul\":14666:14672   */\n      dup7\n        /* \"#utility.yul\":14624:14694   */\n      tag_176\n      jump\t// in\n    tag_334:\n        /* \"#utility.yul\":14704:14774   */\n      tag_335\n        /* \"#utility.yul\":14770:14772   */\n      0x60\n        /* \"#utility.yul\":14759:14768   */\n      dup4\n        /* \"#utility.yul\":14755:14773   */\n      add\n        /* \"#utility.yul\":14746:14752   */\n      dup6\n        /* \"#utility.yul\":14704:14774   */\n      tag_178\n      jump\t// in\n    tag_335:\n        /* \"#utility.yul\":14784:14855   */\n      tag_336\n        /* \"#utility.yul\":14850:14853   */\n      0x80\n        /* \"#utility.yul\":14839:14848   */\n      dup4\n        /* \"#utility.yul\":14835:14854   */\n      add\n        /* \"#utility.yul\":14826:14832   */\n      dup5\n        /* \"#utility.yul\":14784:14855   */\n      tag_178\n      jump\t// in\n    tag_336:\n        /* \"#utility.yul\":14214:14862   */\n      swap7\n      swap6\n      pop\n      pop\n      pop\n      pop\n      pop\n      pop\n      jump\t// out\n        /* \"#utility.yul\":14868:15011   */\n    tag_179:\n        /* \"#utility.yul\":14925:14930   */\n      0x00\n        /* \"#utility.yul\":14956:14962   */\n      dup2\n        /* \"#utility.yul\":14950:14963   */\n      mload\n        /* \"#utility.yul\":14941:14963   */\n      swap1\n      pop\n        /* \"#utility.yul\":14972:15005   */\n      tag_338\n        /* \"#utility.yul\":14999:15004   */\n      dup2\n        /* \"#utility.yul\":14972:15005   */\n      tag_135\n      jump\t// in\n    tag_338:\n        /* \"#utility.yul\":14868:15011   */\n      swap3\n      swap2\n      pop\n      pop\n      jump\t// out\n        /* \"#utility.yul\":15017:15368   */\n    tag_95:\n        /* \"#utility.yul\":15087:15093   */\n      0x00\n        /* \"#utility.yul\":15136:15138   */\n      0x20\n        /* \"#utility.yul\":15124:15133   */\n      dup3\n        /* \"#utility.yul\":15115:15122   */\n      dup5\n        /* \"#utility.yul\":15111:15134   */\n      sub\n        /* \"#utility.yul\":15107:15139   */\n      slt\n        /* \"#utility.yul\":15104:15223   */\n      iszero\n      tag_340\n      jumpi\n        /* \"#utility.yul\":15142:15221   */\n      tag_341\n      tag_132\n      jump\t// in\n    tag_341:\n        /* \"#utility.yul\":15104:15223   */\n    tag_340:\n        /* \"#utility.yul\":15262:15263   */\n      0x00\n        /* \"#utility.yul\":15287:15351   */\n      tag_342\n        /* \"#utility.yul\":15343:15350   */\n      dup5\n        /* \"#utility.yul\":15334:15340   */\n      dup3\n        /* \"#utility.yul\":15323:15332   */\n      dup6\n        /* \"#utility.yul\":15319:15341   */\n      add\n        /* \"#utility.yul\":15287:15351   */\n      tag_179\n      jump\t// in\n    tag_342:\n        /* \"#utility.yul\":15277:15351   */\n      swap2\n      pop\n        /* \"#utility.yul\":15233:15361   */\n      pop\n        /* \"#utility.yul\":15017:15368   */\n      swap3\n      swap2\n      pop\n      pop\n      jump\t// out\n        /* \"#utility.yul\":15374:15702   */\n    tag_104:\n        /* \"#utility.yul\":15493:15497   */\n      0x00\n        /* \"#utility.yul\":15531:15533   */\n      0x40\n        /* \"#utility.yul\":15520:15529   */\n      dup3\n        /* \"#utility.yul\":15516:15534   */\n      add\n        /* \"#utility.yul\":15508:15534   */\n      swap1\n      pop\n        /* \"#utility.yul\":15544:15615   */\n      tag_344\n        /* \"#utility.yul\":15612:15613   */\n      0x00\n        /* \"#utility.yul\":15601:15610   */\n      dup4\n        /* \"#utility.yul\":15597:15614   */\n      add\n        /* \"#utility.yul\":15588:15594   */\n      dup6\n        /* \"#utility.yul\":15544:15615   */\n      tag_149\n      jump\t// in\n    tag_344:\n        /* \"#utility.yul\":15625:15695   */\n      tag_345\n        /* \"#utility.yul\":15691:15693   */\n      0x20\n        /* \"#utility.yul\":15680:15689   */\n      dup4\n        /* \"#utility.yul\":15676:15694   */\n      add\n        /* \"#utility.yul\":15667:15673   */\n      dup5\n        /* \"#utility.yul\":15625:15695   */\n      tag_178\n      jump\t// in\n    tag_345:\n        /* \"#utility.yul\":15374:15702   */\n      swap4\n      swap3\n      pop\n      pop\n      pop\n      jump\t// out\n        /* \"#utility.yul\":15708:16191   */\n    tag_115:\n        /* \"#utility.yul\":15879:15883   */\n      0x00\n        /* \"#utility.yul\":15917:15919   */\n      0x40\n        /* \"#utility.yul\":15906:15915   */\n      dup3\n        /* \"#utility.yul\":15902:15920   */\n      add\n        /* \"#utility.yul\":15894:15920   */\n      swap1\n      pop\n        /* \"#utility.yul\":15930:16001   */\n      tag_347\n        /* \"#utility.yul\":15998:15999   */\n      0x00\n        /* \"#utility.yul\":15987:15996   */\n      dup4\n        /* \"#utility.yul\":15983:16000   */\n      add\n        /* \"#utility.yul\":15974:15980   */\n      dup6\n        /* \"#utility.yul\":15930:16001   */\n      tag_149\n      jump\t// in\n    tag_347:\n        /* \"#utility.yul\":16048:16057   */\n      dup2\n        /* \"#utility.yul\":16042:16046   */\n      dup2\n        /* \"#utility.yul\":16038:16058   */\n      sub\n        /* \"#utility.yul\":16033:16035   */\n      0x20\n        /* \"#utility.yul\":16022:16031   */\n      dup4\n        /* \"#utility.yul\":16018:16036   */\n      add\n        /* \"#utility.yul\":16011:16059   */\n      mstore\n        /* \"#utility.yul\":16076:16184   */\n      tag_348\n        /* \"#utility.yul\":16179:16183   */\n      dup2\n        /* \"#utility.yul\":16170:16176   */\n      dup5\n        /* \"#utility.yul\":16076:16184   */\n      tag_161\n      jump\t// in\n    tag_348:\n        /* \"#utility.yul\":16068:16184   */\n      swap1\n      pop\n        /* \"#utility.yul\":15708:16191   */\n      swap4\n      swap3\n      pop\n      pop\n      pop\n      jump\t// out\n        /* \"#utility.yul\":16197:16369   */\n    tag_180:\n        /* \"#utility.yul\":16337:16361   */\n      0x4f6e6c792063616c6c61626c65206279206f776e657200000000000000000000\n        /* \"#utility.yul\":16333:16334   */\n      0x00\n        /* \"#utility.yul\":16325:16331   */\n      dup3\n        /* \"#utility.yul\":16321:16335   */\n      add\n        /* \"#utility.yul\":16314:16362   */\n      mstore\n        /* \"#utility.yul\":16197:16369   */\n      pop\n      jump\t// out\n        /* \"#utility.yul\":16375:16741   */\n    tag_181:\n        /* \"#utility.yul\":16517:16520   */\n      0x00\n        /* \"#utility.yul\":16538:16605   */\n      tag_351\n        /* \"#utility.yul\":16602:16604   */\n      0x16\n        /* \"#utility.yul\":16597:16600   */\n      dup4\n        /* \"#utility.yul\":16538:16605   */\n      tag_138\n      jump\t// in\n    tag_351:\n        /* \"#utility.yul\":16531:16605   */\n      swap2\n      pop\n        /* \"#utility.yul\":16614:16707   */\n      tag_352\n        /* \"#utility.yul\":16703:16706   */\n      dup3\n        /* \"#utility.yul\":16614:16707   */\n      tag_180\n      jump\t// in\n    tag_352:\n        /* \"#utility.yul\":16732:16734   */\n      0x20\n        /* \"#utility.yul\":16727:16730   */\n      dup3\n        /* \"#utility.yul\":16723:16735   */\n      add\n        /* \"#utility.yul\":16716:16735   */\n      swap1\n      pop\n        /* \"#utility.yul\":16375:16741   */\n      swap2\n      swap1\n      pop\n      jump\t// out\n        /* \"#utility.yul\":16747:17166   */\n    tag_119:\n        /* \"#utility.yul\":16913:16917   */\n      0x00\n        /* \"#utility.yul\":16951:16953   */\n      0x20\n        /* \"#utility.yul\":16940:16949   */\n      dup3\n        /* \"#utility.yul\":16936:16954   */\n      add\n        /* \"#utility.yul\":16928:16954   */\n      swap1\n      pop\n        /* \"#utility.yul\":17000:17009   */\n      dup2\n        /* \"#utility.yul\":16994:16998   */\n      dup2\n        /* \"#utility.yul\":16990:17010   */\n      sub\n        /* \"#utility.yul\":16986:16987   */\n      0x00\n        /* \"#utility.yul\":16975:16984   */\n      dup4\n        /* \"#utility.yul\":16971:16988   */\n      add\n        /* \"#utility.yul\":16964:17011   */\n      mstore\n        /* \"#utility.yul\":17028:17159   */\n      tag_354\n        /* \"#utility.yul\":17154:17158   */\n      dup2\n        /* \"#utility.yul\":17028:17159   */\n      tag_181\n      jump\t// in\n    tag_354:\n        /* \"#utility.yul\":17020:17159   */\n      swap1\n      pop\n        /* \"#utility.yul\":16747:17166   */\n      swap2\n      swap1\n      pop\n      jump\t// out\n        /* \"#utility.yul\":17172:17345   */\n    tag_182:\n        /* \"#utility.yul\":17312:17337   */\n      0x43616e6e6f74207472616e7366657220746f2073656c66000000000000000000\n        /* \"#utility.yul\":17308:17309   */\n      0x00\n        /* \"#utility.yul\":17300:17306   */\n      dup3\n        /* \"#utility.yul\":17296:17310   */\n      add\n        /* \"#utility.yul\":17289:17338   */\n      mstore\n        /* \"#utility.yul\":17172:17345   */\n      pop\n      jump\t// out\n        /* \"#utility.yul\":17351:17717   */\n    tag_183:\n        /* \"#utility.yul\":17493:17496   */\n      0x00\n        /* \"#utility.yul\":17514:17581   */\n      tag_357\n        /* \"#utility.yul\":17578:17580   */\n      0x17\n        /* \"#utility.yul\":17573:17576   */\n      dup4\n        /* \"#utility.yul\":17514:17581   */\n      tag_138\n      jump\t// in\n    tag_357:\n        /* \"#utility.yul\":17507:17581   */\n      swap2\n      pop\n        /* \"#utility.yul\":17590:17683   */\n      tag_358\n        /* \"#utility.yul\":17679:17682   */\n      dup3\n        /* \"#utility.yul\":17590:17683   */\n      tag_182\n      jump\t// in\n    tag_358:\n        /* \"#utility.yul\":17708:17710   */\n      0x20\n        /* \"#utility.yul\":17703:17706   */\n      dup3\n        /* \"#utility.yul\":17699:17711   */\n      add\n        /* \"#utility.yul\":17692:17711   */\n      swap1\n      pop\n        /* \"#utility.yul\":17351:17717   */\n      swap2\n      swap1\n      pop\n      jump\t// out\n        /* \"#utility.yul\":17723:18142   */\n    tag_123:\n        /* \"#utility.yul\":17889:17893   */\n      0x00\n        /* \"#utility.yul\":17927:17929   */\n      0x20\n        /* \"#utility.yul\":17916:17925   */\n      dup3\n        /* \"#utility.yul\":17912:17930   */\n      add\n        /* \"#utility.yul\":17904:17930   */\n      swap1\n      pop\n        /* \"#utility.yul\":17976:17985   */\n      dup2\n        /* \"#utility.yul\":17970:17974   */\n      dup2\n        /* \"#utility.yul\":17966:17986   */\n      sub\n        /* \"#utility.yul\":17962:17963   */\n      0x00\n        /* \"#utility.yul\":17951:17960   */\n      dup4\n        /* \"#utility.yul\":17947:17964   */\n      add\n        /* \"#utility.yul\":17940:17987   */\n      mstore\n        /* \"#utility.yul\":18004:18135   */\n      tag_360\n        /* \"#utility.yul\":18130:18134   */\n      dup2\n        /* \"#utility.yul\":18004:18135   */\n      tag_183\n      jump\t// in\n    tag_360:\n        /* \"#utility.yul\":17996:18135   */\n      swap1\n      pop\n        /* \"#utility.yul\":17723:18142   */\n      swap2\n      swap1\n      pop\n      jump\t// out\n\n    auxdata: 0xa264697066735822122012b4c2eca3a228e97bd85b044e67627db6f4e2e3fe57bc469a5d082681fd248d64736f6c63430008120033\n}\n",
				"bytecode": {
					"linkReferences": {},
					"object": "60a06040527f4b09e658ed251bcafeebbc69400383d49f344ace09b9576fe248bb02c003fe9f60001b600655620186a0600760006101000a81548163ffffffff021916908363ffffffff1602179055506003600760046101000a81548161ffff021916908361ffff1602179055506001600760066101000a81548163ffffffff021916908363ffffffff1602179055503480156200009c57600080fd5b5060405162001b6538038062001b658339818101604052810190620000c291906200040a565b33806000737a1bac17ccc5b313516c5e16fb24f7659aa5ebed8073ffffffffffffffffffffffffffffffffffffffff1660808173ffffffffffffffffffffffffffffffffffffffff168152505050600073ffffffffffffffffffffffffffffffffffffffff168273ffffffffffffffffffffffffffffffffffffffff160362000182576040517f08c379a000000000000000000000000000000000000000000000000000000000815260040162000179906200049d565b60405180910390fd5b816000806101000a81548173ffffffffffffffffffffffffffffffffffffffff021916908373ffffffffffffffffffffffffffffffffffffffff160217905550600073ffffffffffffffffffffffffffffffffffffffff168173ffffffffffffffffffffffffffffffffffffffff1614620002095762000208816200029160201b60201c565b5b505050737a1bac17ccc5b313516c5e16fb24f7659aa5ebed600360006101000a81548173ffffffffffffffffffffffffffffffffffffffff021916908373ffffffffffffffffffffffffffffffffffffffff16021790555080600360146101000a81548167ffffffffffffffff021916908367ffffffffffffffff1602179055505062000531565b3373ffffffffffffffffffffffffffffffffffffffff168173ffffffffffffffffffffffffffffffffffffffff160362000302576040517f08c379a0000000000000000000000000000000000000000000000000000000008152600401620002f9906200050f565b60405180910390fd5b80600160006101000a81548173ffffffffffffffffffffffffffffffffffffffff021916908373ffffffffffffffffffffffffffffffffffffffff1602179055508073ffffffffffffffffffffffffffffffffffffffff1660008054906101000a900473ffffffffffffffffffffffffffffffffffffffff1673ffffffffffffffffffffffffffffffffffffffff167fed8889f560326eb138920d842192f0eb3dd22b4f139c87a2c57538e05bae127860405160405180910390a350565b600080fd5b600067ffffffffffffffff82169050919050565b620003e481620003c5565b8114620003f057600080fd5b50565b6000815190506200040481620003d9565b92915050565b600060208284031215620004235762000422620003c0565b5b60006200043384828501620003f3565b91505092915050565b600082825260208201905092915050565b7f43616e6e6f7420736574206f776e657220746f207a65726f0000000000000000600082015250565b6000620004856018836200043c565b915062000492826200044d565b602082019050919050565b60006020820190508181036000830152620004b88162000476565b9050919050565b7f43616e6e6f74207472616e7366657220746f2073656c66000000000000000000600082015250565b6000620004f76017836200043c565b91506200050482620004bf565b602082019050919050565b600060208201905081810360008301526200052a81620004e8565b9050919050565b6080516116116200055460003960008181610327015261037b01526116116000f3fe608060405234801561001057600080fd5b506004361061009e5760003560e01c8063a168fa8911610066578063a168fa8914610147578063d8a4676f14610178578063e0c86289146101a9578063f2fde38b146101c7578063fc2a88c3146101e35761009e565b806303ae649f146100a35780631fe543e3146100d357806379ba5097146100ef5780638796ba8c146100f95780638da5cb5b14610129575b600080fd5b6100bd60048036038101906100b89190610d0d565b610201565b6040516100ca9190610dca565b60405180910390f35b6100ed60048036038101906100e89190610f34565b610325565b005b6100f76103e5565b005b610113600480360381019061010e9190610d0d565b61057a565b6040516101209190610f9f565b60405180910390f35b61013161059e565b60405161013e9190610ffb565b60405180910390f35b610161600480360381019061015c9190610d0d565b6105c7565b60405161016f929190611031565b60405180910390f35b610192600480360381019061018d9190610d0d565b610605565b6040516101a0929190611118565b60405180910390f35b6101b1610730565b6040516101be9190610f9f565b60405180910390f35b6101e160048036038101906101dc9190611174565b610989565b005b6101eb61099d565b6040516101f89190610f9f565b60405180910390f35b60606002600083815260200190815260200160002060000160009054906101000a900460ff16610266576040517f08c379a000000000000000000000000000000000000000000000000000000000815260040161025d906111ed565b60405180910390fd5b600060028060008581526020019081526020016000206001016000815481106102925761029161120d565b5b90600052602060002001546102a7919061126b565b146102e7576040518060400160405280600581526020017f5461696c7300000000000000000000000000000000000000000000000000000081525061031e565b6040518060400160405280600581526020017f48656164730000000000000000000000000000000000000000000000000000008152505b9050919050565b7f000000000000000000000000000000000000000000000000000000000000000073ffffffffffffffffffffffffffffffffffffffff163373ffffffffffffffffffffffffffffffffffffffff16146103d757337f00000000000000000000000000000000000000000000000000000000000000006040517f1cf993f40000000000000000000000000000000000000000000000000000000081526004016103ce92919061129c565b60405180910390fd5b6103e182826109a3565b5050565b600160009054906101000a900473ffffffffffffffffffffffffffffffffffffffff1673ffffffffffffffffffffffffffffffffffffffff163373ffffffffffffffffffffffffffffffffffffffff1614610475576040517f08c379a000000000000000000000000000000000000000000000000000000000815260040161046c90611311565b60405180910390fd5b60008060009054906101000a900473ffffffffffffffffffffffffffffffffffffffff169050336000806101000a81548173ffffffffffffffffffffffffffffffffffffffff021916908373ffffffffffffffffffffffffffffffffffffffff1602179055506000600160006101000a81548173ffffffffffffffffffffffffffffffffffffffff021916908373ffffffffffffffffffffffffffffffffffffffff1602179055503373ffffffffffffffffffffffffffffffffffffffff168173ffffffffffffffffffffffffffffffffffffffff167f8be0079c531659141344cd1fd0a4f28419497f9722a3daafe3b4186f6b6457e060405160405180910390a350565b6004818154811061058a57600080fd5b906000526020600020016000915090505481565b60008060009054906101000a900473ffffffffffffffffffffffffffffffffffffffff16905090565b60026020528060005260406000206000915090508060000160009054906101000a900460ff16908060000160019054906101000a900460ff16905082565b600060606002600084815260200190815260200160002060000160019054906101000a900460ff1661066c576040517f08c379a00000000000000000000000000000000000000000000000000000000081526004016106639061137d565b60405180910390fd5b6000600260008581526020019081526020016000206040518060600160405290816000820160009054906101000a900460ff161515151581526020016000820160019054906101000a900460ff161515151581526020016001820180548060200260200160405190810160405280929190818152602001828054801561071157602002820191906000526020600020905b8154815260200190600101908083116106fd575b5050505050815250509050806000015181604001519250925050915091565b600061073a610a9d565b600360009054906101000a900473ffffffffffffffffffffffffffffffffffffffff1673ffffffffffffffffffffffffffffffffffffffff16635d3b1d30600654600360149054906101000a900467ffffffffffffffff16600760049054906101000a900461ffff16600760009054906101000a900463ffffffff16600760069054906101000a900463ffffffff166040518663ffffffff1660e01b81526004016107e9959493929190611415565b6020604051808303816000875af1158015610808573d6000803e3d6000fd5b505050506040513d601f19601f8201168201806040525081019061082c919061147d565b90506040518060600160405280600015158152602001600115158152602001600067ffffffffffffffff81111561086657610865610df1565b5b6040519080825280602002602001820160405280156108945781602001602082028036833780820191505090505b508152506002600083815260200190815260200160002060008201518160000160006101000a81548160ff02191690831515021790555060208201518160000160016101000a81548160ff0219169083151502179055506040820151816001019080519060200190610907929190610c59565b509050506004819080600181540180825580915050600190039060005260206000200160009091909190915055806005819055507fcc58b13ad3eab50626c6a6300b1d139cd6ebb1688a7cced9461c2f7e762665ee81600760069054906101000a900463ffffffff1660405161097e9291906114aa565b60405180910390a190565b610991610a9d565b61099a81610b2d565b50565b60055481565b6002600083815260200190815260200160002060000160019054906101000a900460ff16610a06576040517f08c379a00000000000000000000000000000000000000000000000000000000081526004016109fd9061137d565b60405180910390fd5b60016002600084815260200190815260200160002060000160006101000a81548160ff02191690831515021790555080600260008481526020019081526020016000206001019080519060200190610a5f929190610c59565b507ffe2e2d779dba245964d4e3ef9b994be63856fd568bf7d3ca9e224755cb1bd54d8282604051610a919291906114d3565b60405180910390a15050565b60008054906101000a900473ffffffffffffffffffffffffffffffffffffffff1673ffffffffffffffffffffffffffffffffffffffff163373ffffffffffffffffffffffffffffffffffffffff1614610b2b576040517f08c379a0000000000000000000000000000000000000000000000000000000008152600401610b229061154f565b60405180910390fd5b565b3373ffffffffffffffffffffffffffffffffffffffff168173ffffffffffffffffffffffffffffffffffffffff1603610b9b576040517f08c379a0000000000000000000000000000000000000000000000000000000008152600401610b92906115bb565b60405180910390fd5b80600160006101000a81548173ffffffffffffffffffffffffffffffffffffffff021916908373ffffffffffffffffffffffffffffffffffffffff1602179055508073ffffffffffffffffffffffffffffffffffffffff1660008054906101000a900473ffffffffffffffffffffffffffffffffffffffff1673ffffffffffffffffffffffffffffffffffffffff167fed8889f560326eb138920d842192f0eb3dd22b4f139c87a2c57538e05bae127860405160405180910390a350565b828054828255906000526020600020908101928215610c95579160200282015b82811115610c94578251825591602001919060010190610c79565b5b509050610ca29190610ca6565b5090565b5b80821115610cbf576000816000905550600101610ca7565b5090565b6000604051905090565b600080fd5b600080fd5b6000819050919050565b610cea81610cd7565b8114610cf557600080fd5b50565b600081359050610d0781610ce1565b92915050565b600060208284031215610d2357610d22610ccd565b5b6000610d3184828501610cf8565b91505092915050565b600081519050919050565b600082825260208201905092915050565b60005b83811015610d74578082015181840152602081019050610d59565b60008484015250505050565b6000601f19601f8301169050919050565b6000610d9c82610d3a565b610da68185610d45565b9350610db6818560208601610d56565b610dbf81610d80565b840191505092915050565b60006020820190508181036000830152610de48184610d91565b905092915050565b600080fd5b7f4e487b7100000000000000000000000000000000000000000000000000000000600052604160045260246000fd5b610e2982610d80565b810181811067ffffffffffffffff82111715610e4857610e47610df1565b5b80604052505050565b6000610e5b610cc3565b9050610e678282610e20565b919050565b600067ffffffffffffffff821115610e8757610e86610df1565b5b602082029050602081019050919050565b600080fd5b6000610eb0610eab84610e6c565b610e51565b90508083825260208201905060208402830185811115610ed357610ed2610e98565b5b835b81811015610efc5780610ee88882610cf8565b845260208401935050602081019050610ed5565b5050509392505050565b600082601f830112610f1b57610f1a610dec565b5b8135610f2b848260208601610e9d565b91505092915050565b60008060408385031215610f4b57610f4a610ccd565b5b6000610f5985828601610cf8565b925050602083013567ffffffffffffffff811115610f7a57610f79610cd2565b5b610f8685828601610f06565b9150509250929050565b610f9981610cd7565b82525050565b6000602082019050610fb46000830184610f90565b92915050565b600073ffffffffffffffffffffffffffffffffffffffff82169050919050565b6000610fe582610fba565b9050919050565b610ff581610fda565b82525050565b60006020820190506110106000830184610fec565b92915050565b60008115159050919050565b61102b81611016565b82525050565b60006040820190506110466000830185611022565b6110536020830184611022565b9392505050565b600081519050919050565b600082825260208201905092915050565b6000819050602082019050919050565b61108f81610cd7565b82525050565b60006110a18383611086565b60208301905092915050565b6000602082019050919050565b60006110c58261105a565b6110cf8185611065565b93506110da83611076565b8060005b8381101561110b5781516110f28882611095565b97506110fd836110ad565b9250506001810190506110de565b5085935050505092915050565b600060408201905061112d6000830185611022565b818103602083015261113f81846110ba565b90509392505050565b61115181610fda565b811461115c57600080fd5b50565b60008135905061116e81611148565b92915050565b60006020828403121561118a57611189610ccd565b5b60006111988482850161115f565b91505092915050565b7f4e6f74207965742066756c66696c6c6564000000000000000000000000000000600082015250565b60006111d7601183610d45565b91506111e2826111a1565b602082019050919050565b60006020820190508181036000830152611206816111ca565b9050919050565b7f4e487b7100000000000000000000000000000000000000000000000000000000600052603260045260246000fd5b7f4e487b7100000000000000000000000000000000000000000000000000000000600052601260045260246000fd5b600061127682610cd7565b915061128183610cd7565b9250826112915761129061123c565b5b828206905092915050565b60006040820190506112b16000830185610fec565b6112be6020830184610fec565b9392505050565b7f4d7573742062652070726f706f736564206f776e657200000000000000000000600082015250565b60006112fb601683610d45565b9150611306826112c5565b602082019050919050565b6000602082019050818103600083015261132a816112ee565b9050919050565b7f72657175657374206e6f7420666f756e64000000000000000000000000000000600082015250565b6000611367601183610d45565b915061137282611331565b602082019050919050565b600060208201905081810360008301526113968161135a565b9050919050565b6000819050919050565b6113b08161139d565b82525050565b600067ffffffffffffffff82169050919050565b6113d3816113b6565b82525050565b600061ffff82169050919050565b6113f0816113d9565b82525050565b600063ffffffff82169050919050565b61140f816113f6565b82525050565b600060a08201905061142a60008301886113a7565b61143760208301876113ca565b61144460408301866113e7565b6114516060830185611406565b61145e6080830184611406565b9695505050505050565b60008151905061147781610ce1565b92915050565b60006020828403121561149357611492610ccd565b5b60006114a184828501611468565b91505092915050565b60006040820190506114bf6000830185610f90565b6114cc6020830184611406565b9392505050565b60006040820190506114e86000830185610f90565b81810360208301526114fa81846110ba565b90509392505050565b7f4f6e6c792063616c6c61626c65206279206f776e657200000000000000000000600082015250565b6000611539601683610d45565b915061154482611503565b602082019050919050565b600060208201905081810360008301526115688161152c565b9050919050565b7f43616e6e6f74207472616e7366657220746f2073656c66000000000000000000600082015250565b60006115a5601783610d45565b91506115b08261156f565b602082019050919050565b600060208201905081810360008301526115d481611598565b905091905056fea264697066735822122012b4c2eca3a228e97bd85b044e67627db6f4e2e3fe57bc469a5d082681fd248d64736f6c63430008120033",
					"opcodes": "PUSH1 0xA0 PUSH1 0x40 MSTORE PUSH32 0x4B09E658ED251BCAFEEBBC69400383D49F344ACE09B9576FE248BB02C003FE9F PUSH1 0x0 SHL PUSH1 0x6 SSTORE PUSH3 0x186A0 PUSH1 0x7 PUSH1 0x0 PUSH2 0x100 EXP DUP2 SLOAD DUP2 PUSH4 0xFFFFFFFF MUL NOT AND SWAP1 DUP4 PUSH4 0xFFFFFFFF AND MUL OR SWAP1 SSTORE POP PUSH1 0x3 PUSH1 0x7 PUSH1 0x4 PUSH2 0x100 EXP DUP2 SLOAD DUP2 PUSH2 0xFFFF MUL NOT AND SWAP1 DUP4 PUSH2 0xFFFF AND MUL OR SWAP1 SSTORE POP PUSH1 0x1 PUSH1 0x7 PUSH1 0x6 PUSH2 0x100 EXP DUP2 SLOAD DUP2 PUSH4 0xFFFFFFFF MUL NOT AND SWAP1 DUP4 PUSH4 0xFFFFFFFF AND MUL OR SWAP1 SSTORE POP CALLVALUE DUP1 ISZERO PUSH3 0x9C JUMPI PUSH1 0x0 DUP1 REVERT JUMPDEST POP PUSH1 0x40 MLOAD PUSH3 0x1B65 CODESIZE SUB DUP1 PUSH3 0x1B65 DUP4 CODECOPY DUP2 DUP2 ADD PUSH1 0x40 MSTORE DUP2 ADD SWAP1 PUSH3 0xC2 SWAP2 SWAP1 PUSH3 0x40A JUMP JUMPDEST CALLER DUP1 PUSH1 0x0 PUSH20 0x7A1BAC17CCC5B313516C5E16FB24F7659AA5EBED DUP1 PUSH20 0xFFFFFFFFFFFFFFFFFFFFFFFFFFFFFFFFFFFFFFFF AND PUSH1 0x80 DUP2 PUSH20 0xFFFFFFFFFFFFFFFFFFFFFFFFFFFFFFFFFFFFFFFF AND DUP2 MSTORE POP POP POP PUSH1 0x0 PUSH20 0xFFFFFFFFFFFFFFFFFFFFFFFFFFFFFFFFFFFFFFFF AND DUP3 PUSH20 0xFFFFFFFFFFFFFFFFFFFFFFFFFFFFFFFFFFFFFFFF AND SUB PUSH3 0x182 JUMPI PUSH1 0x40 MLOAD PUSH32 0x8C379A000000000000000000000000000000000000000000000000000000000 DUP2 MSTORE PUSH1 0x4 ADD PUSH3 0x179 SWAP1 PUSH3 0x49D JUMP JUMPDEST PUSH1 0x40 MLOAD DUP1 SWAP2 SUB SWAP1 REVERT JUMPDEST DUP2 PUSH1 0x0 DUP1 PUSH2 0x100 EXP DUP2 SLOAD DUP2 PUSH20 0xFFFFFFFFFFFFFFFFFFFFFFFFFFFFFFFFFFFFFFFF MUL NOT AND SWAP1 DUP4 PUSH20 0xFFFFFFFFFFFFFFFFFFFFFFFFFFFFFFFFFFFFFFFF AND MUL OR SWAP1 SSTORE POP PUSH1 0x0 PUSH20 0xFFFFFFFFFFFFFFFFFFFFFFFFFFFFFFFFFFFFFFFF AND DUP2 PUSH20 0xFFFFFFFFFFFFFFFFFFFFFFFFFFFFFFFFFFFFFFFF AND EQ PUSH3 0x209 JUMPI PUSH3 0x208 DUP2 PUSH3 0x291 PUSH1 0x20 SHL PUSH1 0x20 SHR JUMP JUMPDEST JUMPDEST POP POP POP PUSH20 0x7A1BAC17CCC5B313516C5E16FB24F7659AA5EBED PUSH1 0x3 PUSH1 0x0 PUSH2 0x100 EXP DUP2 SLOAD DUP2 PUSH20 0xFFFFFFFFFFFFFFFFFFFFFFFFFFFFFFFFFFFFFFFF MUL NOT AND SWAP1 DUP4 PUSH20 0xFFFFFFFFFFFFFFFFFFFFFFFFFFFFFFFFFFFFFFFF AND MUL OR SWAP1 SSTORE POP DUP1 PUSH1 0x3 PUSH1 0x14 PUSH2 0x100 EXP DUP2 SLOAD DUP2 PUSH8 0xFFFFFFFFFFFFFFFF MUL NOT AND SWAP1 DUP4 PUSH8 0xFFFFFFFFFFFFFFFF AND MUL OR SWAP1 SSTORE POP POP PUSH3 0x531 JUMP JUMPDEST CALLER PUSH20 0xFFFFFFFFFFFFFFFFFFFFFFFFFFFFFFFFFFFFFFFF AND DUP2 PUSH20 0xFFFFFFFFFFFFFFFFFFFFFFFFFFFFFFFFFFFFFFFF AND SUB PUSH3 0x302 JUMPI PUSH1 0x40 MLOAD PUSH32 0x8C379A000000000000000000000000000000000000000000000000000000000 DUP2 MSTORE PUSH1 0x4 ADD PUSH3 0x2F9 SWAP1 PUSH3 0x50F JUMP JUMPDEST PUSH1 0x40 MLOAD DUP1 SWAP2 SUB SWAP1 REVERT JUMPDEST DUP1 PUSH1 0x1 PUSH1 0x0 PUSH2 0x100 EXP DUP2 SLOAD DUP2 PUSH20 0xFFFFFFFFFFFFFFFFFFFFFFFFFFFFFFFFFFFFFFFF MUL NOT AND SWAP1 DUP4 PUSH20 0xFFFFFFFFFFFFFFFFFFFFFFFFFFFFFFFFFFFFFFFF AND MUL OR SWAP1 SSTORE POP DUP1 PUSH20 0xFFFFFFFFFFFFFFFFFFFFFFFFFFFFFFFFFFFFFFFF AND PUSH1 0x0 DUP1 SLOAD SWAP1 PUSH2 0x100 EXP SWAP1 DIV PUSH20 0xFFFFFFFFFFFFFFFFFFFFFFFFFFFFFFFFFFFFFFFF AND PUSH20 0xFFFFFFFFFFFFFFFFFFFFFFFFFFFFFFFFFFFFFFFF AND PUSH32 0xED8889F560326EB138920D842192F0EB3DD22B4F139C87A2C57538E05BAE1278 PUSH1 0x40 MLOAD PUSH1 0x40 MLOAD DUP1 SWAP2 SUB SWAP1 LOG3 POP JUMP JUMPDEST PUSH1 0x0 DUP1 REVERT JUMPDEST PUSH1 0x0 PUSH8 0xFFFFFFFFFFFFFFFF DUP3 AND SWAP1 POP SWAP2 SWAP1 POP JUMP JUMPDEST PUSH3 0x3E4 DUP2 PUSH3 0x3C5 JUMP JUMPDEST DUP2 EQ PUSH3 0x3F0 JUMPI PUSH1 0x0 DUP1 REVERT JUMPDEST POP JUMP JUMPDEST PUSH1 0x0 DUP2 MLOAD SWAP1 POP PUSH3 0x404 DUP2 PUSH3 0x3D9 JUMP JUMPDEST SWAP3 SWAP2 POP POP JUMP JUMPDEST PUSH1 0x0 PUSH1 0x20 DUP3 DUP5 SUB SLT ISZERO PUSH3 0x423 JUMPI PUSH3 0x422 PUSH3 0x3C0 JUMP JUMPDEST JUMPDEST PUSH1 0x0 PUSH3 0x433 DUP5 DUP3 DUP6 ADD PUSH3 0x3F3 JUMP JUMPDEST SWAP2 POP POP SWAP3 SWAP2 POP POP JUMP JUMPDEST PUSH1 0x0 DUP3 DUP3 MSTORE PUSH1 0x20 DUP3 ADD SWAP1 POP SWAP3 SWAP2 POP POP JUMP JUMPDEST PUSH32 0x43616E6E6F7420736574206F776E657220746F207A65726F0000000000000000 PUSH1 0x0 DUP3 ADD MSTORE POP JUMP JUMPDEST PUSH1 0x0 PUSH3 0x485 PUSH1 0x18 DUP4 PUSH3 0x43C JUMP JUMPDEST SWAP2 POP PUSH3 0x492 DUP3 PUSH3 0x44D JUMP JUMPDEST PUSH1 0x20 DUP3 ADD SWAP1 POP SWAP2 SWAP1 POP JUMP JUMPDEST PUSH1 0x0 PUSH1 0x20 DUP3 ADD SWAP1 POP DUP2 DUP2 SUB PUSH1 0x0 DUP4 ADD MSTORE PUSH3 0x4B8 DUP2 PUSH3 0x476 JUMP JUMPDEST SWAP1 POP SWAP2 SWAP1 POP JUMP JUMPDEST PUSH32 0x43616E6E6F74207472616E7366657220746F2073656C66000000000000000000 PUSH1 0x0 DUP3 ADD MSTORE POP JUMP JUMPDEST PUSH1 0x0 PUSH3 0x4F7 PUSH1 0x17 DUP4 PUSH3 0x43C JUMP JUMPDEST SWAP2 POP PUSH3 0x504 DUP3 PUSH3 0x4BF JUMP JUMPDEST PUSH1 0x20 DUP3 ADD SWAP1 POP SWAP2 SWAP1 POP JUMP JUMPDEST PUSH1 0x0 PUSH1 0x20 DUP3 ADD SWAP1 POP DUP2 DUP2 SUB PUSH1 0x0 DUP4 ADD MSTORE PUSH3 0x52A DUP2 PUSH3 0x4E8 JUMP JUMPDEST SWAP1 POP SWAP2 SWAP1 POP JUMP JUMPDEST PUSH1 0x80 MLOAD PUSH2 0x1611 PUSH3 0x554 PUSH1 0x0 CODECOPY PUSH1 0x0 DUP2 DUP2 PUSH2 0x327 ADD MSTORE PUSH2 0x37B ADD MSTORE PUSH2 0x1611 PUSH1 0x0 RETURN INVALID PUSH1 0x80 PUSH1 0x40 MSTORE CALLVALUE DUP1 ISZERO PUSH2 0x10 JUMPI PUSH1 0x0 DUP1 REVERT JUMPDEST POP PUSH1 0x4 CALLDATASIZE LT PUSH2 0x9E JUMPI PUSH1 0x0 CALLDATALOAD PUSH1 0xE0 SHR DUP1 PUSH4 0xA168FA89 GT PUSH2 0x66 JUMPI DUP1 PUSH4 0xA168FA89 EQ PUSH2 0x147 JUMPI DUP1 PUSH4 0xD8A4676F EQ PUSH2 0x178 JUMPI DUP1 PUSH4 0xE0C86289 EQ PUSH2 0x1A9 JUMPI DUP1 PUSH4 0xF2FDE38B EQ PUSH2 0x1C7 JUMPI DUP1 PUSH4 0xFC2A88C3 EQ PUSH2 0x1E3 JUMPI PUSH2 0x9E JUMP JUMPDEST DUP1 PUSH4 0x3AE649F EQ PUSH2 0xA3 JUMPI DUP1 PUSH4 0x1FE543E3 EQ PUSH2 0xD3 JUMPI DUP1 PUSH4 0x79BA5097 EQ PUSH2 0xEF JUMPI DUP1 PUSH4 0x8796BA8C EQ PUSH2 0xF9 JUMPI DUP1 PUSH4 0x8DA5CB5B EQ PUSH2 0x129 JUMPI JUMPDEST PUSH1 0x0 DUP1 REVERT JUMPDEST PUSH2 0xBD PUSH1 0x4 DUP1 CALLDATASIZE SUB DUP2 ADD SWAP1 PUSH2 0xB8 SWAP2 SWAP1 PUSH2 0xD0D JUMP JUMPDEST PUSH2 0x201 JUMP JUMPDEST PUSH1 0x40 MLOAD PUSH2 0xCA SWAP2 SWAP1 PUSH2 0xDCA JUMP JUMPDEST PUSH1 0x40 MLOAD DUP1 SWAP2 SUB SWAP1 RETURN JUMPDEST PUSH2 0xED PUSH1 0x4 DUP1 CALLDATASIZE SUB DUP2 ADD SWAP1 PUSH2 0xE8 SWAP2 SWAP1 PUSH2 0xF34 JUMP JUMPDEST PUSH2 0x325 JUMP JUMPDEST STOP JUMPDEST PUSH2 0xF7 PUSH2 0x3E5 JUMP JUMPDEST STOP JUMPDEST PUSH2 0x113 PUSH1 0x4 DUP1 CALLDATASIZE SUB DUP2 ADD SWAP1 PUSH2 0x10E SWAP2 SWAP1 PUSH2 0xD0D JUMP JUMPDEST PUSH2 0x57A JUMP JUMPDEST PUSH1 0x40 MLOAD PUSH2 0x120 SWAP2 SWAP1 PUSH2 0xF9F JUMP JUMPDEST PUSH1 0x40 MLOAD DUP1 SWAP2 SUB SWAP1 RETURN JUMPDEST PUSH2 0x131 PUSH2 0x59E JUMP JUMPDEST PUSH1 0x40 MLOAD PUSH2 0x13E SWAP2 SWAP1 PUSH2 0xFFB JUMP JUMPDEST PUSH1 0x40 MLOAD DUP1 SWAP2 SUB SWAP1 RETURN JUMPDEST PUSH2 0x161 PUSH1 0x4 DUP1 CALLDATASIZE SUB DUP2 ADD SWAP1 PUSH2 0x15C SWAP2 SWAP1 PUSH2 0xD0D JUMP JUMPDEST PUSH2 0x5C7 JUMP JUMPDEST PUSH1 0x40 MLOAD PUSH2 0x16F SWAP3 SWAP2 SWAP1 PUSH2 0x1031 JUMP JUMPDEST PUSH1 0x40 MLOAD DUP1 SWAP2 SUB SWAP1 RETURN JUMPDEST PUSH2 0x192 PUSH1 0x4 DUP1 CALLDATASIZE SUB DUP2 ADD SWAP1 PUSH2 0x18D SWAP2 SWAP1 PUSH2 0xD0D JUMP JUMPDEST PUSH2 0x605 JUMP JUMPDEST PUSH1 0x40 MLOAD PUSH2 0x1A0 SWAP3 SWAP2 SWAP1 PUSH2 0x1118 JUMP JUMPDEST PUSH1 0x40 MLOAD DUP1 SWAP2 SUB SWAP1 RETURN JUMPDEST PUSH2 0x1B1 PUSH2 0x730 JUMP JUMPDEST PUSH1 0x40 MLOAD PUSH2 0x1BE SWAP2 SWAP1 PUSH2 0xF9F JUMP JUMPDEST PUSH1 0x40 MLOAD DUP1 SWAP2 SUB SWAP1 RETURN JUMPDEST PUSH2 0x1E1 PUSH1 0x4 DUP1 CALLDATASIZE SUB DUP2 ADD SWAP1 PUSH2 0x1DC SWAP2 SWAP1 PUSH2 0x1174 JUMP JUMPDEST PUSH2 0x989 JUMP JUMPDEST STOP JUMPDEST PUSH2 0x1EB PUSH2 0x99D JUMP JUMPDEST PUSH1 0x40 MLOAD PUSH2 0x1F8 SWAP2 SWAP1 PUSH2 0xF9F JUMP JUMPDEST PUSH1 0x40 MLOAD DUP1 SWAP2 SUB SWAP1 RETURN JUMPDEST PUSH1 0x60 PUSH1 0x2 PUSH1 0x0 DUP4 DUP2 MSTORE PUSH1 0x20 ADD SWAP1 DUP2 MSTORE PUSH1 0x20 ADD PUSH1 0x0 KECCAK256 PUSH1 0x0 ADD PUSH1 0x0 SWAP1 SLOAD SWAP1 PUSH2 0x100 EXP SWAP1 DIV PUSH1 0xFF AND PUSH2 0x266 JUMPI PUSH1 0x40 MLOAD PUSH32 0x8C379A000000000000000000000000000000000000000000000000000000000 DUP2 MSTORE PUSH1 0x4 ADD PUSH2 0x25D SWAP1 PUSH2 0x11ED JUMP JUMPDEST PUSH1 0x40 MLOAD DUP1 SWAP2 SUB SWAP1 REVERT JUMPDEST PUSH1 0x0 PUSH1 0x2 DUP1 PUSH1 0x0 DUP6 DUP2 MSTORE PUSH1 0x20 ADD SWAP1 DUP2 MSTORE PUSH1 0x20 ADD PUSH1 0x0 KECCAK256 PUSH1 0x1 ADD PUSH1 0x0 DUP2 SLOAD DUP2 LT PUSH2 0x292 JUMPI PUSH2 0x291 PUSH2 0x120D JUMP JUMPDEST JUMPDEST SWAP1 PUSH1 0x0 MSTORE PUSH1 0x20 PUSH1 0x0 KECCAK256 ADD SLOAD PUSH2 0x2A7 SWAP2 SWAP1 PUSH2 0x126B JUMP JUMPDEST EQ PUSH2 0x2E7 JUMPI PUSH1 0x40 MLOAD DUP1 PUSH1 0x40 ADD PUSH1 0x40 MSTORE DUP1 PUSH1 0x5 DUP2 MSTORE PUSH1 0x20 ADD PUSH32 0x5461696C73000000000000000000000000000000000000000000000000000000 DUP2 MSTORE POP PUSH2 0x31E JUMP JUMPDEST PUSH1 0x40 MLOAD DUP1 PUSH1 0x40 ADD PUSH1 0x40 MSTORE DUP1 PUSH1 0x5 DUP2 MSTORE PUSH1 0x20 ADD PUSH32 0x4865616473000000000000000000000000000000000000000000000000000000 DUP2 MSTORE POP JUMPDEST SWAP1 POP SWAP2 SWAP1 POP JUMP JUMPDEST PUSH32 0x0 PUSH20 0xFFFFFFFFFFFFFFFFFFFFFFFFFFFFFFFFFFFFFFFF AND CALLER PUSH20 0xFFFFFFFFFFFFFFFFFFFFFFFFFFFFFFFFFFFFFFFF AND EQ PUSH2 0x3D7 JUMPI CALLER PUSH32 0x0 PUSH1 0x40 MLOAD PUSH32 0x1CF993F400000000000000000000000000000000000000000000000000000000 DUP2 MSTORE PUSH1 0x4 ADD PUSH2 0x3CE SWAP3 SWAP2 SWAP1 PUSH2 0x129C JUMP JUMPDEST PUSH1 0x40 MLOAD DUP1 SWAP2 SUB SWAP1 REVERT JUMPDEST PUSH2 0x3E1 DUP3 DUP3 PUSH2 0x9A3 JUMP JUMPDEST POP POP JUMP JUMPDEST PUSH1 0x1 PUSH1 0x0 SWAP1 SLOAD SWAP1 PUSH2 0x100 EXP SWAP1 DIV PUSH20 0xFFFFFFFFFFFFFFFFFFFFFFFFFFFFFFFFFFFFFFFF AND PUSH20 0xFFFFFFFFFFFFFFFFFFFFFFFFFFFFFFFFFFFFFFFF AND CALLER PUSH20 0xFFFFFFFFFFFFFFFFFFFFFFFFFFFFFFFFFFFFFFFF AND EQ PUSH2 0x475 JUMPI PUSH1 0x40 MLOAD PUSH32 0x8C379A000000000000000000000000000000000000000000000000000000000 DUP2 MSTORE PUSH1 0x4 ADD PUSH2 0x46C SWAP1 PUSH2 0x1311 JUMP JUMPDEST PUSH1 0x40 MLOAD DUP1 SWAP2 SUB SWAP1 REVERT JUMPDEST PUSH1 0x0 DUP1 PUSH1 0x0 SWAP1 SLOAD SWAP1 PUSH2 0x100 EXP SWAP1 DIV PUSH20 0xFFFFFFFFFFFFFFFFFFFFFFFFFFFFFFFFFFFFFFFF AND SWAP1 POP CALLER PUSH1 0x0 DUP1 PUSH2 0x100 EXP DUP2 SLOAD DUP2 PUSH20 0xFFFFFFFFFFFFFFFFFFFFFFFFFFFFFFFFFFFFFFFF MUL NOT AND SWAP1 DUP4 PUSH20 0xFFFFFFFFFFFFFFFFFFFFFFFFFFFFFFFFFFFFFFFF AND MUL OR SWAP1 SSTORE POP PUSH1 0x0 PUSH1 0x1 PUSH1 0x0 PUSH2 0x100 EXP DUP2 SLOAD DUP2 PUSH20 0xFFFFFFFFFFFFFFFFFFFFFFFFFFFFFFFFFFFFFFFF MUL NOT AND SWAP1 DUP4 PUSH20 0xFFFFFFFFFFFFFFFFFFFFFFFFFFFFFFFFFFFFFFFF AND MUL OR SWAP1 SSTORE POP CALLER PUSH20 0xFFFFFFFFFFFFFFFFFFFFFFFFFFFFFFFFFFFFFFFF AND DUP2 PUSH20 0xFFFFFFFFFFFFFFFFFFFFFFFFFFFFFFFFFFFFFFFF AND PUSH32 0x8BE0079C531659141344CD1FD0A4F28419497F9722A3DAAFE3B4186F6B6457E0 PUSH1 0x40 MLOAD PUSH1 0x40 MLOAD DUP1 SWAP2 SUB SWAP1 LOG3 POP JUMP JUMPDEST PUSH1 0x4 DUP2 DUP2 SLOAD DUP2 LT PUSH2 0x58A JUMPI PUSH1 0x0 DUP1 REVERT JUMPDEST SWAP1 PUSH1 0x0 MSTORE PUSH1 0x20 PUSH1 0x0 KECCAK256 ADD PUSH1 0x0 SWAP2 POP SWAP1 POP SLOAD DUP2 JUMP JUMPDEST PUSH1 0x0 DUP1 PUSH1 0x0 SWAP1 SLOAD SWAP1 PUSH2 0x100 EXP SWAP1 DIV PUSH20 0xFFFFFFFFFFFFFFFFFFFFFFFFFFFFFFFFFFFFFFFF AND SWAP1 POP SWAP1 JUMP JUMPDEST PUSH1 0x2 PUSH1 0x20 MSTORE DUP1 PUSH1 0x0 MSTORE PUSH1 0x40 PUSH1 0x0 KECCAK256 PUSH1 0x0 SWAP2 POP SWAP1 POP DUP1 PUSH1 0x0 ADD PUSH1 0x0 SWAP1 SLOAD SWAP1 PUSH2 0x100 EXP SWAP1 DIV PUSH1 0xFF AND SWAP1 DUP1 PUSH1 0x0 ADD PUSH1 0x1 SWAP1 SLOAD SWAP1 PUSH2 0x100 EXP SWAP1 DIV PUSH1 0xFF AND SWAP1 POP DUP3 JUMP JUMPDEST PUSH1 0x0 PUSH1 0x60 PUSH1 0x2 PUSH1 0x0 DUP5 DUP2 MSTORE PUSH1 0x20 ADD SWAP1 DUP2 MSTORE PUSH1 0x20 ADD PUSH1 0x0 KECCAK256 PUSH1 0x0 ADD PUSH1 0x1 SWAP1 SLOAD SWAP1 PUSH2 0x100 EXP SWAP1 DIV PUSH1 0xFF AND PUSH2 0x66C JUMPI PUSH1 0x40 MLOAD PUSH32 0x8C379A000000000000000000000000000000000000000000000000000000000 DUP2 MSTORE PUSH1 0x4 ADD PUSH2 0x663 SWAP1 PUSH2 0x137D JUMP JUMPDEST PUSH1 0x40 MLOAD DUP1 SWAP2 SUB SWAP1 REVERT JUMPDEST PUSH1 0x0 PUSH1 0x2 PUSH1 0x0 DUP6 DUP2 MSTORE PUSH1 0x20 ADD SWAP1 DUP2 MSTORE PUSH1 0x20 ADD PUSH1 0x0 KECCAK256 PUSH1 0x40 MLOAD DUP1 PUSH1 0x60 ADD PUSH1 0x40 MSTORE SWAP1 DUP2 PUSH1 0x0 DUP3 ADD PUSH1 0x0 SWAP1 SLOAD SWAP1 PUSH2 0x100 EXP SWAP1 DIV PUSH1 0xFF AND ISZERO ISZERO ISZERO ISZERO DUP2 MSTORE PUSH1 0x20 ADD PUSH1 0x0 DUP3 ADD PUSH1 0x1 SWAP1 SLOAD SWAP1 PUSH2 0x100 EXP SWAP1 DIV PUSH1 0xFF AND ISZERO ISZERO ISZERO ISZERO DUP2 MSTORE PUSH1 0x20 ADD PUSH1 0x1 DUP3 ADD DUP1 SLOAD DUP1 PUSH1 0x20 MUL PUSH1 0x20 ADD PUSH1 0x40 MLOAD SWAP1 DUP2 ADD PUSH1 0x40 MSTORE DUP1 SWAP3 SWAP2 SWAP1 DUP2 DUP2 MSTORE PUSH1 0x20 ADD DUP3 DUP1 SLOAD DUP1 ISZERO PUSH2 0x711 JUMPI PUSH1 0x20 MUL DUP3 ADD SWAP2 SWAP1 PUSH1 0x0 MSTORE PUSH1 0x20 PUSH1 0x0 KECCAK256 SWAP1 JUMPDEST DUP2 SLOAD DUP2 MSTORE PUSH1 0x20 ADD SWAP1 PUSH1 0x1 ADD SWAP1 DUP1 DUP4 GT PUSH2 0x6FD JUMPI JUMPDEST POP POP POP POP POP DUP2 MSTORE POP POP SWAP1 POP DUP1 PUSH1 0x0 ADD MLOAD DUP2 PUSH1 0x40 ADD MLOAD SWAP3 POP SWAP3 POP POP SWAP2 POP SWAP2 JUMP JUMPDEST PUSH1 0x0 PUSH2 0x73A PUSH2 0xA9D JUMP JUMPDEST PUSH1 0x3 PUSH1 0x0 SWAP1 SLOAD SWAP1 PUSH2 0x100 EXP SWAP1 DIV PUSH20 0xFFFFFFFFFFFFFFFFFFFFFFFFFFFFFFFFFFFFFFFF AND PUSH20 0xFFFFFFFFFFFFFFFFFFFFFFFFFFFFFFFFFFFFFFFF AND PUSH4 0x5D3B1D30 PUSH1 0x6 SLOAD PUSH1 0x3 PUSH1 0x14 SWAP1 SLOAD SWAP1 PUSH2 0x100 EXP SWAP1 DIV PUSH8 0xFFFFFFFFFFFFFFFF AND PUSH1 0x7 PUSH1 0x4 SWAP1 SLOAD SWAP1 PUSH2 0x100 EXP SWAP1 DIV PUSH2 0xFFFF AND PUSH1 0x7 PUSH1 0x0 SWAP1 SLOAD SWAP1 PUSH2 0x100 EXP SWAP1 DIV PUSH4 0xFFFFFFFF AND PUSH1 0x7 PUSH1 0x6 SWAP1 SLOAD SWAP1 PUSH2 0x100 EXP SWAP1 DIV PUSH4 0xFFFFFFFF AND PUSH1 0x40 MLOAD DUP7 PUSH4 0xFFFFFFFF AND PUSH1 0xE0 SHL DUP2 MSTORE PUSH1 0x4 ADD PUSH2 0x7E9 SWAP6 SWAP5 SWAP4 SWAP3 SWAP2 SWAP1 PUSH2 0x1415 JUMP JUMPDEST PUSH1 0x20 PUSH1 0x40 MLOAD DUP1 DUP4 SUB DUP2 PUSH1 0x0 DUP8 GAS CALL ISZERO DUP1 ISZERO PUSH2 0x808 JUMPI RETURNDATASIZE PUSH1 0x0 DUP1 RETURNDATACOPY RETURNDATASIZE PUSH1 0x0 REVERT JUMPDEST POP POP POP POP PUSH1 0x40 MLOAD RETURNDATASIZE PUSH1 0x1F NOT PUSH1 0x1F DUP3 ADD AND DUP3 ADD DUP1 PUSH1 0x40 MSTORE POP DUP2 ADD SWAP1 PUSH2 0x82C SWAP2 SWAP1 PUSH2 0x147D JUMP JUMPDEST SWAP1 POP PUSH1 0x40 MLOAD DUP1 PUSH1 0x60 ADD PUSH1 0x40 MSTORE DUP1 PUSH1 0x0 ISZERO ISZERO DUP2 MSTORE PUSH1 0x20 ADD PUSH1 0x1 ISZERO ISZERO DUP2 MSTORE PUSH1 0x20 ADD PUSH1 0x0 PUSH8 0xFFFFFFFFFFFFFFFF DUP2 GT ISZERO PUSH2 0x866 JUMPI PUSH2 0x865 PUSH2 0xDF1 JUMP JUMPDEST JUMPDEST PUSH1 0x40 MLOAD SWAP1 DUP1 DUP3 MSTORE DUP1 PUSH1 0x20 MUL PUSH1 0x20 ADD DUP3 ADD PUSH1 0x40 MSTORE DUP1 ISZERO PUSH2 0x894 JUMPI DUP2 PUSH1 0x20 ADD PUSH1 0x20 DUP3 MUL DUP1 CALLDATASIZE DUP4 CALLDATACOPY DUP1 DUP3 ADD SWAP2 POP POP SWAP1 POP JUMPDEST POP DUP2 MSTORE POP PUSH1 0x2 PUSH1 0x0 DUP4 DUP2 MSTORE PUSH1 0x20 ADD SWAP1 DUP2 MSTORE PUSH1 0x20 ADD PUSH1 0x0 KECCAK256 PUSH1 0x0 DUP3 ADD MLOAD DUP2 PUSH1 0x0 ADD PUSH1 0x0 PUSH2 0x100 EXP DUP2 SLOAD DUP2 PUSH1 0xFF MUL NOT AND SWAP1 DUP4 ISZERO ISZERO MUL OR SWAP1 SSTORE POP PUSH1 0x20 DUP3 ADD MLOAD DUP2 PUSH1 0x0 ADD PUSH1 0x1 PUSH2 0x100 EXP DUP2 SLOAD DUP2 PUSH1 0xFF MUL NOT AND SWAP1 DUP4 ISZERO ISZERO MUL OR SWAP1 SSTORE POP PUSH1 0x40 DUP3 ADD MLOAD DUP2 PUSH1 0x1 ADD SWAP1 DUP1 MLOAD SWAP1 PUSH1 0x20 ADD SWAP1 PUSH2 0x907 SWAP3 SWAP2 SWAP1 PUSH2 0xC59 JUMP JUMPDEST POP SWAP1 POP POP PUSH1 0x4 DUP2 SWAP1 DUP1 PUSH1 0x1 DUP2 SLOAD ADD DUP1 DUP3 SSTORE DUP1 SWAP2 POP POP PUSH1 0x1 SWAP1 SUB SWAP1 PUSH1 0x0 MSTORE PUSH1 0x20 PUSH1 0x0 KECCAK256 ADD PUSH1 0x0 SWAP1 SWAP2 SWAP1 SWAP2 SWAP1 SWAP2 POP SSTORE DUP1 PUSH1 0x5 DUP2 SWAP1 SSTORE POP PUSH32 0xCC58B13AD3EAB50626C6A6300B1D139CD6EBB1688A7CCED9461C2F7E762665EE DUP2 PUSH1 0x7 PUSH1 0x6 SWAP1 SLOAD SWAP1 PUSH2 0x100 EXP SWAP1 DIV PUSH4 0xFFFFFFFF AND PUSH1 0x40 MLOAD PUSH2 0x97E SWAP3 SWAP2 SWAP1 PUSH2 0x14AA JUMP JUMPDEST PUSH1 0x40 MLOAD DUP1 SWAP2 SUB SWAP1 LOG1 SWAP1 JUMP JUMPDEST PUSH2 0x991 PUSH2 0xA9D JUMP JUMPDEST PUSH2 0x99A DUP2 PUSH2 0xB2D JUMP JUMPDEST POP JUMP JUMPDEST PUSH1 0x5 SLOAD DUP2 JUMP JUMPDEST PUSH1 0x2 PUSH1 0x0 DUP4 DUP2 MSTORE PUSH1 0x20 ADD SWAP1 DUP2 MSTORE PUSH1 0x20 ADD PUSH1 0x0 KECCAK256 PUSH1 0x0 ADD PUSH1 0x1 SWAP1 SLOAD SWAP1 PUSH2 0x100 EXP SWAP1 DIV PUSH1 0xFF AND PUSH2 0xA06 JUMPI PUSH1 0x40 MLOAD PUSH32 0x8C379A000000000000000000000000000000000000000000000000000000000 DUP2 MSTORE PUSH1 0x4 ADD PUSH2 0x9FD SWAP1 PUSH2 0x137D JUMP JUMPDEST PUSH1 0x40 MLOAD DUP1 SWAP2 SUB SWAP1 REVERT JUMPDEST PUSH1 0x1 PUSH1 0x2 PUSH1 0x0 DUP5 DUP2 MSTORE PUSH1 0x20 ADD SWAP1 DUP2 MSTORE PUSH1 0x20 ADD PUSH1 0x0 KECCAK256 PUSH1 0x0 ADD PUSH1 0x0 PUSH2 0x100 EXP DUP2 SLOAD DUP2 PUSH1 0xFF MUL NOT AND SWAP1 DUP4 ISZERO ISZERO MUL OR SWAP1 SSTORE POP DUP1 PUSH1 0x2 PUSH1 0x0 DUP5 DUP2 MSTORE PUSH1 0x20 ADD SWAP1 DUP2 MSTORE PUSH1 0x20 ADD PUSH1 0x0 KECCAK256 PUSH1 0x1 ADD SWAP1 DUP1 MLOAD SWAP1 PUSH1 0x20 ADD SWAP1 PUSH2 0xA5F SWAP3 SWAP2 SWAP1 PUSH2 0xC59 JUMP JUMPDEST POP PUSH32 0xFE2E2D779DBA245964D4E3EF9B994BE63856FD568BF7D3CA9E224755CB1BD54D DUP3 DUP3 PUSH1 0x40 MLOAD PUSH2 0xA91 SWAP3 SWAP2 SWAP1 PUSH2 0x14D3 JUMP JUMPDEST PUSH1 0x40 MLOAD DUP1 SWAP2 SUB SWAP1 LOG1 POP POP JUMP JUMPDEST PUSH1 0x0 DUP1 SLOAD SWAP1 PUSH2 0x100 EXP SWAP1 DIV PUSH20 0xFFFFFFFFFFFFFFFFFFFFFFFFFFFFFFFFFFFFFFFF AND PUSH20 0xFFFFFFFFFFFFFFFFFFFFFFFFFFFFFFFFFFFFFFFF AND CALLER PUSH20 0xFFFFFFFFFFFFFFFFFFFFFFFFFFFFFFFFFFFFFFFF AND EQ PUSH2 0xB2B JUMPI PUSH1 0x40 MLOAD PUSH32 0x8C379A000000000000000000000000000000000000000000000000000000000 DUP2 MSTORE PUSH1 0x4 ADD PUSH2 0xB22 SWAP1 PUSH2 0x154F JUMP JUMPDEST PUSH1 0x40 MLOAD DUP1 SWAP2 SUB SWAP1 REVERT JUMPDEST JUMP JUMPDEST CALLER PUSH20 0xFFFFFFFFFFFFFFFFFFFFFFFFFFFFFFFFFFFFFFFF AND DUP2 PUSH20 0xFFFFFFFFFFFFFFFFFFFFFFFFFFFFFFFFFFFFFFFF AND SUB PUSH2 0xB9B JUMPI PUSH1 0x40 MLOAD PUSH32 0x8C379A000000000000000000000000000000000000000000000000000000000 DUP2 MSTORE PUSH1 0x4 ADD PUSH2 0xB92 SWAP1 PUSH2 0x15BB JUMP JUMPDEST PUSH1 0x40 MLOAD DUP1 SWAP2 SUB SWAP1 REVERT JUMPDEST DUP1 PUSH1 0x1 PUSH1 0x0 PUSH2 0x100 EXP DUP2 SLOAD DUP2 PUSH20 0xFFFFFFFFFFFFFFFFFFFFFFFFFFFFFFFFFFFFFFFF MUL NOT AND SWAP1 DUP4 PUSH20 0xFFFFFFFFFFFFFFFFFFFFFFFFFFFFFFFFFFFFFFFF AND MUL OR SWAP1 SSTORE POP DUP1 PUSH20 0xFFFFFFFFFFFFFFFFFFFFFFFFFFFFFFFFFFFFFFFF AND PUSH1 0x0 DUP1 SLOAD SWAP1 PUSH2 0x100 EXP SWAP1 DIV PUSH20 0xFFFFFFFFFFFFFFFFFFFFFFFFFFFFFFFFFFFFFFFF AND PUSH20 0xFFFFFFFFFFFFFFFFFFFFFFFFFFFFFFFFFFFFFFFF AND PUSH32 0xED8889F560326EB138920D842192F0EB3DD22B4F139C87A2C57538E05BAE1278 PUSH1 0x40 MLOAD PUSH1 0x40 MLOAD DUP1 SWAP2 SUB SWAP1 LOG3 POP JUMP JUMPDEST DUP3 DUP1 SLOAD DUP3 DUP3 SSTORE SWAP1 PUSH1 0x0 MSTORE PUSH1 0x20 PUSH1 0x0 KECCAK256 SWAP1 DUP2 ADD SWAP3 DUP3 ISZERO PUSH2 0xC95 JUMPI SWAP2 PUSH1 0x20 MUL DUP3 ADD JUMPDEST DUP3 DUP2 GT ISZERO PUSH2 0xC94 JUMPI DUP3 MLOAD DUP3 SSTORE SWAP2 PUSH1 0x20 ADD SWAP2 SWAP1 PUSH1 0x1 ADD SWAP1 PUSH2 0xC79 JUMP JUMPDEST JUMPDEST POP SWAP1 POP PUSH2 0xCA2 SWAP2 SWAP1 PUSH2 0xCA6 JUMP JUMPDEST POP SWAP1 JUMP JUMPDEST JUMPDEST DUP1 DUP3 GT ISZERO PUSH2 0xCBF JUMPI PUSH1 0x0 DUP2 PUSH1 0x0 SWAP1 SSTORE POP PUSH1 0x1 ADD PUSH2 0xCA7 JUMP JUMPDEST POP SWAP1 JUMP JUMPDEST PUSH1 0x0 PUSH1 0x40 MLOAD SWAP1 POP SWAP1 JUMP JUMPDEST PUSH1 0x0 DUP1 REVERT JUMPDEST PUSH1 0x0 DUP1 REVERT JUMPDEST PUSH1 0x0 DUP2 SWAP1 POP SWAP2 SWAP1 POP JUMP JUMPDEST PUSH2 0xCEA DUP2 PUSH2 0xCD7 JUMP JUMPDEST DUP2 EQ PUSH2 0xCF5 JUMPI PUSH1 0x0 DUP1 REVERT JUMPDEST POP JUMP JUMPDEST PUSH1 0x0 DUP2 CALLDATALOAD SWAP1 POP PUSH2 0xD07 DUP2 PUSH2 0xCE1 JUMP JUMPDEST SWAP3 SWAP2 POP POP JUMP JUMPDEST PUSH1 0x0 PUSH1 0x20 DUP3 DUP5 SUB SLT ISZERO PUSH2 0xD23 JUMPI PUSH2 0xD22 PUSH2 0xCCD JUMP JUMPDEST JUMPDEST PUSH1 0x0 PUSH2 0xD31 DUP5 DUP3 DUP6 ADD PUSH2 0xCF8 JUMP JUMPDEST SWAP2 POP POP SWAP3 SWAP2 POP POP JUMP JUMPDEST PUSH1 0x0 DUP2 MLOAD SWAP1 POP SWAP2 SWAP1 POP JUMP JUMPDEST PUSH1 0x0 DUP3 DUP3 MSTORE PUSH1 0x20 DUP3 ADD SWAP1 POP SWAP3 SWAP2 POP POP JUMP JUMPDEST PUSH1 0x0 JUMPDEST DUP4 DUP2 LT ISZERO PUSH2 0xD74 JUMPI DUP1 DUP3 ADD MLOAD DUP2 DUP5 ADD MSTORE PUSH1 0x20 DUP2 ADD SWAP1 POP PUSH2 0xD59 JUMP JUMPDEST PUSH1 0x0 DUP5 DUP5 ADD MSTORE POP POP POP POP JUMP JUMPDEST PUSH1 0x0 PUSH1 0x1F NOT PUSH1 0x1F DUP4 ADD AND SWAP1 POP SWAP2 SWAP1 POP JUMP JUMPDEST PUSH1 0x0 PUSH2 0xD9C DUP3 PUSH2 0xD3A JUMP JUMPDEST PUSH2 0xDA6 DUP2 DUP6 PUSH2 0xD45 JUMP JUMPDEST SWAP4 POP PUSH2 0xDB6 DUP2 DUP6 PUSH1 0x20 DUP7 ADD PUSH2 0xD56 JUMP JUMPDEST PUSH2 0xDBF DUP2 PUSH2 0xD80 JUMP JUMPDEST DUP5 ADD SWAP2 POP POP SWAP3 SWAP2 POP POP JUMP JUMPDEST PUSH1 0x0 PUSH1 0x20 DUP3 ADD SWAP1 POP DUP2 DUP2 SUB PUSH1 0x0 DUP4 ADD MSTORE PUSH2 0xDE4 DUP2 DUP5 PUSH2 0xD91 JUMP JUMPDEST SWAP1 POP SWAP3 SWAP2 POP POP JUMP JUMPDEST PUSH1 0x0 DUP1 REVERT JUMPDEST PUSH32 0x4E487B7100000000000000000000000000000000000000000000000000000000 PUSH1 0x0 MSTORE PUSH1 0x41 PUSH1 0x4 MSTORE PUSH1 0x24 PUSH1 0x0 REVERT JUMPDEST PUSH2 0xE29 DUP3 PUSH2 0xD80 JUMP JUMPDEST DUP2 ADD DUP2 DUP2 LT PUSH8 0xFFFFFFFFFFFFFFFF DUP3 GT OR ISZERO PUSH2 0xE48 JUMPI PUSH2 0xE47 PUSH2 0xDF1 JUMP JUMPDEST JUMPDEST DUP1 PUSH1 0x40 MSTORE POP POP POP JUMP JUMPDEST PUSH1 0x0 PUSH2 0xE5B PUSH2 0xCC3 JUMP JUMPDEST SWAP1 POP PUSH2 0xE67 DUP3 DUP3 PUSH2 0xE20 JUMP JUMPDEST SWAP2 SWAP1 POP JUMP JUMPDEST PUSH1 0x0 PUSH8 0xFFFFFFFFFFFFFFFF DUP3 GT ISZERO PUSH2 0xE87 JUMPI PUSH2 0xE86 PUSH2 0xDF1 JUMP JUMPDEST JUMPDEST PUSH1 0x20 DUP3 MUL SWAP1 POP PUSH1 0x20 DUP2 ADD SWAP1 POP SWAP2 SWAP1 POP JUMP JUMPDEST PUSH1 0x0 DUP1 REVERT JUMPDEST PUSH1 0x0 PUSH2 0xEB0 PUSH2 0xEAB DUP5 PUSH2 0xE6C JUMP JUMPDEST PUSH2 0xE51 JUMP JUMPDEST SWAP1 POP DUP1 DUP4 DUP3 MSTORE PUSH1 0x20 DUP3 ADD SWAP1 POP PUSH1 0x20 DUP5 MUL DUP4 ADD DUP6 DUP2 GT ISZERO PUSH2 0xED3 JUMPI PUSH2 0xED2 PUSH2 0xE98 JUMP JUMPDEST JUMPDEST DUP4 JUMPDEST DUP2 DUP2 LT ISZERO PUSH2 0xEFC JUMPI DUP1 PUSH2 0xEE8 DUP9 DUP3 PUSH2 0xCF8 JUMP JUMPDEST DUP5 MSTORE PUSH1 0x20 DUP5 ADD SWAP4 POP POP PUSH1 0x20 DUP2 ADD SWAP1 POP PUSH2 0xED5 JUMP JUMPDEST POP POP POP SWAP4 SWAP3 POP POP POP JUMP JUMPDEST PUSH1 0x0 DUP3 PUSH1 0x1F DUP4 ADD SLT PUSH2 0xF1B JUMPI PUSH2 0xF1A PUSH2 0xDEC JUMP JUMPDEST JUMPDEST DUP2 CALLDATALOAD PUSH2 0xF2B DUP5 DUP3 PUSH1 0x20 DUP7 ADD PUSH2 0xE9D JUMP JUMPDEST SWAP2 POP POP SWAP3 SWAP2 POP POP JUMP JUMPDEST PUSH1 0x0 DUP1 PUSH1 0x40 DUP4 DUP6 SUB SLT ISZERO PUSH2 0xF4B JUMPI PUSH2 0xF4A PUSH2 0xCCD JUMP JUMPDEST JUMPDEST PUSH1 0x0 PUSH2 0xF59 DUP6 DUP3 DUP7 ADD PUSH2 0xCF8 JUMP JUMPDEST SWAP3 POP POP PUSH1 0x20 DUP4 ADD CALLDATALOAD PUSH8 0xFFFFFFFFFFFFFFFF DUP2 GT ISZERO PUSH2 0xF7A JUMPI PUSH2 0xF79 PUSH2 0xCD2 JUMP JUMPDEST JUMPDEST PUSH2 0xF86 DUP6 DUP3 DUP7 ADD PUSH2 0xF06 JUMP JUMPDEST SWAP2 POP POP SWAP3 POP SWAP3 SWAP1 POP JUMP JUMPDEST PUSH2 0xF99 DUP2 PUSH2 0xCD7 JUMP JUMPDEST DUP3 MSTORE POP POP JUMP JUMPDEST PUSH1 0x0 PUSH1 0x20 DUP3 ADD SWAP1 POP PUSH2 0xFB4 PUSH1 0x0 DUP4 ADD DUP5 PUSH2 0xF90 JUMP JUMPDEST SWAP3 SWAP2 POP POP JUMP JUMPDEST PUSH1 0x0 PUSH20 0xFFFFFFFFFFFFFFFFFFFFFFFFFFFFFFFFFFFFFFFF DUP3 AND SWAP1 POP SWAP2 SWAP1 POP JUMP JUMPDEST PUSH1 0x0 PUSH2 0xFE5 DUP3 PUSH2 0xFBA JUMP JUMPDEST SWAP1 POP SWAP2 SWAP1 POP JUMP JUMPDEST PUSH2 0xFF5 DUP2 PUSH2 0xFDA JUMP JUMPDEST DUP3 MSTORE POP POP JUMP JUMPDEST PUSH1 0x0 PUSH1 0x20 DUP3 ADD SWAP1 POP PUSH2 0x1010 PUSH1 0x0 DUP4 ADD DUP5 PUSH2 0xFEC JUMP JUMPDEST SWAP3 SWAP2 POP POP JUMP JUMPDEST PUSH1 0x0 DUP2 ISZERO ISZERO SWAP1 POP SWAP2 SWAP1 POP JUMP JUMPDEST PUSH2 0x102B DUP2 PUSH2 0x1016 JUMP JUMPDEST DUP3 MSTORE POP POP JUMP JUMPDEST PUSH1 0x0 PUSH1 0x40 DUP3 ADD SWAP1 POP PUSH2 0x1046 PUSH1 0x0 DUP4 ADD DUP6 PUSH2 0x1022 JUMP JUMPDEST PUSH2 0x1053 PUSH1 0x20 DUP4 ADD DUP5 PUSH2 0x1022 JUMP JUMPDEST SWAP4 SWAP3 POP POP POP JUMP JUMPDEST PUSH1 0x0 DUP2 MLOAD SWAP1 POP SWAP2 SWAP1 POP JUMP JUMPDEST PUSH1 0x0 DUP3 DUP3 MSTORE PUSH1 0x20 DUP3 ADD SWAP1 POP SWAP3 SWAP2 POP POP JUMP JUMPDEST PUSH1 0x0 DUP2 SWAP1 POP PUSH1 0x20 DUP3 ADD SWAP1 POP SWAP2 SWAP1 POP JUMP JUMPDEST PUSH2 0x108F DUP2 PUSH2 0xCD7 JUMP JUMPDEST DUP3 MSTORE POP POP JUMP JUMPDEST PUSH1 0x0 PUSH2 0x10A1 DUP4 DUP4 PUSH2 0x1086 JUMP JUMPDEST PUSH1 0x20 DUP4 ADD SWAP1 POP SWAP3 SWAP2 POP POP JUMP JUMPDEST PUSH1 0x0 PUSH1 0x20 DUP3 ADD SWAP1 POP SWAP2 SWAP1 POP JUMP JUMPDEST PUSH1 0x0 PUSH2 0x10C5 DUP3 PUSH2 0x105A JUMP JUMPDEST PUSH2 0x10CF DUP2 DUP6 PUSH2 0x1065 JUMP JUMPDEST SWAP4 POP PUSH2 0x10DA DUP4 PUSH2 0x1076 JUMP JUMPDEST DUP1 PUSH1 0x0 JUMPDEST DUP4 DUP2 LT ISZERO PUSH2 0x110B JUMPI DUP2 MLOAD PUSH2 0x10F2 DUP9 DUP3 PUSH2 0x1095 JUMP JUMPDEST SWAP8 POP PUSH2 0x10FD DUP4 PUSH2 0x10AD JUMP JUMPDEST SWAP3 POP POP PUSH1 0x1 DUP2 ADD SWAP1 POP PUSH2 0x10DE JUMP JUMPDEST POP DUP6 SWAP4 POP POP POP POP SWAP3 SWAP2 POP POP JUMP JUMPDEST PUSH1 0x0 PUSH1 0x40 DUP3 ADD SWAP1 POP PUSH2 0x112D PUSH1 0x0 DUP4 ADD DUP6 PUSH2 0x1022 JUMP JUMPDEST DUP2 DUP2 SUB PUSH1 0x20 DUP4 ADD MSTORE PUSH2 0x113F DUP2 DUP5 PUSH2 0x10BA JUMP JUMPDEST SWAP1 POP SWAP4 SWAP3 POP POP POP JUMP JUMPDEST PUSH2 0x1151 DUP2 PUSH2 0xFDA JUMP JUMPDEST DUP2 EQ PUSH2 0x115C JUMPI PUSH1 0x0 DUP1 REVERT JUMPDEST POP JUMP JUMPDEST PUSH1 0x0 DUP2 CALLDATALOAD SWAP1 POP PUSH2 0x116E DUP2 PUSH2 0x1148 JUMP JUMPDEST SWAP3 SWAP2 POP POP JUMP JUMPDEST PUSH1 0x0 PUSH1 0x20 DUP3 DUP5 SUB SLT ISZERO PUSH2 0x118A JUMPI PUSH2 0x1189 PUSH2 0xCCD JUMP JUMPDEST JUMPDEST PUSH1 0x0 PUSH2 0x1198 DUP5 DUP3 DUP6 ADD PUSH2 0x115F JUMP JUMPDEST SWAP2 POP POP SWAP3 SWAP2 POP POP JUMP JUMPDEST PUSH32 0x4E6F74207965742066756C66696C6C6564000000000000000000000000000000 PUSH1 0x0 DUP3 ADD MSTORE POP JUMP JUMPDEST PUSH1 0x0 PUSH2 0x11D7 PUSH1 0x11 DUP4 PUSH2 0xD45 JUMP JUMPDEST SWAP2 POP PUSH2 0x11E2 DUP3 PUSH2 0x11A1 JUMP JUMPDEST PUSH1 0x20 DUP3 ADD SWAP1 POP SWAP2 SWAP1 POP JUMP JUMPDEST PUSH1 0x0 PUSH1 0x20 DUP3 ADD SWAP1 POP DUP2 DUP2 SUB PUSH1 0x0 DUP4 ADD MSTORE PUSH2 0x1206 DUP2 PUSH2 0x11CA JUMP JUMPDEST SWAP1 POP SWAP2 SWAP1 POP JUMP JUMPDEST PUSH32 0x4E487B7100000000000000000000000000000000000000000000000000000000 PUSH1 0x0 MSTORE PUSH1 0x32 PUSH1 0x4 MSTORE PUSH1 0x24 PUSH1 0x0 REVERT JUMPDEST PUSH32 0x4E487B7100000000000000000000000000000000000000000000000000000000 PUSH1 0x0 MSTORE PUSH1 0x12 PUSH1 0x4 MSTORE PUSH1 0x24 PUSH1 0x0 REVERT JUMPDEST PUSH1 0x0 PUSH2 0x1276 DUP3 PUSH2 0xCD7 JUMP JUMPDEST SWAP2 POP PUSH2 0x1281 DUP4 PUSH2 0xCD7 JUMP JUMPDEST SWAP3 POP DUP3 PUSH2 0x1291 JUMPI PUSH2 0x1290 PUSH2 0x123C JUMP JUMPDEST JUMPDEST DUP3 DUP3 MOD SWAP1 POP SWAP3 SWAP2 POP POP JUMP JUMPDEST PUSH1 0x0 PUSH1 0x40 DUP3 ADD SWAP1 POP PUSH2 0x12B1 PUSH1 0x0 DUP4 ADD DUP6 PUSH2 0xFEC JUMP JUMPDEST PUSH2 0x12BE PUSH1 0x20 DUP4 ADD DUP5 PUSH2 0xFEC JUMP JUMPDEST SWAP4 SWAP3 POP POP POP JUMP JUMPDEST PUSH32 0x4D7573742062652070726F706F736564206F776E657200000000000000000000 PUSH1 0x0 DUP3 ADD MSTORE POP JUMP JUMPDEST PUSH1 0x0 PUSH2 0x12FB PUSH1 0x16 DUP4 PUSH2 0xD45 JUMP JUMPDEST SWAP2 POP PUSH2 0x1306 DUP3 PUSH2 0x12C5 JUMP JUMPDEST PUSH1 0x20 DUP3 ADD SWAP1 POP SWAP2 SWAP1 POP JUMP JUMPDEST PUSH1 0x0 PUSH1 0x20 DUP3 ADD SWAP1 POP DUP2 DUP2 SUB PUSH1 0x0 DUP4 ADD MSTORE PUSH2 0x132A DUP2 PUSH2 0x12EE JUMP JUMPDEST SWAP1 POP SWAP2 SWAP1 POP JUMP JUMPDEST PUSH32 0x72657175657374206E6F7420666F756E64000000000000000000000000000000 PUSH1 0x0 DUP3 ADD MSTORE POP JUMP JUMPDEST PUSH1 0x0 PUSH2 0x1367 PUSH1 0x11 DUP4 PUSH2 0xD45 JUMP JUMPDEST SWAP2 POP PUSH2 0x1372 DUP3 PUSH2 0x1331 JUMP JUMPDEST PUSH1 0x20 DUP3 ADD SWAP1 POP SWAP2 SWAP1 POP JUMP JUMPDEST PUSH1 0x0 PUSH1 0x20 DUP3 ADD SWAP1 POP DUP2 DUP2 SUB PUSH1 0x0 DUP4 ADD MSTORE PUSH2 0x1396 DUP2 PUSH2 0x135A JUMP JUMPDEST SWAP1 POP SWAP2 SWAP1 POP JUMP JUMPDEST PUSH1 0x0 DUP2 SWAP1 POP SWAP2 SWAP1 POP JUMP JUMPDEST PUSH2 0x13B0 DUP2 PUSH2 0x139D JUMP JUMPDEST DUP3 MSTORE POP POP JUMP JUMPDEST PUSH1 0x0 PUSH8 0xFFFFFFFFFFFFFFFF DUP3 AND SWAP1 POP SWAP2 SWAP1 POP JUMP JUMPDEST PUSH2 0x13D3 DUP2 PUSH2 0x13B6 JUMP JUMPDEST DUP3 MSTORE POP POP JUMP JUMPDEST PUSH1 0x0 PUSH2 0xFFFF DUP3 AND SWAP1 POP SWAP2 SWAP1 POP JUMP JUMPDEST PUSH2 0x13F0 DUP2 PUSH2 0x13D9 JUMP JUMPDEST DUP3 MSTORE POP POP JUMP JUMPDEST PUSH1 0x0 PUSH4 0xFFFFFFFF DUP3 AND SWAP1 POP SWAP2 SWAP1 POP JUMP JUMPDEST PUSH2 0x140F DUP2 PUSH2 0x13F6 JUMP JUMPDEST DUP3 MSTORE POP POP JUMP JUMPDEST PUSH1 0x0 PUSH1 0xA0 DUP3 ADD SWAP1 POP PUSH2 0x142A PUSH1 0x0 DUP4 ADD DUP9 PUSH2 0x13A7 JUMP JUMPDEST PUSH2 0x1437 PUSH1 0x20 DUP4 ADD DUP8 PUSH2 0x13CA JUMP JUMPDEST PUSH2 0x1444 PUSH1 0x40 DUP4 ADD DUP7 PUSH2 0x13E7 JUMP JUMPDEST PUSH2 0x1451 PUSH1 0x60 DUP4 ADD DUP6 PUSH2 0x1406 JUMP JUMPDEST PUSH2 0x145E PUSH1 0x80 DUP4 ADD DUP5 PUSH2 0x1406 JUMP JUMPDEST SWAP7 SWAP6 POP POP POP POP POP POP JUMP JUMPDEST PUSH1 0x0 DUP2 MLOAD SWAP1 POP PUSH2 0x1477 DUP2 PUSH2 0xCE1 JUMP JUMPDEST SWAP3 SWAP2 POP POP JUMP JUMPDEST PUSH1 0x0 PUSH1 0x20 DUP3 DUP5 SUB SLT ISZERO PUSH2 0x1493 JUMPI PUSH2 0x1492 PUSH2 0xCCD JUMP JUMPDEST JUMPDEST PUSH1 0x0 PUSH2 0x14A1 DUP5 DUP3 DUP6 ADD PUSH2 0x1468 JUMP JUMPDEST SWAP2 POP POP SWAP3 SWAP2 POP POP JUMP JUMPDEST PUSH1 0x0 PUSH1 0x40 DUP3 ADD SWAP1 POP PUSH2 0x14BF PUSH1 0x0 DUP4 ADD DUP6 PUSH2 0xF90 JUMP JUMPDEST PUSH2 0x14CC PUSH1 0x20 DUP4 ADD DUP5 PUSH2 0x1406 JUMP JUMPDEST SWAP4 SWAP3 POP POP POP JUMP JUMPDEST PUSH1 0x0 PUSH1 0x40 DUP3 ADD SWAP1 POP PUSH2 0x14E8 PUSH1 0x0 DUP4 ADD DUP6 PUSH2 0xF90 JUMP JUMPDEST DUP2 DUP2 SUB PUSH1 0x20 DUP4 ADD MSTORE PUSH2 0x14FA DUP2 DUP5 PUSH2 0x10BA JUMP JUMPDEST SWAP1 POP SWAP4 SWAP3 POP POP POP JUMP JUMPDEST PUSH32 0x4F6E6C792063616C6C61626C65206279206F776E657200000000000000000000 PUSH1 0x0 DUP3 ADD MSTORE POP JUMP JUMPDEST PUSH1 0x0 PUSH2 0x1539 PUSH1 0x16 DUP4 PUSH2 0xD45 JUMP JUMPDEST SWAP2 POP PUSH2 0x1544 DUP3 PUSH2 0x1503 JUMP JUMPDEST PUSH1 0x20 DUP3 ADD SWAP1 POP SWAP2 SWAP1 POP JUMP JUMPDEST PUSH1 0x0 PUSH1 0x20 DUP3 ADD SWAP1 POP DUP2 DUP2 SUB PUSH1 0x0 DUP4 ADD MSTORE PUSH2 0x1568 DUP2 PUSH2 0x152C JUMP JUMPDEST SWAP1 POP SWAP2 SWAP1 POP JUMP JUMPDEST PUSH32 0x43616E6E6F74207472616E7366657220746F2073656C66000000000000000000 PUSH1 0x0 DUP3 ADD MSTORE POP JUMP JUMPDEST PUSH1 0x0 PUSH2 0x15A5 PUSH1 0x17 DUP4 PUSH2 0xD45 JUMP JUMPDEST SWAP2 POP PUSH2 0x15B0 DUP3 PUSH2 0x156F JUMP JUMPDEST PUSH1 0x20 DUP3 ADD SWAP1 POP SWAP2 SWAP1 POP JUMP JUMPDEST PUSH1 0x0 PUSH1 0x20 DUP3 ADD SWAP1 POP DUP2 DUP2 SUB PUSH1 0x0 DUP4 ADD MSTORE PUSH2 0x15D4 DUP2 PUSH2 0x1598 JUMP JUMPDEST SWAP1 POP SWAP2 SWAP1 POP JUMP INVALID LOG2 PUSH5 0x6970667358 0x22 SLT KECCAK256 SLT 0xB4 0xC2 0xEC LOG3 LOG2 0x28 0xE9 PUSH28 0xD85B044E67627DB6F4E2E3FE57BC469A5D082681FD248D64736F6C63 NUMBER STOP ADDMOD SLT STOP CALLER "
				},
				"gasEstimates": {
					"creation": {
						"codeDepositCost": "1129800",
						"executionCost": "infinite",
						"totalCost": "infinite"
					},
					"external": {
						"acceptOwnership()": "54585",
						"getRequestStatus(uint256)": "infinite",
						"lastRequestId()": "2517",
						"owner()": "2611",
						"rawFulfillRandomWords(uint256,uint256[])": "infinite",
						"requestIds(uint256)": "infinite",
						"requestRandomWords()": "infinite",
						"s_requests(uint256)": "infinite",
						"tossResult(uint256)": "infinite",
						"transferOwnership(address)": "30720"
					},
					"internal": {
						"fulfillRandomWords(uint256,uint256[] memory)": "infinite"
					}
				},
				"methodIdentifiers": {
					"acceptOwnership()": "79ba5097",
					"getRequestStatus(uint256)": "d8a4676f",
					"lastRequestId()": "fc2a88c3",
					"owner()": "8da5cb5b",
					"rawFulfillRandomWords(uint256,uint256[])": "1fe543e3",
					"requestIds(uint256)": "8796ba8c",
					"requestRandomWords()": "e0c86289",
					"s_requests(uint256)": "a168fa89",
					"tossResult(uint256)": "03ae649f",
					"transferOwnership(address)": "f2fde38b"
				}
			},
			"storageLayout": {
				"storage": [
					{
						"astId": 27,
						"contract": "contract/CoinToss.sol:VRFv2Consumer",
						"label": "s_owner",
						"offset": 0,
						"slot": "0",
						"type": "t_address"
					},
					{
						"astId": 29,
						"contract": "contract/CoinToss.sol:VRFv2Consumer",
						"label": "s_pendingOwner",
						"offset": 0,
						"slot": "1",
						"type": "t_address"
					},
					{
						"astId": 386,
						"contract": "contract/CoinToss.sol:VRFv2Consumer",
						"label": "s_requests",
						"offset": 0,
						"slot": "2",
						"type": "t_mapping(t_uint256,t_struct(RequestStatus)381_storage)"
					},
					{
						"astId": 389,
						"contract": "contract/CoinToss.sol:VRFv2Consumer",
						"label": "COORDINATOR",
						"offset": 0,
						"slot": "3",
						"type": "t_contract(VRFCoordinatorV2Interface)351"
					},
					{
						"astId": 391,
						"contract": "contract/CoinToss.sol:VRFv2Consumer",
						"label": "s_subscriptionId",
						"offset": 20,
						"slot": "3",
						"type": "t_uint64"
					},
					{
						"astId": 394,
						"contract": "contract/CoinToss.sol:VRFv2Consumer",
						"label": "requestIds",
						"offset": 0,
						"slot": "4",
						"type": "t_array(t_uint256)dyn_storage"
					},
					{
						"astId": 396,
						"contract": "contract/CoinToss.sol:VRFv2Consumer",
						"label": "lastRequestId",
						"offset": 0,
						"slot": "5",
						"type": "t_uint256"
					},
					{
						"astId": 399,
						"contract": "contract/CoinToss.sol:VRFv2Consumer",
						"label": "keyHash",
						"offset": 0,
						"slot": "6",
						"type": "t_bytes32"
					},
					{
						"astId": 402,
						"contract": "contract/CoinToss.sol:VRFv2Consumer",
						"label": "callbackGasLimit",
						"offset": 0,
						"slot": "7",
						"type": "t_uint32"
					},
					{
						"astId": 405,
						"contract": "contract/CoinToss.sol:VRFv2Consumer",
						"label": "requestConfirmations",
						"offset": 4,
						"slot": "7",
						"type": "t_uint16"
					},
					{
						"astId": 408,
						"contract": "contract/CoinToss.sol:VRFv2Consumer",
						"label": "numWords",
						"offset": 6,
						"slot": "7",
						"type": "t_uint32"
					}
				],
				"types": {
					"t_address": {
						"encoding": "inplace",
						"label": "address",
						"numberOfBytes": "20"
					},
					"t_array(t_uint256)dyn_storage": {
						"base": "t_uint256",
						"encoding": "dynamic_array",
						"label": "uint256[]",
						"numberOfBytes": "32"
					},
					"t_bool": {
						"encoding": "inplace",
						"label": "bool",
						"numberOfBytes": "1"
					},
					"t_bytes32": {
						"encoding": "inplace",
						"label": "bytes32",
						"numberOfBytes": "32"
					},
					"t_contract(VRFCoordinatorV2Interface)351": {
						"encoding": "inplace",
						"label": "contract VRFCoordinatorV2Interface",
						"numberOfBytes": "20"
					},
					"t_mapping(t_uint256,t_struct(RequestStatus)381_storage)": {
						"encoding": "mapping",
						"key": "t_uint256",
						"label": "mapping(uint256 => struct VRFv2Consumer.RequestStatus)",
						"numberOfBytes": "32",
						"value": "t_struct(RequestStatus)381_storage"
					},
					"t_struct(RequestStatus)381_storage": {
						"encoding": "inplace",
						"label": "struct VRFv2Consumer.RequestStatus",
						"members": [
							{
								"astId": 375,
								"contract": "contract/CoinToss.sol:VRFv2Consumer",
								"label": "fulfilled",
								"offset": 0,
								"slot": "0",
								"type": "t_bool"
							},
							{
								"astId": 377,
								"contract": "contract/CoinToss.sol:VRFv2Consumer",
								"label": "exists",
								"offset": 1,
								"slot": "0",
								"type": "t_bool"
							},
							{
								"astId": 380,
								"contract": "contract/CoinToss.sol:VRFv2Consumer",
								"label": "randomWords",
								"offset": 0,
								"slot": "1",
								"type": "t_array(t_uint256)dyn_storage"
							}
						],
						"numberOfBytes": "64"
					},
					"t_uint16": {
						"encoding": "inplace",
						"label": "uint16",
						"numberOfBytes": "2"
					},
					"t_uint256": {
						"encoding": "inplace",
						"label": "uint256",
						"numberOfBytes": "32"
					},
					"t_uint32": {
						"encoding": "inplace",
						"label": "uint32",
						"numberOfBytes": "4"
					},
					"t_uint64": {
						"encoding": "inplace",
						"label": "uint64",
						"numberOfBytes": "8"
					}
				}
			},
			"userdoc": {
				"kind": "user",
				"methods": {
					"acceptOwnership()": {
						"notice": "Allows an ownership transfer to be completed by the recipient."
					},
					"owner()": {
						"notice": "Get the current owner"
					},
					"transferOwnership(address)": {
						"notice": "Allows an owner to begin transferring ownership to a new address, pending."
					}
				},
				"version": 1
			}
		}
	}
}